:020000040000FA
:100000000C9468000C9490000C9490000C94900058
:100010000C9490000C9490000C9490000C94900020
:100020000C9490000C9490000C9490000C94900010
:100030000C9490000C9490000C9490000C94900000
:100040000C9475040C9490000C9443040C941D04BF
:100050000C9490000C9490000C9490000C949000E0
:100060000C9490000C949000005EBCE2613FDD8334
:10007000C29C7E20A3FD1F41009D23BE46DB65F888
:100080008C11AF32CA57E974000000002500280027
:100090002B0000000000240027002A0000000000C0
:1000A00023002600290004040404040404040202BA
:1000B00002020202030303030303010204081020E7
:1000C0004080010204081020010204081020BF042F
:1000D00011241FBECFEFD8E0DEBFCDBF11E0A0E0FE
:1000E000B1E0EEE6F3E102C005900D92A43CB10749
:1000F000D9F722E0A4ECB1E001C01D92A837B20705
:10010000E1F710E0C8E6D0E004C02197FE010E94AC
:10011000AF09C736D107C9F70E9450050C94B5093D
:100120000C94000080916A02E0916B02F0916C02E5
:10013000F8949181982B91832281382F3095232335
:100140002283A7E0B0E01197F1F791819323918387
:10015000A3E2B0E01197F1F790817894EFECF0E032
:100160003197F1F7982381E009F480E008959091A8
:100170006A02E0916B02F0916C02292F209580FFBA
:1001800014C0F8948281822382838181892B8183A8
:10019000A3E2B0E01197F1F78281982B92837894D3
:1001A00087ED90E00197F1F70895F894828182231A
:1001B00082838181892B8183AFEFB0E01197F1F7C2
:1001C0008281982B928378948FE090E0EBCFFF921E
:1001D0000F931F93CF93DF93F82E062FC8E0D0E044
:1001E00011E081E09F2D912309F480E00E94B70087
:1001F000110F2197B1F7011113C0F894E0916B0230
:10020000F0916C02918180916A028095982391838C
:10021000E0916B02F0916C02928189238283789441
:10022000DF91CF911F910F91FF9008950F931F932E
:10023000CF93DF938C0160E085E50E94E700E80141
:10024000085F1F4F60E089910E94E700C017D10747
:10025000C9F7DF91CF911F910F91089580916A02A4
:10026000E0916B02F0916C02F8949181282F209517
:100270009223918378943DE743E050E0315029F197
:10028000DA011197F1F790819823C1F3F8949281E4
:10029000922392839181982B91837894ABE7B7E076
:1002A0001197F1F7F894918192239183A3E1B1E042
:1002B0001197F1F79081982381E009F080E078941C
:1002C000E3E6F6E03197F1F7089580E00895AF9204
:1002D000BF92CF92DF92EF92FF920F931F93CF9333
:1002E000DF936C017B018B01040F151FEB015E0195
:1002F000AE18BF08C017D10759F06991D601ED912A
:10030000FC910190F081E02DC6010995892B79F7C8
:10031000C501DF91CF911F910F91FF90EF90DF907A
:10032000CF90BF90AF900895FC01538D448D252F41
:1003300030E0842F90E0821B930B541710F0CF967F
:10034000089501970895FC01918D828D981761F0B1
:10035000A28DAE0FBF2FB11D5D968C91928D9F5FC8
:100360009F73928F90E008958FEF9FEF0895FC01A7
:10037000918D828D981731F0828DE80FF11D858D5A
:1003800090E008958FEF9FEF0895FC01918D228DED
:10039000892F90E0805C9F4F821B91098F73992772
:1003A00008958DEC91E00E94C50121E0892B09F4AC
:1003B00020E0822F089580E090E0892B29F00E94B0
:1003C000D10181110C9400000895FC01A48DA80FA7
:1003D000B92FB11DA35ABF4F2C91848D90E0019687
:1003E0008F739927848FA689B7892C93A089B189A7
:1003F0008C91837080648C93938D848D981306C048
:100400000288F389E02D80818F7D80830895EF92AB
:10041000FF920F931F93CF93DF93EC0181E0888FBE
:100420009B8D8C8D98131AC0E889F989808185FF8E
:1004300015C09FB7F894EE89FF896083E889F98930
:1004400080818370806480839FBF81E090E0DF9132
:10045000CF911F910F91FF90EF900895F62E0B8D85
:1004600010E00F5F1F4F0F731127E02E8C8D8E1140
:100470000CC00FB607FCFACFE889F989808185FFA7
:10048000F5CFCE010E94E501F1CFEB8DEC0FFD2FF2
:10049000F11DE35AFF4FF0829FB7F8940B8FEA8962
:1004A000FB8980818062CFCFCF93DF93EC01888D71
:1004B0008823B9F0AA89BB89E889F9898C9185FDDF
:1004C00003C0808186FD0DC00FB607FCF7CF8C916D
:1004D00085FFF2CF808185FFEDCFCE010E94E5013F
:1004E000E9CFDF91CF9108953FB7F8948091C9018A
:1004F0009091CA01A091CB01B091CC0126B5A89BE7
:1005000005C02F3F19F00196A11DB11D3FBFBA2FA5
:10051000A92F982F8827BC01CD01620F711D811D65
:10052000911D42E0660F771F881F991F4A95D1F7EA
:1005300008958F929F92AF92BF92CF92DF92EF92E7
:10054000FF924B015C010E9474026B017C010E94CE
:1005500074026C197D098E099F09683E73408105FC
:100560009105A8F321E0821A9108A108B10888EE4C
:10057000C80E83E0D81EE11CF11C81149104A10473
:10058000B10429F7FF90EF90DF90CF90BF90AF902C
:100590009F908F900895DC0180E0615090F09D91D4
:1005A0009827E92FEF70F0E0E859FF4F2491E92FE9
:1005B000E295EF70F0E0E858FF4FE491822F8E272C
:1005C000ECCF0895FC0101900020E9F73197AF01CD
:1005D000481B590BBC018DEC91E00C9467018F9284
:1005E0009F92AF92BF920F931F93CF93DF93CDB79C
:1005F000DEB7A1970FB6F894DEBF0FBECDBF19A22C
:10060000423008F44AE08E010F5D1F4F842E912C7A
:10061000B12CA12CA50194010E948D09E62FB901EE
:10062000CA01EA30F4F4E05DD801EE938D01232B8A
:10063000242B252B79F790E080E0109719F0CD015D
:100640000E94E202A1960FB6F894DEBF0FBECDBFA6
:10065000DF91CF911F910F91BF90AF909F908F909E
:100660000895E95CE1CFCF93DF930E94E202EC01B1
:1006700082E191E00E94E2028C0F9D1FDF91CF91F9
:1006800008954F925F926F927F928F929F92AF9256
:10069000BF92CF92DF92EF92FF920F931F93CF936F
:1006A0006B017C01742EAC019B010E948809882398
:1006B00099F085E191E0CF911F910F91FF90EF901C
:1006C000DF90CF90BF90AF909F908F907F906F9072
:1006D0005F904F900C94E20246015701E894B7F8FE
:1006E0002FEF3FEF4FE75FE7C501B4010E94880994
:1006F00081110DC02FEF3FEF4FE75FE7C501B40158
:100700000E94BE0718161CF489E191E0D4CF2FEFA8
:100710003FEF4FE75FE4C701B6010E9416091816C4
:100720001CF48DE191E0C7CF2FEF3FEF4FE75FEC77
:10073000C701B6010E94BE0787FDF3CF20E030E07D
:10074000A901C701B6010E94BE0710E000E087FFC3
:100750000AC06DE28DEC91E00E9407028C01F7FA6D
:10076000F094F7F8F094C0E060E070E080E09FE380
:100770007C1641F020E030E040E251E40E94C307E3
:10078000CF5FF6CFA70196010E9452072B013C01D3
:100790000E9435084B015C014AE00E94EF027C0197
:1007A000E00EF11ECC23C1F1C501B4010E94640822
:1007B0009B01AC01C301B2010E9451074B015C01D6
:1007C0006EE28DEC91E00E940702E80EF91EC15026
:1007D00018F120E030E040E251E4C501B4010E948C
:1007E0001B092B013C010E9435084B01B12CA12CA7
:1007F0004AE0C501B4010E94EF02E80EF91EC501EE
:10080000B4010E9464089B01AC01C301B2010E94C3
:1008100051074B015C01DBCFC701CF911F910F91B5
:10082000FF90EF90DF90CF90BF90AF909F908F9010
:100830007F906F905F904F9008951F920F920FB628
:100840000F9211242F933F934F935F936F937F9356
:100850008F939F93AF93BF93EF93FF938DEC91E0B2
:100860000E94E501FF91EF91BF91AF919F918F9110
:100870007F916F915F914F913F912F910F900FBE9C
:100880000F901F9018951F920F920FB60F92112480
:100890002F938F939F93EF93FF93E091DD01F0915E
:1008A000DE018081E091E301F091E40182FD1BC053
:1008B00090818091E6018F5F8F732091E70182170D
:1008C00041F0E091E601F0E0E353FE4F958F809315
:1008D000E601FF91EF919F918F912F910F900FBEA5
:1008E0000F901F9018958081F4CF1F920F920FB632
:1008F0000F9211242F933F938F939F93AF93BF93A6
:100900008091C5019091C601A091C701B091C80125
:100910003091C40123E0230F2D3758F50196A11D16
:10092000B11D2093C4018093C5019093C601A0938B
:10093000C701B093C8018091C9019091CA01A091EB
:10094000CB01B091CC010196A11DB11D8093C901CD
:100950009093CA01A093CB01B093CC01BF91AF910A
:100960009F918F913F912F910F900FBE0F901F90ED
:10097000189526E8230F0296A11DB11DD2CFCF9363
:10098000DF931092D0011092CF0188EE93E0A0E0A7
:10099000B0E08093D1019093D201A093D301B093A2
:1009A000D40184E091E09093CE018093CD0185EC59
:1009B00090E09093DA018093D90184EC90E09093D9
:1009C000DC018093DB0180EC90E09093DE0180936A
:1009D000DD0181EC90E09093E0018093DF0182ECF7
:1009E00090E09093E2018093E10186EC90E0909397
:1009F000E4018093E3011092E6011092E701109266
:100A0000E8011092E9014CEC50E0FA01649188EBA6
:100A100090E0FC0124912223C1F030E0220F331F2B
:100A2000F901EE56FF4FA591B491F901E857FF4F38
:100A3000C591D4917FB7F8943C91262F209532230D
:100A40003C933881232328837FBFFA01449140934C
:100A50006A02FC018491E82FF0E0EE0FFF1FE456DC
:100A6000FF4F8591949190936C0280936B0210924A
:100A70007502109277021092760210927402109210
:100A80007302109272021092710210927002109210
:100A90006F0210926E0210926D02DF91CF91089555
:100AA000CF93DF93CDB7DEB765970FB6F894DEBF6F
:100AB0000FBECDBF789484B5826084BD84B581605B
:100AC00084BD85B5826085BD85B5816085BD809119
:100AD0006E00816080936E00109281008091810091
:100AE0008260809381008091810081608093810089
:100AF000809180008160809380008091B10084604B
:100B00008093B1008091B00081608093B0008091AB
:100B10007A00846080937A0080917A00826080936A
:100B20007A0080917A00816080937A0080917A00C7
:100B3000806880937A001092C100E091DD01F0910D
:100B4000DE0182E08083E091D901F091DA01108228
:100B5000E091DB01F091DC018FEC80831092E501E4
:100B6000E091E101F091E20186E08083E091DF0114
:100B7000F091E001808180618083E091DF01F0915C
:100B8000E001808188608083E091DF01F091E001E5
:100B9000808180688083E091DF01F091E0018081B5
:100BA0008F7D80833E0125E1620E711C7E013AE05B
:100BB000E30EF11C2CE0C22ED12C30E0A32E30E04D
:100BC000B32E80917702811124C00E942E018823C8
:100BD00001F160E080EF0E94E70001E0812C512CE0
:100BE00011E00E949200982E0E94920091E09912CA
:100BF00038C0813009F054C0113458F05092750259
:100C0000511003C0B1E0B093770280916D02811161
:100C10005DC01092750210927702109276021092C7
:100C2000740210927302109272021092710210926A
:100C3000700210926F0210926E0210926D026CEDB3
:100C400075E080E090E00E949902A114B10409F4DB
:100C5000B8CF0E94D101882309F4B3CF0E940000CD
:100C6000B0CFE82DF0E0981211C0809175021817EE
:100C7000A8F4DF01A659BD4F13968C91802381F40F
:100C8000912C193010F410937602512EE659FD4F35
:100C90008381902F9095892383830BC08113F0CF9C
:100CA000E82DF0E0E659FD4F8381802B8383992462
:100CB0009394892D0E94B7001F5F000F11F4839455
:100CC00001E0A7E0A81508F08CCF96CFEDE6F2E0A2
:100CD0008E01035F1F4F4801302E412E8191D401B8
:100CE0008D934D01A615B705C9F781E291E00E94E9
:100CF000E20260E28DEC91E00E940702F80161914E
:100D00008F0170E090E080E040E10E94EF028016E9
:100D1000910679F767E0832D942D0E94CB029C8980
:100D2000891729F087E291E00E9433038ECF82E198
:100D300091E00E94E2028D85823209F49EC08832E1
:100D400009F495C0803109F09BC089E391E00E94CD
:100D50003303552453940E942E01832D942D0E9419
:100D6000160161E084E40E94E70068EE73E080E031
:100D700090E00E9499020E942E01182F832D942D3D
:100D80000E94160160E08EEB0E94E70082E991E08C
:100D90000E94E202612F70E090E080E040E10E945A
:100DA000EF0286EB91E00E94E2028E010F5F1F4F7F
:100DB000202E1D8B98E0892E912C412C33243394C6
:100DC0000E94920081114328330CF1E08F1A9108A0
:100DD000B9F7D8014D928D01EA16FB0659F768E084
:100DE000822D9D890E94CB0269817A81552009F468
:100DF0004AC083E0660F771F8A95E1F788858031C6
:100E000039F48F81F601E81BF109607F6E0F7F1FB7
:100E1000072E000C880B990B0E94660820E030E03A
:100E200040E85DE30E941B091B012C018CE991E065
:100E30000E94E20242E0C201B1010E9441038DEA38
:100E400091E00E94E20226E636E646EE5FE3C2014A
:100E5000B1010E941B0920E030E040E052E40E9412
:100E6000520742E00E94410388EB91E05DCF8AE4A3
:100E700091E00E943303512C6ECF8BE591E0F9CFC6
:100E80008BE691E051CF8D81807611F4687FC0CFE1
:100E9000803211F46C7FBCCF803409F0B9CF6E7F03
:100EA000B7CF5058BB27AA270E9469070C94DC08CB
:100EB0000E94CE0838F00E94D50820F039F49F3FF8
:100EC00019F426F40C94CB080EF4E095E7FB0C948F
:100ED000C508E92F0E94ED0858F3BA176207730797
:100EE0008407950720F079F4A6F50C940F090EF409
:100EF000E0950B2EBA2FA02D0B01B90190010C012A
:100F0000CA01A0011124FF27591B99F0593F50F441
:100F1000503E68F11A16F040A22F232F342F442799
:100F2000585FF3CF469537952795A795F040539591
:100F3000C9F77EF41F16BA0B620B730B840BBAF061
:100F40009150A1F0FF0FBB1F661F771F881FC2F7CC
:100F50000EC0BA0F621F731F841F48F487957795E0
:100F60006795B795F7959E3F08F0B0CF9395880F9A
:100F700008F09927EE0F9795879508950E94A1088C
:100F800008F481E008950E94D7070C94DC080E94C1
:100F9000D50858F00E94CE0840F029F45F3F29F0B0
:100FA0000C94C50851110C9410090C94CB080E94A4
:100FB000ED0868F39923B1F3552391F3951B550B75
:100FC000BB27AA2762177307840738F09F5F5F4F1C
:100FD000220F331F441FAA1FA9F335D00E2E3AF05B
:100FE000E0E832D091505040E695001CCAF72BD073
:100FF000FE2F29D0660F771F881FBB1F26173707C4
:101000004807AB07B0E809F0BB0B802DBF01FF27F5
:1010100093585F4F3AF09E3F510578F00C94C50805
:101020000C9410095F3FE4F3983ED4F386957795CE
:101030006795B795F7959F5FC9F7880F911D9695AE
:10104000879597F90895E1E0660F771F881FBB1F0A
:10105000621773078407BA0720F0621B730B840BB7
:10106000BA0BEE1F88F7E09508950E94F50888F006
:101070009F5798F0B92F9927B751B0F0E1F0660F5C
:10108000771F881F991F1AF0BA95C9F714C0B1309D
:1010900091F00E940F09B1E008950C940F09672F99
:1010A000782F8827B85F39F0B93FCCF386957795CC
:1010B0006795B395D9F73EF49095809570956195B5
:1010C0007F4F8F4F9F4F0895E89409C097FB3EF4E0
:1010D00090958095709561957F4F8F4F9F4F992385
:1010E000A9F0F92F96E9BB279395F6958795779503
:1010F0006795B795F111F8CFFAF4BB0F11F460FFC3
:101100001BC06F5F7F4F8F4F9F4F16C0882311F01A
:1011100096E911C0772321F09EE8872F762F05C02E
:10112000662371F096E8862F70E060E02AF09A95C9
:10113000660F771F881FDAF7880F9695879597F9BE
:101140000895990F0008550FAA0BE0E8FEEF161658
:101150001706E807F907C0F012161306E407F507AB
:1011600098F0621B730B840B950B39F40A2661F01F
:10117000232B242B252B21F408950A2609F4A140C2
:10118000A6958FEF811D811D089597F99F6780E8CF
:1011900070E060E008959FEF80EC089500240A94C9
:1011A0001616170618060906089500240A94121642
:1011B0001306140605060895092E0394000C11F475
:1011C000882352F0BB0F40F4BF2B11F460FF04C022
:1011D0006F5F7F4F8F4F9F4F089557FD9058440F7B
:1011E000551F59F05F3F71F04795880F97FB991F86
:1011F00061F09F3F79F08795089512161306140643
:10120000551FF2CF4695F1DF08C0161617061806CF
:10121000991FF1CF86957105610508940895E894AA
:10122000BB2766277727CB0197F908950E94A1086D
:1012300008F48FEF08950E942E090C94DC080E9498
:10124000CE0838F00E94D50820F0952311F00C94B8
:10125000C5080C94CB0811240C9410090E94ED08C9
:1012600070F3959FC1F3950F50E0551F629FF001F9
:10127000729FBB27F00DB11D639FAA27F00DB11D12
:10128000AA1F649F6627B00DA11D661F829F22279B
:10129000B00DA11D621F739FB00DA11D621F839F22
:1012A000A00D611D221F749F3327A00D611D231FF8
:1012B000849F600D211D822F762F6A2F11249F5746
:1012C00050409AF0F1F088234AF0EE0FFF1FBB1F49
:1012D000661F771F881F91505040A9F79E3F510508
:1012E00080F00C94C5080C9410095F3FE4F3983E1D
:1012F000D4F3869577956795B795F795E7959F5FB2
:10130000C1F7FE2B880F911D9695879597F9089543
:101310000E94A108880B990B0895A1E21A2EAA1B1E
:10132000BB1BFD010DC0AA1FBB1FEE1FFF1FA21795
:10133000B307E407F50720F0A21BB30BE40BF50B92
:10134000661F771F881F991F1A9469F7609570951B
:10135000809590959B01AC01BD01CF010895EE0FE2
:10136000FF1F0590F491E02D0994F894FFCF000041
:1013700000000702670194015402C501A301B701EF
:101380000D0A006E616E00696E66006F766600522F
:101390004F4D203D00435243206973206E6F7420EF
:1013A00076616C69642100202043686970203D20CB
:1013B0004453313853323000202043686970203D57
:1013C0002044533138423230002020436869702075
:1013D0003D204453313832320044657669636520DC
:1013E0006973206E6F742061204453313878323035
:1013F0002066616D696C79206465766963652E008D
:10140000202044617461203D2000202054656D70CF
:1014100065726174757265203D20002043656C73B0
:101420006975732C20002046616872656E68656975
:02143000740046
:107E0000112484B714BE81FFF0D085E080938100F7
:107E100082E08093C00088E18093C10086E0809377
:107E2000C20080E18093C4008EE0C9D0259A86E02C
:107E300020E33CEF91E0309385002093840096BBD3
:107E4000B09BFECF1D9AA8958150A9F7CC24DD24C4
:107E500088248394B5E0AB2EA1E19A2EF3E0BF2EE7
:107E6000A2D0813461F49FD0082FAFD0023811F036
:107E7000013811F484E001C083E08DD089C08234E0
:107E800011F484E103C0853419F485E0A6D080C0E4
:107E9000853579F488D0E82EFF2485D0082F10E0AE
:107EA000102F00270E291F29000F111F8ED06801E7
:107EB0006FC0863521F484E090D080E0DECF843638
:107EC00009F040C070D06FD0082F6DD080E0C81688
:107ED00080E7D80618F4F601B7BEE895C0E0D1E017
:107EE00062D089930C17E1F7F0E0CF16F0E7DF06D8
:107EF00018F0F601B7BEE89568D007B600FCFDCFD4
:107F0000A601A0E0B1E02C9130E011968C91119780
:107F100090E0982F8827822B932B1296FA010C0160
:107F200087BEE89511244E5F5F4FF1E0A038BF0790
:107F300051F7F601A7BEE89507B600FCFDCF97BE46
:107F4000E89526C08437B1F42ED02DD0F82E2BD052
:107F50003CD0F601EF2C8F010F5F1F4F84911BD097
:107F6000EA94F801C1F70894C11CD11CFA94CF0C13
:107F7000D11C0EC0853739F428D08EE10CD085E9AC
:107F80000AD08FE07ACF813511F488E018D01DD067
:107F900080E101D065CF982F8091C00085FFFCCF94
:107FA0009093C60008958091C00087FFFCCF809118
:107FB000C00084FD01C0A8958091C6000895E0E648
:107FC000F0E098E1908380830895EDDF803219F02E
:107FD00088E0F5DFFFCF84E1DECF1F93182FE3DFCA
:107FE0001150E9F7F2DF1F91089580E0E8DFEE27F6
:047FF000FF270994CA
:027FFE00040479
:00000001FF
