:020000040000FA
:100000000C9473000C949B000C949B000C949B002C
:100010000C949B000C949B000C949B000C94560732
:100020000C949B000C949B000C949B000C949B00E4
:100030000C949B000C949B000C949B000C949B00D4
:100040000C940C070C949B000C94D8070C94B207EA
:100050000C949B000C949B000C949B000C949B00B4
:100060000C949B000C949B00005EBCE2613FDD831E
:10007000C29C7E20A3FD1F41009D23BE46DB65F888
:100080008C11AF32CA57E974020000000024002727
:10009000002A0000000000250028002B00000000BE
:1000A0000800020100000304070000000000000037
:1000B00000000000002300260029000404040404BA
:1000C0000404040202020202020303030303030105
:1000D00002040810204080010204081020010204DC
:1000E000081020000A0811241FBECFEFD8E0DEBFA1
:1000F000CDBF24E0A2E9B3E001C01D92A238B2074F
:10010000E1F713E0A0E0B1E0ECE2F7E202C0059015
:100110000D92A239B107D9F710E0C3E7D0E004C0CF
:100120002197FE010E949C11C237D107C9F70E9496
:1001300080080C9494130C94000090E0FC01E356AA
:10014000FF4F2491FC01E153FF4F3491FC01E55432
:10015000FF4FE491EE23C9F0222339F0233001F15F
:10016000A8F4213019F1223029F1F0E0EE0FFF1F41
:10017000ED56FF4FA591B4918FB7F894EC916111B2
:1001800026C030953E233C938FBF08952730A9F0B9
:100190002830C9F0243049F7809180008F7D03C05A
:1001A000809180008F7780938000DFCF84B58F7738
:1001B00084BDDBCF84B58F7DFBCF8091B0008F777E
:1001C0008093B000D2CF8091B0008F7DF9CF3E2BCD
:1001D000DACFCF93DF9390E0FC01E153FF4F2491FE
:1001E00085549F4FFC0184918823D1F090E0880FC3
:1001F000991FFC01E757FF4FA591B491FC01ED5603
:10020000FF4FC591D49161110EC09FB7F8948C91A6
:10021000E22FE0958E238C932881E223E8839FBF11
:10022000DF91CF9108958FB7F894EC91E22BEC9386
:100230008FBFF6CF8E50806480937C0080917A00CF
:10024000806480937A0080917A0086FDFCCF809153
:1002500078009091790008953FB7F8948091B803A1
:100260009091B903A091BA03B091BB0326B5A89BA6
:1002700005C02F3F19F00196A11DB11D3FBFBA2F38
:10028000A92F982F8827BC01CD01620F711D811DF8
:10029000911D42E0660F771F881F991F4A95D1F77D
:1002A00008958F929F92AF92BF92CF92DF92EF927A
:1002B000FF926B017C010E942C014B015C01C11477
:1002C000D104E104F104B9F00E942C016819790904
:1002D0008A099B09683E73408105910580F321E0FE
:1002E000C21AD108E108F10888EE880E83E0981E52
:1002F000A11CB11CE4CFFF90EF90DF90CF90BF9096
:10030000AF909F908F9008959091000189130BC03A
:10031000E8E8F0E0E4919FEF90930001E13049F0CC
:1003200028F0E23061F060E00C949D0010926E00C5
:10033000FACF90916F009D7F90936F00F4CF9091D2
:1003400070009D7F9093700091E09093B000909129
:10035000B100987F94609093B1001092B300E3CF06
:10036000AF92BF92CF92DF92EF92FF920F931F93C3
:10037000CF93DF936C017B018B01040F151FEB0101
:100380005E01AE18BF08C017D10759F06991D601B8
:10039000ED91FC910190F081E02DC6010995892B2A
:1003A00079F7C501DF91CF911F910F91FF90EF90E9
:1003B000DF90CF90BF90AF900895FC01538D448D96
:1003C000252F30E0842F90E0821B930B541710F000
:1003D000CF96089501970895FC01918D828D98170D
:1003E00061F0A28DAE0FBF2FB11D5D968C91928DE5
:1003F0009F5F9F73928F90E008958FEF9FEF089516
:10040000FC01918D828D981731F0828DE80FF11DDE
:10041000858D90E008958FEF9FEF0895FC01918DF9
:10042000228D892F90E0805C9F4F821B91098F73F2
:10043000992708958CEB93E00E940E0221E0892B0E
:1004400009F420E0822F089580E090E0892B29F0C4
:100450000E941A0281110C9400000895FC01A48DE1
:10046000A80FB92FB11DA35ABF4F2C91848D90E0D6
:1004700001968F739927848FA689B7892C93A089B9
:10048000B1898C91837080648C93938D848D981343
:1004900006C00288F389E02D80818F7D80830895D6
:1004A000EF92FF920F931F93CF93DF93EC0181E0C4
:1004B000888F9B8D8C8D98131AC0E889F98980816B
:1004C00085FF15C09FB7F894EE89FF896083E8899E
:1004D000F98980818370806480839FBF81E090E090
:1004E000DF91CF911F910F91FF90EF900895F62E1D
:1004F0000B8D10E00F5F1F4F0F731127E02E8C8DB7
:100500008E110CC00FB607FCFACFE889F9898081FB
:1005100085FFF5CFCE010E942E02F1CFEB8DEC0FBF
:10052000FD2FF11DE35AFF4FF0829FB7F8940B8F18
:10053000EA89FB8980818062CFCFCF93DF93EC0182
:10054000888D8823B9F0AA89BB89E889F9898C91BB
:1005500085FD03C0808186FD0DC00FB607FCF7CF77
:100560008C9185FFF2CF808185FFEDCFCE010E9477
:100570002E02E9CFDF91CF910895DC0180E0615038
:1005800090F09D919827E92FEF70F0E0E859FF4F28
:100590002491E92FE295EF70F0E0E858FF4FE491E5
:1005A000822F8E27ECCF0895DC012C911196ED91CE
:1005B000FC91F8948181822B81839281322F309536
:1005C0009323928387E090E00197F1F78181832361
:1005D000818383E290E00197F1F790817894EFECCA
:1005E000F0E03197F1F7922381E009F480E008957B
:1005F000FC0190810180F281E02D292F209560FF80
:1006000014C0F8948281822382838181892B818323
:10061000A3E2B0E01197F1F78281982B928378944E
:1006200087ED90E00197F1F70895F8948281822395
:1006300082838181892B8183AFEFB0E01197F1F73D
:100640008281982B928378948FE090E0EBCFDF92B9
:10065000EF92FF920F931F93CF93DF93EC01D62E6F
:10066000E42E08E010E0FF24F39461E08D2D8F214B
:1006700009F460E0CE010E94F802FF0C015011095C
:10068000A1F7E11010C0F894E981FA819181888185
:10069000809589238183E981FA819281888180957F
:1006A000892382837894DF91CF911F910F91FF90DE
:1006B000EF90DF900895EF92FF920F931F93CF93E7
:1006C000DF938C017B0140E065E50E942703E70191
:1006D00088E0E80EF11C699140E0C8010E94270300
:1006E000CE15DF05C1F7DF91CF911F910F91FF90DC
:1006F000EF900895FC0190810180F281E02DF89443
:100700008181292F20958223818378943DE743E0DE
:1007100050E0315029F1DA011197F1F780818923F6
:10072000C1F3F8948281822382838181892B818322
:100730007894ABE7B7E01197F1F7F89481818223C1
:100740008183A3E1B1E01197F1F78081982381E0E3
:1007500009F080E07894E3E6F6E03197F1F7089548
:1007600080E008956F927F928F929F92AF92BF9296
:10077000CF92DF92EF92FF920F931F93CF93DF936D
:100780008C01EB0180916204909163040E947A03D2
:10079000882309F43FC0B8018091620490916304FA
:1007A0000E945B0340E06EEB8091620490916304D1
:1007B0000E9427037E016E0189E0C80ED11C8E01C4
:1007C000A0906204B090630488E0882E912C712C74
:1007D00066246394C5010E94D40281117628660CB8
:1007E000E1E08E1A9108B1F7F80171928F01CE16EF
:1007F000DF0631F780916204909163040E947A03CE
:10080000813041F4F70181917F01811105C0E0172A
:10081000F107C1F790E008C068E0CE010E94BD0278
:1008200091E028852813F6CF892FDF91CF911F9172
:100830000F91FF90EF90DF90CF90BF90AF909F907F
:100840008F907F906F900895FC0101900020E9F750
:100850003197AF01481B590BBC018CEB93E00C9412
:10086000B0018F929F92AF92BF920F931F93CF933D
:10087000DF93CDB7DEB7A1970FB6F894DEBF0FBEFA
:10088000CDBF19A2423008F44AE08E010F5D1F4F20
:10089000842E912CB12CA12CA50194010E946611EB
:1008A000E62FB901CA01EA30F4F4E05DD801EE9315
:1008B0008D01232B242B252B79F790E080E01097D6
:1008C00019F0CD010E942404A1960FB6F894DEBF62
:1008D0000FBECDBFDF91CF911F910F91BF90AF9011
:1008E0009F908F900895E95CE1CFCF93DF930E94B2
:1008F0002404EC0181E291E00E9424048C0F9D1FEE
:10090000DF91CF910895BF92CF92DF92EF92FF9245
:100910000F931F93CF93DF93EC01B62EC72E8D85D7
:10092000811105C0CE010E947A0381110EC01B8681
:100930001D861C8680E0DF91CF911F910F91FF9063
:10094000EF90DF90CF90BF90089540E060EFCE0130
:100950000E94270301E0E12CD12C11E0CE010E947E
:10096000D402F82ECE010E94D40291E0F91218C0F0
:10097000813099F51134D8F2DB86D11002C081E0C4
:100980008D878B81882399F22396EB2DFC2DCF0147
:10099000089629912193E817F907D9F781E0CBCF81
:1009A000EE2DF0E0F8120FC08B851817A0F4DE01D1
:1009B000AE0FBF1F13968C91802379F4F12C193060
:1009C00008F41C87D12EEC0FFD1F8381902F90958A
:1009D000892383830AC08113F1CFFE01EE0DF11D3F
:1009E0008381802B8383FF24F3946F2DCE010E949B
:1009F000F8021F5F000F11F4E39401E087E08E1509
:100A000008F0ACCFB7CF4F925F926F927F928F92E8
:100A10009F92AF92BF92CF92DF92EF92FF920F938D
:100A20001F93CF936B017C01742EAC019B010E943C
:100A30004D11882399F084E291E0CF911F910F919D
:100A4000FF90EF90DF90CF90BF90AF909F908F90EE
:100A50007F906F905F904F900C9424044601570153
:100A6000E894B7F82FEF3FEF4FE75FE7C501B40118
:100A70000E944D1181110DC02FEF3FEF4FE75FE74F
:100A8000C501B4010E94DF0E18161CF488E291E043
:100A9000D4CF2FEF3FEF4FE75FE4C701B6010E94CD
:100AA000481118161CF48CE291E0C7CF2FEF3FEFEE
:100AB0004FE75FECC701B6010E94DF0E87FDF3CF61
:100AC00020E030E0A901C701B6010E94DF0E10E06E
:100AD00000E087FF0AC06DE28CEB93E00E945002B9
:100AE0008C01F7FAF094F7F8F094C0E060E070E061
:100AF00080E09FE37C1641F020E030E040E251E4EA
:100B00000E94A710CF5FF6CFA70196010E943B106D
:100B10002B013C010E9419114B015C014AE00E942B
:100B200031047C01E00EF11ECC23C1F1C501B401FA
:100B30000E94E40E9B01AC01C301B2010E943A1075
:100B40004B015C016EE28CEB93E00E945002E80ED8
:100B5000F91EC15018F120E030E040E251E4C50137
:100B6000B4010E94450F2B013C010E9419114B0159
:100B7000B12CA12C4AE0C501B4010E943104E80E59
:100B8000F91EC501B4010E94E40E9B01AC01C30132
:100B9000B2010E943A104B015C01DBCFC701CF913B
:100BA0001F910F91FF90EF90DF90CF90BF90AF908B
:100BB0009F908F907F906F905F904F9008950F93CC
:100BC0001F93CF93DF93EC0188819981009759F0AF
:100BD0002A813B812617370730F081E0DF91CF91E2
:100BE0001F910F9108958B016F5F7F4F0E94C71275
:100BF000009759F0998388831B830A832C813D8158
:100C0000232B59F7FC011082E8CF80E0E7CFCF9388
:100C1000DF93EC0188819981009711F00E943E12C8
:100C2000198218821D821C821B821A82DF91CF9149
:100C30000895EF92FF920F931F93CF93DF93EC01F0
:100C4000FB01E080F180E114F10411F104811581D0
:100C500001151105A9F08C819D81080F191FB8019C
:100C6000CE010E94DF05882399F0288139818C818B
:100C70009D81B701820F931F0E948D131D830C83EA
:100C8000CE01DF91CF911F910F91FF90EF900895CA
:100C9000CE010E940706F4CFEF92FF920F931F93AD
:100CA000CF93DF93EC017B01198218821B821A8299
:100CB0001D821C82FB0101900020E9F731978F0112
:100CC000061B170BB8010E94DF05811109C0CE0178
:100CD000DF91CF911F910F91FF90EF900C94070639
:100CE0001D830C83B70188819981DF91CF911F917A
:100CF0000F91FF90EF900C948D13FC0180819181F6
:100D0000009711F00C943E120895CF92DF92EF926B
:100D1000FF920F931F93CF93DF93CDB7DEB72C973E
:100D20000FB6F894DEBF0FBECDBF8C016B0160E340
:100D300071E0CE0101960E944C06B801CE010196E9
:100D40000E9419068C01FC01E480F580FFEFEF1A88
:100D5000FF0AB7010E94DF05882309F451C0F8019A
:100D6000208131818481958160E371E0820F931F3E
:100D70000E948D13F801F582E482B601C8010E9439
:100D8000190618861F821A8619861C861B868E01F4
:100D9000095F1F4F8017910789F0FC01E080F18007
:100DA000E114F10459F0C480D580B601C8010E9455
:100DB000DF05811129C0C8010E940706CE010196F6
:100DC0000E947D064B855C856F8178858CEB93E076
:100DD0000E94B00181E291E00E942404C8010E94B7
:100DE0007D062C960FB6F894DEBF0FBECDBFDF9107
:100DF000CF911F910F91FF90EF90DF90CF900895CA
:100E0000C8010E940706B9CFDC86CB86B7018F8167
:100E100098850E948D13D2CF1F920F920FB60F921A
:100E200011242F933F938F939F93AF93BF93809100
:100E3000B4039091B503A091B603B091B70330917C
:100E4000B30323E0230F2D3758F50196A11DB11DE3
:100E50002093B3038093B4039093B503A093B60398
:100E6000B093B7038091B8039091B903A091BA03EE
:100E7000B091BB030196A11DB11D8093B80390935F
:100E8000B903A093BA03B093BB03BF91AF919F91F5
:100E90008F913F912F910F900FBE0F901F9018953B
:100EA00026E8230F0296A11DB11DD2CF1F920F92EB
:100EB0000FB60F9211242F933F934F935F936F932D
:100EC0007F938F939F93AF93BF93EF93FF93809103
:100ED000970390919803A0919903B0919A03892B5D
:100EE0008A2B8B2BD1F190919203E0919303F09197
:100EF0009403808189278083809197039091980340
:100F0000A0919903B0919A03181619061A061B06A8
:100F10009CF48091970390919803A0919903B091CC
:100F20009A030197A109B1098093970390939803BD
:100F3000A0939903B0939A03FF91EF91BF91AF9162
:100F40009F918F917F916F915F914F913F912F91E1
:100F50000F900FBE0F901F901895809100010E9476
:100F60008401EACF1F920F920FB60F9211242F9394
:100F70003F934F935F936F937F938F939F93AF9321
:100F8000BF93EF93FF938CEB93E00E942E02FF91AF
:100F9000EF91BF91AF919F918F917F916F915F91F1
:100FA0004F913F912F910F900FBE0F901F9018956A
:100FB0001F920F920FB60F9211242F938F939F932E
:100FC000EF93FF93E091CC03F091CD038081E0910A
:100FD000D203F091D30382FD1BC090818091D50391
:100FE0008F5F8F732091D603821741F0E091D50374
:100FF000F0E0E454FC4F958F8093D503FF91EF917F
:101000009F918F912F910F900FBE0F901F90189569
:101010008081F4CFECEBF3E01382128288EE93E050
:10102000A0E0B0E084839583A683B78383E191E059
:101030009183808385EC90E09587848784EC90E0B1
:101040009787868780EC90E0918B808B81EC90E095
:10105000938B828B82EC90E0958B848B86EC90E076
:10106000978B868B118E128E138E148E60E082E128
:101070000E94E900E1EEF0E0E491A0E7B4E0EC9337
:10108000EDECF0E0E491F0E0EE0FFF1FEF54FF4FC6
:101090008591949112969C938E9311971B961C9216
:1010A0001B971D961C921D971C961C921C971A96B6
:1010B0001C921A9719961C92199718961C921897B9
:1010C00017961C92179716961C92169715961C92B7
:1010D000159714961C92149713961C921397E9E592
:1010E000F4E0168A158A1182B287A18717821086CA
:1010F000108289E0838381E08483858386830895D9
:10110000CF93DF93CDB7DEB761970FB6F894DEBF0C
:101110000FBECDBF789484B5826084BD84B58160F4
:1011200084BD85B5826085BD85B5816085BD8091B2
:101130006E00816080936E0010928100809181002A
:101140008260809381008091810081608093810022
:10115000809180008160809380008091B1008460E4
:101160008093B1008091B00081608093B000809145
:101170007A00846080937A0080917A008260809304
:101180007A0080917A00816080937A0080917A0061
:10119000806880937A001092C100E091CC03F091B6
:1011A000CD0382E08083E091C803F091C9031082EF
:1011B000E091CA03F091CB0380E180831092D403C5
:1011C000E091D003F091D10386E08083E091CE03DB
:1011D000F091CF03808180618083E091CE03F09114
:1011E000CF03808188608083E091CE03F091CF03AC
:1011F000808180688083E091CE03F091CF0380816D
:101200008F7D808361E08DE00E94E90061E083E0F2
:101210000E94E900E0916204F09163041386158650
:101220001486128611861086178216821582148201
:101230001382109260041092610411E0BE01665F97
:101240007F4F80916204909163040E9483048823FD
:1012500009F475C067E0CE010A960E94BD02998923
:101260008913ECCF809160048F5F809360048A853E
:10127000883231F008F049C0803111F08232F1F645
:10128000809161048F5F8093610480915904811182
:1012900028C080916204909163040E947A03BE0189
:1012A000665F7F4F80916204909163040E945B03AC
:1012B00040E064EB80916204909163040E942703F4
:1012C00080916204909163040E94D402082F80915F
:1012D0006204909163040E947A03011102C010938A
:1012E00059048A858031E1F0BE016F5F7F4FCE01E6
:1012F0000A960E94B203882331F08D818F33D9F092
:1013000058F48F31D1F080E00EC08B3309F4B8CFA0
:10131000823409F093CFB4CF8F3521F08F3799F70E
:101320008CE001C08BE090915C04981708F086CFA8
:1013300080935C0483CF8AE0F6CF89E0F4CF812CE0
:1013400010EF912E12EDA12E16E4B12ECC24CA94EA
:10135000DC2C760180916204909163040E947A03F0
:1013600040E06CEC80916204909163040E9427033A
:101370004091590464E480916204909163040E9456
:10138000270380915D04882391F1E0915C048091B2
:101390005E04882309F47FC38091590481117BC3C3
:1013A0008FB7F8944090B4035090B5036090B603A3
:1013B0007090B7038FBF80916204909163040E9484
:1013C000D4028130A1F02FB7F8948091B4039091AA
:1013D000B503A091B603B091B7032FBF8419950947
:1013E000A609B7098E3E9240A105B10520F3E09110
:1013F0006204F091630413861586148612861186A2
:10140000108617821682158214821382BE01665FCF
:101410007F4F80916204909163040E94830488232B
:1014200009F498CF67E0CE010A960E94BD0299891F
:10143000891390CFBE016F5F7F4FCE010A960E9445
:10144000B203882309F486CF6A8170E0762F66277D
:10145000770F770F770F298148E0249F900111249F
:10146000262B372B8A858031E1F468856623C9F005
:1014700070E08F81DB01A81BB109CD019695982FF3
:101480008827979587950E945211CB018097B901C3
:1014900053E0660F771F5A95E1F760789C01260F9D
:1014A000371F2138B4EE3B070CF454CFB901330F8A
:1014B000880B990B0E94E60E20E030E040E05CE3F0
:1014C0000E94450F2B013C0120E030E04EEF52EC32
:1014D0000E94DF0E882309F43DCF4092AF03509263
:1014E000B0036092B1037092B20382E391E00E9474
:1014F00024046091AF037091B0038091B103909187
:10150000B20342E00E94030580E491E00E9475046A
:1015100081E10E941A016FEF73E0681B790B072EBF
:10152000000C880B990B0E94E60E27ED33E242E98E
:1015300052E40E94A7106093AB037093AC038093B6
:10154000AD039093AE0383E491E00E942404609184
:10155000AB037091AC038091AD039091AE0342E078
:101560000E94030581E291E00E94240414E6412CCC
:10157000512C320183E10E941A01BC01990F880BA2
:10158000990B0E94E60E20E030E040EA50E40E9411
:10159000450F20E030EC4FE754E40E94A7109B0178
:1015A000AC01C301B2010E943B102B013C01115060
:1015B00009F720E030E048EC52E40E94A71020E058
:1015C00030EC4FE754E40E94450F20E030E040EA61
:1015D00050E40E94A7102B013C0120E030EC47E6CC
:1015E00054E40E94481187FD08C01092A70310928E
:1015F000A8031092A9031092AA0320E030EC47E65A
:1016000054E4C301B2010E94DF0E87FF26C020E030
:1016100030E841E554E4C301B2010E94481187FD5E
:101620001CC020E030E841E554E4C301B2010E944F
:101630003A1020E030E040EF51EC0E94450F20E0EE
:1016400030E84BE355E40E943B106093A70370938E
:10165000A8038093A9039093AA0320E030E048E414
:1016600054E4C301B2010E94481187FD16C020E076
:1016700030E441E554E4C301B2010E94DF0E1816C4
:1016800064F080E090E4A5EBB5E48093A703909329
:10169000A803A093A903B093AA0320E030E444E494
:1016A00054E4C301B2010E94481187FD16C020E036
:1016B00030E048E454E4C301B2010E94DF0E87FF2A
:1016C0000CC080E090E2ADEFB5E48093A703909367
:1016D000A803A093A903B093AA0320E030E440E458
:1016E00054E4C301B2010E94481187FD16C020E0F6
:1016F00030E444E454E4C301B2010E94DF0E87FFEA
:101700000CC080E090E0AFE2B6E48093A703909332
:10171000A803A093A903B093AA0320E030E44FE309
:1017200054E4C301B2010E94481187FD16C020E0B5
:1017300030E440E454E4C301B2010E94DF0E87FFAD
:101740000CC080E098EBA8E8B6E48093A7039093E0
:10175000A803A093A903B093AA0320E030EC4EE3C2
:1017600054E4C301B2010E944811181694F420E019
:1017700030E44FE354E4C301B2010E94DF0E87FF5F
:1017800008C08092A7039092A803A092A903B092E8
:10179000AA0320E030E841E454E4C301B2010E940E
:1017A00048111816B4F420E030E84EE354E4C301C5
:1017B000B2010E94DF0E181664F080E098E2ABEEF2
:1017C000B6E48093A7039093A803A093A903B093D2
:1017D000AA0320E030E841E454E4C301B2010E94CE
:1017E000DF0E181664F080E098E0ADE1B7E4809376
:1017F000A7039093A803A093A903B093AA0388E436
:1018000091E00E9424046091A7037091A803809145
:10181000A9039091AA0342E00E94030588E591E0A4
:101820000E94750404E610E0412C512C32018EE038
:101830000E941A01BC01990F880B990B0E94E60EB9
:1018400020E030E040EA50E40E94450F20E030EC18
:101850004FE754E40E94A7109B01AC01C301B20101
:101860000E943B102B013C010150110901F720E0BF
:1018700030E048EC52E40E94A7102B013C012DEC13
:101880003CEC4CE450E40E94481187FD08C01092E3
:10189000A3031092A4031092A5031092A6032DECAB
:1018A0003CEC4CE450E4C301B2010E94DF0E87FF20
:1018B0001FC020E030E0A901C301B2010E9448111D
:1018C00087FD16C020E038EB48E854ECC301B201B4
:1018D0000E94450F20E030EC4AE555E40E943B10A1
:1018E0006093A3037093A4038093A5039093A6032E
:1018F00020E030E0A901C301B2010E94DF0E87FFA2
:101900000CC080E090ECAAE5B5E48093A30390932B
:10191000A403A093A503B093A6038EE591E00E94D3
:1019200024046091A3037091A4038091A503909176
:10193000A60342E00E94030589E691E00E94750437
:101940004090AB035090AC036090AD037090AE0339
:1019500020E030E040EC50E4C301B2010E94DF0E11
:1019600087FDC1C020E030E040E151E4C301B20195
:101970000E94481118160CF4B6C04090AF03509066
:10198000B0036090B1037090B20320E030E048EC07
:1019900051E4C301B2010E944811181664F420E01A
:1019A00030E04CE052E4C301B2010E94DF0E04E0DB
:1019B00010E087FD33C020E030E04CE052E4C3018A
:1019C000B2010E94481103E010E018163CF120E03B
:1019D00030E04AEF54E46091A3037091A403809136
:1019E000A5039091A6030E94481102E010E018168A
:1019F000ACF066246394712C20E030E84BEB54E4A7
:101A00006091A7037091A8038091A9039091AA0304
:101A10000E94481118160CF0612C8301809101017D
:101A20009091020180179107F9F08330910509F434
:101A30008FC00CF05BC08130910509F499C002970A
:101A400009F48DC0109302010093010103301105C8
:101A500009F49CC10CF095C00130110509F4A6C130
:101A60000230110509F499C164E670E080E090E06D
:101A70000E94510181E291E00E94240480E090E004
:101A8000892B09F467CC0E941A02882309F45ECCE2
:101A90000E9400005BCCE9508EEE92E0E33038F417
:101AA000F0E0EE0FFF1FE75FFE4F808191812C0178
:101AB000990F6608770880915A04882329F060E01E
:101AC00080915B040E949D00C301B2010E945101FC
:101AD00080915A04882309F48ACC61E080915B04E8
:101AE0000E949D0084CC05E010E098CF84309105E1
:101AF00031F1059709F0A6CF83E00E94840160E0F0
:101B00008DE00E949D006EE671E0CE0101960E947C
:101B10004C0665E971E0CE010A960E944C06BE01B2
:101B20006F5F7F4FCE010A960E948506CE010A960E
:101B30000E947D06CE0101960E947D0683CF6EE94C
:101B400071E0CE0101960E944C0666E072E0E3CFA0
:101B500060E08DE00E949D0061E172E0F2CF68E3F9
:101B600072E0CE0101960E944C066DE572E0D3CF83
:101B700062E772E0CE0101960E944C0660EA72E0D4
:101B8000CACF0430110509F4F8C00530110509F079
:101B90006BCF80910001833031F5E8E8F0E01491DB
:101BA00017FDC3C061E083E00E94E900112309F43E
:101BB0008DC0123009F09EC08091B100887F866090
:101BC0008093B10085E88093B300C0929703D092D0
:101BD0009803E0929903F0929A03809170008260DA
:101BE00080937000A2C08F3F09F09FC083E0809374
:101BF0000001E8E8F0E014911F3F09F496C01130AD
:101C000021F150F0123009F43EC017FD8EC061E0A2
:101C100083E00E94E900CDCF14BC15BC84B582607E
:101C200084BD85B5816085BDEEEBF0E0E491F0E028
:101C3000EE0FFF1FED56FF4F85919491E2EDF0E01E
:101C4000E491E093960310E0ADCF109280001092E3
:101C50008100809181008860809381008091810063
:101C6000816080938100EEEBF0E0E491F0E0EE0F14
:101C7000FF1FED56FF4F85919491E2EDF0E0E49166
:101C8000E09395038FCF1092B0001092B100809135
:101C9000B00082608093B0008091B1008160809339
:101CA000B100EEEBF0E0E491F0E0EE0FFF1FED5637
:101CB000FF4F859194919093940380939303E2ED69
:101CC000F0E0E491E093920312E06CCF85B5887F59
:101CD000846085BD85E887BDC0929F03D092A00334
:101CE000E092A103F092A20380916E008260809343
:101CF0006E001BC01130C9F580918100887F816022
:101D00008093810081EB96E890938900809388000E
:101D1000C0929B03D0929C03E0929D03F0929E039D
:101D200080916F00826080936F0061E08DE00E947F
:101D30009D0062EB72E0CE0101960E944C0665E9BF
:101D400071E0CE010A960E944C06BE016F5F7F4F84
:101D5000CE010A960E948506CE010A960E947D0653
:101D6000CE0101960E947D067FCE123021F0111126
:101D7000DCCF81EBB0CF81EB26CF65EE72E0CE01F8
:101D800001960E944C0666E072E0DBCF61E08DE0D8
:101D90000E949D0067E473E0F2CF62E673E0CE013B
:101DA00001960E944C066DE572E0CBCF64E773E0CC
:101DB000CE0101960E944C0660EA72E0C2CF0E94FA
:101DC000210F08F481E00895E89409C097FB3EF4E0
:101DD00090958095709561957F4F8F4F9F4F992378
:101DE000A9F0F92F96E9BB279395F69587957795F6
:101DF0006795B795F111F8CFFAF4BB0F11F460FFB6
:101E00001BC06F5F7F4F8F4F9F4F16C0882311F00D
:101E100096E911C0772321F09EE8872F762F05C021
:101E2000662371F096E8862F70E060E02AF09A95BC
:101E3000660F771F881FDAF7880F9695879597F9B1
:101E40000895990F0008550FAA0BE0E8FEEF16164B
:101E50001706E807F907C0F012161306E407F5079E
:101E600098F0621B730B840B950B39F40A2661F012
:101E7000232B242B252B21F408950A2609F4A140B5
:101E8000A6958FEF811D811D08950E94580F0C9417
:101E9000C90F0E94BB0F38F00E94C20F20F095239B
:101EA00011F00C94B20F0C94B80F11240C94FD0F88
:101EB0000E94DA0F70F3959FC1F3950F50E0551F04
:101EC000629FF001729FBB27F00DB11D639FAA278F
:101ED000F00DB11DAA1F649F6627B00DA11D661FDE
:101EE000829F2227B00DA11D621F739FB00DA11DFF
:101EF000621F839FA00D611D221F749F3327A00DB9
:101F0000611D231F849F600D211D822F762F6A2F54
:101F100011249F5750409AF0F1F088234AF0EE0FB9
:101F2000FF1FBB1F661F771F881F91505040A9F7E6
:101F30009E3F510580F00C94B20F0C94FD0F5F3F53
:101F4000E4F3983ED4F3869577956795B795F79522
:101F5000E7959F5FC1F7FE2B880F911D969587959A
:101F600097F9089597F99F6780E870E060E0089519
:101F70009FEF80EC089500240A94161617061806A1
:101F80000906089500240A9412161306140605067D
:101F90000895092E0394000C11F4882352F0BB0F0E
:101FA00040F4BF2B11F460FF04C06F5F7F4F8F4F71
:101FB0009F4F089557FD9058440F551F59F05F3FAC
:101FC00071F04795880F97FB991F61F09F3F79F05B
:101FD00087950895121613061406551FF2CF4695DD
:101FE000F1DF08C0161617061806991FF1CF86955F
:101FF0007105610508940895E894BB276627772743
:10200000CB0197F908952F923F924F925F926F9272
:102010007F928F929F92AF92BF92CF92DF92EF9278
:10202000FF920F931F93CF93DF93CDB7DEB7CA1BF9
:10203000DB0B0FB6F894DEBF0FBECDBF09942A8824
:10204000398848885F846E847D848C849B84AA84CC
:10205000B984C884DF80EE80FD800C811B81AA8159
:10206000B981CE0FD11D0FB6F894DEBF0FBECDBF24
:10207000ED0108955058BB27AA270E9452100C94D6
:10208000C90F0E94BB0F38F00E94C20F20F039F434
:102090009F3F19F426F40C94B80F0EF4E095E7FB7B
:1020A0000C94B20FE92F0E94DA0F58F3BA176207A7
:1020B00073078407950720F079F4A6F50C94FC0FBC
:1020C0000EF4E0950B2EBA2FA02D0B01B901900153
:1020D0000C01CA01A0011124FF27591B99F0593F97
:1020E00050F4503E68F11A16F040A22F232F342FDF
:1020F0004427585FF3CF469537952795A795F0402D
:102100005395C9F77EF41F16BA0B620B730B840B41
:10211000BAF09150A1F0FF0FBB1F661F771F881FF9
:10212000C2F70EC0BA0F621F731F841F48F4879551
:1021300077956795B795F7959E3F08F0B0CF939543
:10214000880F08F09927EE0F9795879508950E94BC
:10215000BB100C94C90F0E94C20F58F00E94BB0F15
:1021600040F029F45F3F29F00C94B20F51110C9408
:10217000FD0F0C94B80F0E94DA0F68F39923B1F3A6
:10218000552391F3951B550BBB27AA27621773079D
:10219000840738F09F5F5F4F220F331F441FAA1F31
:1021A000A9F335D00E2E3AF0E0E832D091505040ED
:1021B000E695001CCAF72BD0FE2F29D0660F771F9B
:1021C000881FBB1F261737074807AB07B0E809F081
:1021D000BB0B802DBF01FF2793585F4F3AF09E3F06
:1021E000510578F00C94B20F0C94FD0F5F3FE4F3AF
:1021F000983ED4F3869577956795B795F7959F5F49
:10220000C9F7880F911D9695879597F90895E1E094
:10221000660F771F881FBB1F621773078407BA07F3
:1022200020F0621B730B840BBA0BEE1F88F7E0954E
:1022300008950E94E20F88F09F5798F0B92F9927D0
:10224000B751B0F0E1F0660F771F881F991F1AF0A1
:10225000BA95C9F714C0B13091F00E94FC0FB1E0FB
:1022600008950C94FC0F672F782F8827B85F39F0FA
:10227000B93FCCF3869577956795B395D9F73EF43A
:1022800090958095709561957F4F8F4F9F4F0895E2
:102290000E94210F08F48FEF08950E94210F880BF0
:1022A000990B089597FB072E16F4009407D077FD3D
:1022B00009D00E94881107FC05D03EF490958195C5
:1022C0009F4F0895709561957F4F0895A1E21A2E52
:1022D000AA1BBB1BFD010DC0AA1FBB1FEE1FFF1FCA
:1022E000A217B307E407F50720F0A21BB30BE40B1A
:1022F000F50B661F771F881F991F1A9469F7609561
:102300007095809590959B01AC01BD01CF0108951A
:10231000AA1BBB1B51E107C0AA1FBB1FA617B7070B
:1023200010F0A61BB70B881F991F5A95A9F7809527
:102330009095BC01CD010895EE0FFF1F0590F4911B
:10234000E02D09940F931F93CF93DF938230910573
:1023500010F482E090E0E0918004F091810430E09C
:1023600020E0B0E0A0E0309799F42115310509F4A0
:102370004AC0281B390B24303105D8F58A819B814E
:102380006115710589F1FB0193838283FE0111C000
:10239000408151810281138148175907E0F04817A5
:1023A000590799F4109761F012960C9312971396AF
:1023B0001C933296CF01DF91CF911F910F91089519
:1023C0000093800410938104F4CF2115310551F05E
:1023D0004217530738F0A901DB019A01BD01DF0163
:1023E000F801C1CFEF01F9CF90938104809380046D
:1023F000CDCFFE01E20FF31F81939193225031095B
:1024000039832883D7CF20917E0430917F04232BFA
:1024100041F4209105013091060130937F0420930F
:102420007E0420910301309104012115310541F40E
:102430002DB73EB74091070150910801241B350B81
:10244000E0917E04F0917F04E217F307A0F42E1BC5
:102450003F0B2817390778F0AC014E5F5F4F241708
:10246000350748F04E0F5F1F50937F0440937E0462
:10247000819391939FCFF0E0E0E09CCFCF93DF93E7
:102480000097E9F0FC01329713821282A091800438
:10249000B0918104ED0130E020E01097A1F420819B
:1024A0003181820F931F20917E0430917F04281781
:1024B000390709F061C0F0937F04E0937E04DF9157
:1024C000CF910895EA01CE17DF07E8F54A815B81D5
:1024D0009E0141155105B1F7E901FB83EA8349915A
:1024E0005991C40FD51FEC17FD0761F480819181CC
:1024F0000296840F951FE9019983888382819381D5
:102500009B838A83F0E0E0E012968D919C91139773
:102510000097B9F52D913C911197CD010296820F4C
:10252000931F20917E0430917F042817390739F6D4
:10253000309751F51092810410928004B0937F047B
:10254000A0937E04BCCFD383C28340815181840F8A
:10255000951FC817D90761F44E5F5F4F8881998135
:10256000480F591F518340838A819B8193838283C3
:102570002115310509F0B0CFF0938104E093800478
:102580009ECFFD01DC01C0CF13821282D7CFB0E015
:10259000A0E0EDECF2E10C9405108C01009751F4F1
:1025A000CB010E94A2118C01C801CDB7DEB7E0E1DA
:1025B0000C942110FC01E60FF71F9C0122503109F9
:1025C000E217F30708F49DC0D901CD91DC91119772
:1025D000C617D70798F0C530D10530F3CE01049760
:1025E0008617970708F3C61BD70B2297C193D19381
:1025F0006D937C93CF010E943E12D6CF5B01AC1A43
:10260000BD0A4C018C0E9D1EA0918004B0918104E6
:10261000512C412CF12CE12C109731F580917E0446
:1026200090917F048815990509F05CC046165706FD
:1026300008F058C08091030190910401009741F483
:102640008DB79EB74091070150910801841B950BEF
:10265000E817F90708F055C0F0937F04E0937E0473
:10266000F90171836083A0CF8D919C91119712968F
:102670006C90129713967C901397A815B90559F58D
:102680006C0142E0C40ED11CCA14DB0420F1AC0181
:102690004A195B09DA011296159780F062827382FB
:1026A00051834083D9016D937C93E114F10471F05F
:1026B000D7011396FC93EE93129776CF22968C0F48
:1026C0009D1FF90191838083F301EFCFF093810483
:1026D000E093800469CF4816590608F42C017D0167
:1026E000D3019ACFCB010E94A2117C01009749F03F
:1026F000AE01B8010E948413C8010E943E128701F6
:1027000053CF10E000E050CFFB01DC0102C001908C
:102710000D9241505040D8F70895FB01DC01019023
:102720000D920020E1F70895F894FFCFFFFFFF001E
:1027300000820480005E00BC0077010000000050B1
:1027400002B001DD019D020E02EC0100020D0A0043
:102750006E616E00696E66006F7666002F005465CC
:102760006D70657261747572613A20005E4300504D
:10277000483A2000436F6E647563746976696461DA
:10278000643A200075532F636D005475726269645A
:10279000657A3A2000204E545500504820726565F5
:1027A000737461626C656369646F20612076616C2B
:1027B0006F72657320616365707461626C65732EFE
:1027C00000616C61726D615048004C6F73206E69DE
:1027D00076656C65732064652074656D70657261E3
:1027E000747572612061637475616C6573207961C1
:1027F000204E6F206661766F726563656E206C6136
:1028000020726570726F64756363694F6E206465D2
:1028100020626163746572696173206E6F636976AB
:1028200061732070617261206C612073616C7564EA
:102830002E00616C6572746154656D7000566F6C2A
:102840007665722061207065726D69746972206CA2
:1028500061206465736361726761206465206167EC
:1028600075612E005961206E6F206573206E65635F
:1028700065736172696F2065787472616572207228
:1028800065736964756F732E00616C657274614560
:10289000787472616363696F6E4167756100456C3E
:1028A0002061677561206168207675656C746F20A2
:1028B00061207365722061707461207061726120A3
:1028C000656C20636F6E73756D6F2E00616C657241
:1028D0007461436F6E73756D6F4167756100566506
:1028E0007274657220736F6C7563696F6E206163BB
:1028F0006964612F616C63616C696E6120706172E3
:102900006120726567756C617220656C2050482E7D
:10291000004C6F73206E6976656C6573206465206A
:1029200074656D7065726174757261206163747530
:10293000616C6573206661766F726563656E206C8D
:102940006120726570726F64756363694F6E206495
:102950006520626163746572696173206E6F63697B
:102960007661732070617261206C612073616C7597
:10297000642E0050726F68696269722064657363C7
:102980006172676120646520616775612E0045781A
:102990007472616572207265736964756F732E005D
:1029A00041677561206E6F20617074612070617283
:0E29B0006120656C20636F6E73756D6F2E0075
:107E0000112484B714BE81FFF0D085E080938100F7
:107E100082E08093C00088E18093C10086E0809377
:107E2000C20080E18093C4008EE0C9D0259A86E02C
:107E300020E33CEF91E0309385002093840096BBD3
:107E4000B09BFECF1D9AA8958150A9F7CC24DD24C4
:107E500088248394B5E0AB2EA1E19A2EF3E0BF2EE7
:107E6000A2D0813461F49FD0082FAFD0023811F036
:107E7000013811F484E001C083E08DD089C08234E0
:107E800011F484E103C0853419F485E0A6D080C0E4
:107E9000853579F488D0E82EFF2485D0082F10E0AE
:107EA000102F00270E291F29000F111F8ED06801E7
:107EB0006FC0863521F484E090D080E0DECF843638
:107EC00009F040C070D06FD0082F6DD080E0C81688
:107ED00080E7D80618F4F601B7BEE895C0E0D1E017
:107EE00062D089930C17E1F7F0E0CF16F0E7DF06D8
:107EF00018F0F601B7BEE89568D007B600FCFDCFD4
:107F0000A601A0E0B1E02C9130E011968C91119780
:107F100090E0982F8827822B932B1296FA010C0160
:107F200087BEE89511244E5F5F4FF1E0A038BF0790
:107F300051F7F601A7BEE89507B600FCFDCF97BE46
:107F4000E89526C08437B1F42ED02DD0F82E2BD052
:107F50003CD0F601EF2C8F010F5F1F4F84911BD097
:107F6000EA94F801C1F70894C11CD11CFA94CF0C13
:107F7000D11C0EC0853739F428D08EE10CD085E9AC
:107F80000AD08FE07ACF813511F488E018D01DD067
:107F900080E101D065CF982F8091C00085FFFCCF94
:107FA0009093C60008958091C00087FFFCCF809118
:107FB000C00084FD01C0A8958091C6000895E0E648
:107FC000F0E098E1908380830895EDDF803219F02E
:107FD00088E0F5DFFFCF84E1DECF1F93182FE3DFCA
:107FE0001150E9F7F2DF1F91089580E0E8DFEE27F6
:047FF000FF270994CA
:027FFE00040479
:00000001FF
