:100000000C9473000C949B000C949B000C949B002C
:100010000C949B000C949B000C949B000C947B070D
:100020000C949B000C949B000C949B000C949B00E4
:100030000C949B000C949B000C949B000C949B00D4
:100040000C9431070C949B000C94FD070C94D7077B
:100050000C949B000C949B000C949B000C949B00B4
:100060000C949B000C949B00005EBCE2613FDD831E
:10007000C29C7E20A3FD1F41009D23BE46DB65F888
:100080008C11AF32CA57E974020000000024002727
:10009000002A0000000000250028002B00000000BE
:1000A0000800020100000304070000000000000037
:1000B00000000000002300260029000404040404BA
:1000C0000404040202020202020303030303030105
:1000D00002040810204080010204081020010204DC
:1000E000081020002F0811241FBECFEFD8E0DEBF7C
:1000F000CDBF24E0A2E9B3E001C01D92A73AB20748
:10010000E1F713E0A0E0B1E0ECE6F7E202C0059011
:100110000D92A239B107D9F710E0C3E7D0E004C0CF
:100120002197FE010E94BC11C237D107C9F70E9476
:100130008A080C94B4130C94000090E0FC01E35680
:10014000FF4F2491FC01E153FF4F3491FC01E55432
:10015000FF4FE491EE23C9F0222339F0233001F15F
:10016000A8F4213019F1223029F1F0E0EE0FFF1F41
:10017000ED56FF4FA591B4918FB7F894EC916111B2
:1001800026C030953E233C938FBF08952730A9F0B9
:100190002830C9F0243049F7809180008F7D03C05A
:1001A000809180008F7780938000DFCF84B58F7738
:1001B00084BDDBCF84B58F7DFBCF8091B0008F777E
:1001C0008093B000D2CF8091B0008F7DF9CF3E2BCD
:1001D000DACFCF93DF9390E0FC01E153FF4F2491FE
:1001E00085549F4FFC0184918823D1F090E0880FC3
:1001F000991FFC01E757FF4FA591B491FC01ED5603
:10020000FF4FC591D49161110EC09FB7F8948C91A6
:10021000E22FE0958E238C932881E223E8839FBF11
:10022000DF91CF9108958FB7F894EC91E22BEC9386
:100230008FBFF6CFCF93DF93EC0160E082E10E94A5
:10024000E900E1EEF0E0E491E883EDECF0E0E49128
:10025000F0E0EE0FFF1FEF54FF4F859194919A83CA
:1002600089831B861D861C861A86198618861F821E
:100270001E821D821C821B82DF91CF9108958E50B9
:10028000806480937C0080917A00806480937A00FF
:1002900080917A0086FDFCCF809178009091790062
:1002A00008953FB7F8948091B8039091B903A09155
:1002B000BA03B091BB0326B5A89B05C02F3F19F028
:1002C0000196A11DB11D3FBFBA2FA92F982F8827D6
:1002D000BC01CD01620F711D811D911D42E0660FB1
:1002E000771F881F991F4A95D1F708958F929F9283
:1002F000AF92BF92CF92DF92EF92FF926B017C019F
:100300000E9451014B015C01C114D104E104F104CC
:10031000B9F00E945101681979098A099B09683E60
:1003200073408105910580F321E0C21AD108E108EC
:10033000F10888EE880E83E0981EA11CB11CE4CF62
:10034000FF90EF90DF90CF90BF90AF909F908F90F5
:1003500008959091000189130BC0E8E8F0E0E49162
:100360009FEF90930001E13049F028F0E23061F016
:1003700060E00C949D0010926E00FACF90916F0097
:100380009D7F90936F00F4CF909170009D7F90932C
:10039000700091E09093B0009091B100987F9460CC
:1003A0009093B1001092B300E3CFAF92BF92CF927F
:1003B000DF92EF92FF920F931F93CF93DF936C0125
:1003C0007B018B01040F151FEB015E01AE18BF0806
:1003D000C017D10759F06991D601ED91FC910190B8
:1003E000F081E02DC6010995892B79F7C501DF91D0
:1003F000CF911F910F91FF90EF90DF90CF90BF9022
:10040000AF900895FC01538D448D252F30E0842F4B
:1004100090E0821B930B541710F0CF96089501972C
:100420000895FC01918D828D981761F0A28DAE0F19
:10043000BF2FB11D5D968C91928D9F5F9F73928FA0
:1004400090E008958FEF9FEF0895FC01918D828DCC
:10045000981731F0828DE80FF11D858D90E0089599
:100460008FEF9FEF0895FC01918D228D892F90E0F1
:10047000805C9F4F821B91098F73992708958CEBA5
:1004800093E00E94330221E0892B09F420E0822FBF
:10049000089580E090E0892B29F00E943F028111AD
:1004A0000C9400000895FC01A48DA80FB92FB11D74
:1004B000A35ABF4F2C91848D90E001968F7399279A
:1004C000848FA689B7892C93A089B1898C91837078
:1004D00080648C93938D848D981306C00288F38971
:1004E000E02D80818F7D80830895EF92FF920F939E
:1004F0001F93CF93DF93EC0181E0888F9B8D8C8DD0
:1005000098131AC0E889F989808185FF15C09FB7C3
:10051000F894EE89FF896083E889F9898081837086
:10052000806480839FBF81E090E0DF91CF911F9135
:100530000F91FF90EF900895F62E0B8D10E00F5F56
:100540001F4F0F731127E02E8C8D8E110CC00FB62C
:1005500007FCFACFE889F989808185FFF5CFCE01C4
:100560000E945302F1CFEB8DEC0FFD2FF11DE35AEA
:10057000FF4FF0829FB7F8940B8FEA89FB89808147
:100580008062CFCFCF93DF93EC01888D8823B9F0C1
:10059000AA89BB89E889F9898C9185FD03C080818E
:1005A00086FD0DC00FB607FCF7CF8C9185FFF2CF0B
:1005B000808185FFEDCFCE010E945302E9CFDF910C
:1005C000CF910895DC0180E0615090F09D919827D3
:1005D000E92FEF70F0E0E859FF4F2491E92FE29501
:1005E000EF70F0E0E858FF4FE491822F8E27ECCFB8
:1005F0000895DC012C911196ED91FC91F894818184
:10060000822B81839281322F30959323928387E0CE
:1006100090E00197F1F781818323818383E290E069
:100620000197F1F790817894EFECF0E03197F1F7D2
:10063000922381E009F480E00895FC01908101801B
:10064000F281E02D292F209560FF14C0F89482815B
:10065000822382838181892B8183A3E2B0E0119779
:10066000F1F78281982B9283789487ED90E001973F
:10067000F1F70895F8948281822382838181892B06
:100680008183AFEFB0E01197F1F78281982B9283CD
:1006900078948FE090E0EBCFDF92EF92FF920F9390
:1006A0001F93CF93DF93EC01D62EE42E08E010E0E9
:1006B000FF24F39461E08D2D8F2109F460E0CE01D9
:1006C0000E941D03FF0C01501109A1F7E11010C099
:1006D000F894E981FA8191818881809589238183C9
:1006E000E981FA8192818881809589238283789437
:1006F000DF91CF911F910F91FF90EF90DF900895C0
:10070000EF92FF920F931F93CF93DF938C017B01A6
:1007100040E065E50E944C03E70188E0E80EF11C2B
:10072000699140E0C8010E944C03CE15DF05C1F776
:10073000DF91CF911F910F91FF90EF900895FC01F1
:1007400090810180F281E02DF8948181292F2095FC
:100750008223818378943DE743E050E0315029F1D2
:10076000DA011197F1F780818923C1F3F89482812E
:10077000822382838181892B81837894ABE7B7E0E0
:100780001197F1F7F894818182238183A3E1B1E08D
:100790001197F1F78081982381E009F080E0789447
:1007A000E3E6F6E03197F1F7089580E008956F925F
:1007B0007F928F929F92AF92BF92CF92DF92EF92F1
:1007C000FF920F931F93CF93DF938C01EB018091E6
:1007D0008704909188040E949F03882309F43FC0F6
:1007E000B80180918704909188040E94800340E0C2
:1007F0006EEB80918704909188040E944C037E01E7
:100800006E0189E0C80ED11C8E01A0908704B090C3
:10081000880488E0882E912C712C66246394C5018D
:100820000E94F90281117628660CE1E08E1A910887
:10083000B1F7F80171928F01CE16DF0631F7809182
:100840008704909188040E949F03813041F4F7014E
:1008500081917F01811105C0E017F107C1F790E098
:1008600008C068E0CE010E94E20291E028852813CA
:10087000F6CF892FDF91CF911F910F91FF90EF90CD
:10088000DF90CF90BF90AF909F908F907F906F90B0
:100890000895FC0101900020E9F73197AF01481B52
:1008A000590BBC018CEB93E00C94D5018F929F9275
:1008B000AF92BF920F931F93CF93DF93CDB7DEB765
:1008C000A1970FB6F894DEBF0FBECDBF19A242307C
:1008D00008F44AE08E010F5D1F4F842E912CB12C3D
:1008E000A12CA50194010E948611E62FB901CA012D
:1008F000EA30F4F4E05DD801EE938D01232B242B34
:10090000252B79F790E080E0109719F0CD010E9437
:100910004904A1960FB6F894DEBF0FBECDBFDF919C
:10092000CF911F910F91BF90AF909F908F9008959E
:10093000E95CE1CFCF93DF930E944904EC0181E2AF
:1009400091E00E9449048C0F9D1FDF91CF91089583
:100950004F925F926F927F928F929F92AF92BF92CF
:10096000CF92DF92EF92FF920F931F93CF936B0181
:100970007C01742EAC019B010E946D11882399F0BB
:1009800084E291E0CF911F910F91FF90EF90DF9063
:10099000CF90BF90AF909F908F907F906F905F901F
:1009A0004F900C94490446015701E894B7F82FEF93
:1009B0003FEF4FE75FE7C501B4010E946D11811160
:1009C0000DC02FEF3FEF4FE75FE7C501B4010E9475
:1009D000FF0E18161CF488E291E0D4CF2FEF3FEF02
:1009E0004FE75FE4C701B6010E94681118161CF4B6
:1009F0008CE291E0C7CF2FEF3FEF4FE75FECC701ED
:100A0000B6010E94FF0E87FDF3CF20E030E0A90180
:100A1000C701B6010E94FF0E10E000E087FF0AC088
:100A20006DE28CEB93E00E9475028C01F7FAF09472
:100A3000F7F8F094C0E060E070E080E09FE37C169F
:100A400041F020E030E040E251E40E94C710CF5F67
:100A5000F6CFA70196010E945B102B013C010E947A
:100A600039114B015C014AE00E9456047C01E00E02
:100A7000F11ECC23C1F1C501B4010E94040F9B01FA
:100A8000AC01C301B2010E945A104B015C016EE23D
:100A90008CEB93E00E947502E80EF91EC15018F12C
:100AA00020E030E040E251E4C501B4010E94650F4E
:100AB0002B013C010E9439114B01B12CA12C4AE0C1
:100AC000C501B4010E945604E80EF91EC501B40127
:100AD0000E94040F9B01AC01C301B2010E945A1095
:100AE0004B015C01DBCFC701CF911F910F91FF90AC
:100AF000EF90DF90CF90BF90AF909F908F907F90BE
:100B00006F905F904F900895BF92CF92DF92EF92D7
:100B1000FF920F931F93CF93DF93EC01B62EC72E56
:100B20008D85811105C0CE010E949F0381110EC0E9
:100B30001B861D861C8680E0DF91CF911F910F914F
:100B4000FF90EF90DF90CF90BF90089540E060EF6E
:100B5000CE010E944C0301E0E12CD12C11E0CE012A
:100B60000E94F902F82ECE010E94F90291E0F912DA
:100B700018C0813099F51134D8F2DB86D11002C04B
:100B800081E08D878B81882399F22396EB2DFC2DB4
:100B9000CF01089629912193E817F907D9F781E049
:100BA000CBCFEE2DF0E0F8120FC08B851817A0F414
:100BB000DE01AE0FBF1F13968C91802379F4F12CC8
:100BC000193008F41C87D12EEC0FFD1F8381902F64
:100BD0009095892383830AC08113F1CFFE01EE0D26
:100BE000F11D8381802B8383FF24F3946F2DCE012D
:100BF0000E941D031F5F000F11F4E39401E087E0E2
:100C00008E1508F0ACCFB7CF0F931F93CF93DF9320
:100C1000EC0188819981009759F02A813B81261740
:100C2000370730F081E0DF91CF911F910F91089548
:100C30008B016F5F7F4F0E94E712009759F09983F5
:100C400088831B830A832C813D81232B59F7FC0168
:100C50001082E8CF80E0E7CFCF93DF93EC0188816B
:100C60009981009711F00E945E12198218821D82EC
:100C70001C821B821A82DF91CF910895EF92FF921E
:100C80000F931F93CF93DF93EC01FB01E080F18082
:100C9000E114F10411F10481158101151105A9F088
:100CA0008C819D81080F191FB801CE010E94040696
:100CB000882399F0288139818C819D81B701820F29
:100CC000931F0E94AD131D830C83CE01DF91CF9142
:100CD0001F910F91FF90EF900895CE010E942C0676
:100CE000F4CFEF92FF920F931F93CF93DF93EC011A
:100CF0007B01198218821B821A821D821C82FB01D1
:100D000001900020E9F731978F01061B170BB801FE
:100D10000E940406811109C0CE01DF91CF911F917D
:100D20000F91FF90EF900C942C061D830C83B7015C
:100D300088819981DF91CF911F910F91FF90EF9062
:100D40000C94AD13FC0180819181009711F00C94FB
:100D50005E120895CF92DF92EF92FF920F931F934E
:100D6000CF93DF93CDB7DEB72C970FB6F894DEBFE5
:100D70000FBECDBF8C016B0160E371E0CE01019627
:100D80000E947106B801CE0101960E943E068C01B8
:100D9000FC01E480F580FFEFEF1AFF0AB7010E9423
:100DA0000406882309F451C0F8012081318184812F
:100DB000958160E371E0820F931F0E94AD13F801EB
:100DC000F582E482B601C8010E943E0618861F82A1
:100DD0001A8619861C861B868E01095F1F4F801795
:100DE000910789F0FC01E080F180E114F10459F0F1
:100DF000C480D580B601C8010E940406811129C0B3
:100E0000C8010E942C06CE0101960E94A2064B85C5
:100E10005C856F8178858CEB93E00E94D50181E23F
:100E200091E00E944904C8010E94A2062C960FB6C8
:100E3000F894DEBF0FBECDBFDF91CF911F910F9110
:100E4000FF90EF90DF90CF900895C8010E942C068C
:100E5000B9CFDC86CB86B7018F8198850E94AD1310
:100E6000D2CF1F920F920FB60F9211242F933F9360
:100E70008F939F93AF93BF938091B4039091B503E9
:100E8000A091B603B091B7033091B30323E0230FD1
:100E90002D3758F50196A11DB11D2093B303809302
:100EA000B4039093B503A093B603B093B7038091B6
:100EB000B8039091B903A091BA03B091BB03019616
:100EC000A11DB11D8093B8039093B903A093BA03F9
:100ED000B093BB03BF91AF919F918F913F912F91A1
:100EE0000F900FBE0F901F90189526E8230F0296C3
:100EF000A11DB11DD2CF1F920F920FB60F921124D8
:100F00002F933F934F935F936F937F938F939F9311
:100F1000AF93BF93EF93FF938091970390919803C2
:100F2000A0919903B0919A03892B8A2B8B2BD1F135
:100F300090919203E0919303F0919403808189272B
:100F400080838091970390919803A0919903B09129
:100F50009A03181619061A061B069CF4809197032B
:100F600090919803A0919903B0919A030197A109D8
:100F7000B1098093970390939803A0939903B0933A
:100F80009A03FF91EF91BF91AF919F918F917F91C4
:100F90006F915F914F913F912F910F900FBE0F90E6
:100FA0001F901895809100010E94A901EACF1F921D
:100FB0000F920FB60F9211242F933F934F935F938D
:100FC0006F937F938F939F93AF93BF93EF93FF9311
:100FD0008CEB93E00E945302FF91EF91BF91AF9190
:100FE0009F918F917F916F915F914F913F912F9141
:100FF0000F900FBE0F901F9018951F920F920FB673
:101000000F9211242F938F939F93EF93FF93E0916F
:10101000CC03F091CD038081E091D203F091D30312
:1010200082FD1BC090818091D5038F5F8F732091CB
:10103000D603821741F0E091D503F0E0E454FC4F71
:10104000958F8093D503FF91EF919F918F912F9171
:101050000F900FBE0F901F9018958081F4CFCF9303
:10106000DF93ECEBF3E01382128288EE93E0A0E0D2
:10107000B0E084839583A683B78383E191E0918375
:10108000808385EC90E09587848784EC90E0978757
:10109000868780EC90E0918B808B81EC90E0938B45
:1010A000828B82EC90E0958B848B86EC90E0978B22
:1010B000868B118E128E138E148E85E994E00E9419
:1010C0001A01EEE7F4E0168A158A118285E994E0A8
:1010D00092878187178210861082D9E0D383C1E07E
:1010E000C483C583C68380E794E00E941A01E9E5C2
:1010F000F4E0168A158A118280E794E0928781874E
:10110000178210861082D383C483C583C683DF9180
:10111000CF910895CF93DF93CDB7DEB761970FB628
:10112000F894DEBF0FBECDBF789484B5826084BDD5
:1011300084B5816084BD85B5826085BD85B58160DB
:1011400085BD80916E00816080936E001092810059
:101150008091810082608093810080918100816014
:1011600080938100809180008160809380008091D5
:10117000B10084608093B1008091B0008160809361
:10118000B00080917A00846080937A0080917A0028
:10119000826080937A0080917A00816080937A00E7
:1011A00080917A00806880937A001092C100E0916B
:1011B000CC03F091CD0382E08083E091C803F091ED
:1011C000C9031082E091CA03F091CB0380E18083D0
:1011D0001092D403E091D003F091D10386E0808394
:1011E000E091CE03F091CF03808180618083E09114
:1011F000CE03F091CF03808188608083E091CE039D
:10120000F091CF03808180688083E091CE03F091DC
:10121000CF0380818F7D808361E08DE00E94E900B3
:1012200061E083E00E94E900E0918704F091880486
:1012300013861586148612861186108617821682EA
:10124000158214821382109285041092860411E094
:10125000BE01665F7F4F80918704909188040E9451
:101260008405882309F475C067E0CE010A960E94C0
:10127000E20299898913ECCF809185048F5F809376
:1012800085048A85883231F008F049C0803111F038
:101290008232F1F6809186048F5F8093860480917C
:1012A0007E04811128C080918704909188040E9457
:1012B0009F03BE01665F7F4F8091870490918804F1
:1012C0000E94800340E064EB809187049091880441
:1012D0000E944C0380918704909188040E94F90237
:1012E000082F80918704909188040E949F03011128
:1012F00002C010937E048A858031E1F0BE016F5FE9
:101300007F4FCE010A960E94D703882331F08D814A
:101310008F33D9F058F48F31D1F080E00EC08B3389
:1013200009F4B8CF823409F093CFB4CF8F3521F0D0
:101330008F3799F78CE001C08BE09091810498176A
:1013400008F086CF8093810483CF8AE0F6CF89E0CE
:10135000F4CF812C10EF912E12EDA12E16E4B12EB8
:10136000CC24CA94DC2C7601809187049091880467
:101370000E949F0340E06CEC809187049091880468
:101380000E944C0340917E0464E480918704909114
:1013900088040E944C0380918204882391F1E0919B
:1013A000810480918304882309F495C380917E048D
:1013B000811191C38FB7F8944090B4035090B50356
:1013C0006090B6037090B7038FBF809187049091AF
:1013D00088040E94F9028130A1F02FB7F89480911F
:1013E000B4039091B503A091B603B091B7032FBF9A
:1013F00084199509A609B7098E3E9240A105B10549
:1014000020F3E0918704F0918804138615861486F2
:101410001286118610861782168215821482138214
:10142000BE01665F7F4F80918704909188040E947F
:101430008405882309F498CF67E0CE010A960E94BC
:10144000E2029989891390CFBE016F5F7F4FCE0171
:101450000A960E94D703882309F486CF6A8170E038
:10146000762F6627770F770F770F298148E0249F23
:1014700090011124262B372B8A858031E1F4688571
:101480006623C9F070E08F81DB01A81BB109CD0193
:101490009695982F8827979587950E947211CB0172
:1014A0008097B90153E0660F771F5A95E1F760788E
:1014B0009C01260F371F2138B4EE3B070CF454CFA4
:1014C000B901330F880B990B0E94060F20E030E022
:1014D00040E05CE30E94650F2B013C0120E030E01E
:1014E0004EEF52EC0E94FF0E882309F43DCF40924C
:1014F000AF035092B0036092B1037092B20382E3E3
:1015000091E00E9449046091AF037091B003809113
:10151000B1039091B20342E00E94A80480E491E0FC
:101520000E949A0481E10E943F016FEF73E0681B03
:10153000790B072E000C880B990B0E94060F27EDE4
:1015400033E242E952E40E94C7106093AB03709308
:10155000AC038093AD039093AE0383E491E00E94CB
:1015600049046091AB037091AC038091AD039091FD
:10157000AE0342E00E94A80481E291E00E94490487
:1015800014E6412C512C320183E10E943F01BC0141
:10159000990F880B990B0E94060F20E030E040EA7B
:1015A00050E40E94650F20E030EC4FE754E40E94C5
:1015B000C7109B01AC01C301B2010E945B102B015B
:1015C0003C01115009F720E030E048EC52E40E9461
:1015D000C71020E030EC4FE754E40E94650F20E094
:1015E00030E040EA50E40E94C7102B013C0120E0AB
:1015F00030EC47E654E40E94681187FD08C0109261
:10160000A7031092A8031092A9031092AA0320E046
:1016100030EC47E654E4C301B2010E94FF0E87FF9D
:1016200026C020E030E841E554E4C301B2010E9445
:10163000681187FD1CC020E030E841E554E4C30197
:10164000B2010E945A1020E030E040EF51EC0E94BD
:10165000650F20E030E84BE355E40E945B10609397
:10166000A7037093A8038093A9039093AA0320E093
:1016700030E048E454E4C301B2010E94681187FDE0
:1016800016C020E030E441E554E4C301B2010E94F9
:10169000FF0E181664F080E090E4A5EBB5E48093AB
:1016A000A7039093A803A093A903B093AA0320E0F3
:1016B00030E444E454E4C301B2010E94681187FDA0
:1016C00016C020E030E048E454E4C301B2010E94B7
:1016D000FF0E87FF0CC080E090E2ADEFB5E4809391
:1016E000A7039093A803A093A903B093AA0320E0B3
:1016F00030E440E454E4C301B2010E94681187FD64
:1017000016C020E030E444E454E4C301B2010E9476
:10171000FF0E87FF0CC080E090E0AFE2B6E480935C
:10172000A7039093A803A093A903B093AA0320E072
:1017300030E44FE354E4C301B2010E94681187FD15
:1017400016C020E030E440E454E4C301B2010E943A
:10175000FF0E87FF0CC080E098EBA8E8B6E480930A
:10176000A7039093A803A093A903B093AA0320E032
:1017700030EC4EE354E4C301B2010E946811181624
:1017800094F420E030E44FE354E4C301B2010E943A
:10179000FF0E87FF08C08092A7039092A803A09233
:1017A000A903B092AA0320E030E841E454E4C30165
:1017B000B2010E9468111816B4F420E030E84EE33C
:1017C00054E4C301B2010E94FF0E181664F080E0D9
:1017D00098E2ABEEB6E48093A7039093A803A0939E
:1017E000A903B093AA0320E030E841E454E4C30124
:1017F000B2010E94FF0E181664F080E098E0ADE19F
:10180000B7E48093A7039093A803A093A903B09390
:10181000AA0388E491E00E9449046091A7037091B3
:10182000A8038091A9039091AA0342E00E94A80412
:1018300088E591E00E949A0404E610E0412C512CC6
:1018400032018EE00E943F01BC01990F880B990B79
:101850000E94060F20E030E040EA50E40E94650F4D
:1018600020E030EC4FE754E40E94C7109B01AC012C
:10187000C301B2010E945B102B013C010150110910
:1018800001F720E030E048EC52E40E94C7102B0141
:101890003C012DEC3CEC4CE450E40E94681187FDC7
:1018A00008C01092A3031092A4031092A5031092F3
:1018B000A6032DEC3CEC4CE450E4C301B2010E94C1
:1018C000FF0E87FF1FC020E030E0A901C301B20175
:1018D0000E94681187FD16C020E038EB48E854EC00
:1018E000C301B2010E94650F20E030EC4AE555E4E7
:1018F0000E945B106093A3037093A4038093A503DD
:101900009093A60320E030E0A901C301B2010E9438
:10191000FF0E87FF0CC080E090ECAAE5B5E4809351
:10192000A3039093A403A093A503B093A6038EE50D
:1019300091E00E9449046091A3037091A4038091F7
:10194000A5039091A60342E00E94A80489E691E0D5
:101950000E949A0488E491E00E9449046091A703E0
:101960007091A8038091A9039091AA0342E00E947C
:10197000A80488E591E00E949A044090AB0350903F
:10198000AC036090AD037090AE0320E030E040EC1B
:1019900050E4C301B2010E94FF0E87FDC4C020E0E5
:1019A00030E040E151E4C301B2010E946811181611
:1019B0000CF4B9C04090AF035090B0036090B103F5
:1019C0007090B20320E030E048EC51E4C301B20172
:1019D0000E946811181664F420E030E04CE052E4F4
:1019E000C301B2010E94FF0E04E010E087FD33C086
:1019F00020E030E04CE052E4C301B2010E946811E3
:101A000003E010E018163CF120E030E04AEF54E427
:101A10006091A3037091A4038091A5039091A60304
:101A20000E94681102E010E01816ACF0662463947E
:101A3000712C20E030E84BEB54E46091A7037091E7
:101A4000A8038091A9039091AA030E946811181617
:101A50000CF0612C830180910101909102018017AB
:101A6000910711F1081719076CF48330910509F4F7
:101A70008FC00CF05BC08130910509F499C00297CA
:101A800009F48DC010930201009301010330110588
:101A900009F49CC10CF095C00130110509F4A6C1F0
:101AA0000230110509F499C164E670E080E090E02D
:101AB0000E94760181E291E00E94490480E090E07A
:101AC000892B09F451CC0E943F02882309F448CCA9
:101AD0000E94000045CCE9508EEE92E0E33038F4ED
:101AE000F0E0EE0FFF1FE75FFE4F808191812C0138
:101AF000990F6608770880917F04882329F060E0B9
:101B0000809180040E949D00C301B2010E94760171
:101B100080917F04882309F474CC61E08091800473
:101B20000E949D006ECC05E010E095CF84309105B9
:101B300031F1059709F0A6CF83E00E94A90160E08A
:101B40008DE00E949D006EE671E0CE0101960E943C
:101B5000710665E971E0CE010A960E947106BE0128
:101B60006F5F7F4FCE010A960E94AA06CE010A96A9
:101B70000E94A206CE0101960E94A20683CF6EE9C2
:101B800071E0CE0101960E94710666E072E0E3CF3B
:101B900060E08DE00E949D0061E172E0F2CF68E3B9
:101BA00072E0CE0101960E9471066DE572E0D3CF1E
:101BB00062E772E0CE0101960E94710660EA72E06F
:101BC000CACF0430110509F4F8C00530110509F039
:101BD0006BCF80910001833031F5E8E8F0E014919B
:101BE00017FDC3C061E083E00E94E900112309F4FE
:101BF0008DC0123009F09EC08091B100887F866050
:101C00008093B10085E88093B300C0929703D0928F
:101C10009803E0929903F0929A0380917000826099
:101C200080937000A2C08F3F09F09FC083E0809333
:101C30000001E8E8F0E014911F3F09F496C011306C
:101C400021F150F0123009F43EC017FD8EC061E062
:101C500083E00E94E900CDCF14BC15BC84B582603E
:101C600084BD85B5816085BDEEEBF0E0E491F0E0E8
:101C7000EE0FFF1FED56FF4F85919491E2EDF0E0DE
:101C8000E491E093960310E0ADCF109280001092A3
:101C90008100809181008860809381008091810023
:101CA000816080938100EEEBF0E0E491F0E0EE0FD4
:101CB000FF1FED56FF4F85919491E2EDF0E0E49126
:101CC000E09395038FCF1092B0001092B1008091F5
:101CD000B00082608093B0008091B10081608093F9
:101CE000B100EEEBF0E0E491F0E0EE0FFF1FED56F7
:101CF000FF4F859194919093940380939303E2ED29
:101D0000F0E0E491E093920312E06CCF85B5887F18
:101D1000846085BD85E887BDC0929F03D092A003F3
:101D2000E092A103F092A20380916E008260809302
:101D30006E001BC01130C9F580918100887F8160E1
:101D40008093810081EB96E89093890080938800CE
:101D5000C0929B03D0929C03E0929D03F0929E035D
:101D600080916F00826080936F0061E08DE00E943F
:101D70009D0062EB72E0CE0101960E94710665E95A
:101D800071E0CE010A960E947106BE016F5F7F4F1F
:101D9000CE010A960E94AA06CE010A960E94A206C9
:101DA000CE0101960E94A2067FCE123021F01111C1
:101DB000DCCF81EBB0CF81EB26CF65EE72E0CE01B8
:101DC00001960E94710666E072E0DBCF61E08DE073
:101DD0000E949D0067E473E0F2CF62E673E0CE01FB
:101DE00001960E9471066DE572E0CBCF64E773E067
:101DF000CE0101960E94710660EA72E0C2CF0E9495
:101E0000410F08F481E00895E89409C097FB3EF47F
:101E100090958095709561957F4F8F4F9F4F992337
:101E2000A9F0F92F96E9BB279395F69587957795B5
:101E30006795B795F111F8CFFAF4BB0F11F460FF75
:101E40001BC06F5F7F4F8F4F9F4F16C0882311F0CD
:101E500096E911C0772321F09EE8872F762F05C0E1
:101E6000662371F096E8862F70E060E02AF09A957C
:101E7000660F771F881FDAF7880F9695879597F971
:101E80000895990F0008550FAA0BE0E8FEEF16160B
:101E90001706E807F907C0F012161306E407F5075E
:101EA00098F0621B730B840B950B39F40A2661F0D2
:101EB000232B242B252B21F408950A2609F4A14075
:101EC000A6958FEF811D811D08950E94780F0C94B7
:101ED000E90F0E94DB0F38F00E94E20F20F09523FB
:101EE00011F00C94D20F0C94D80F11240C941D10E7
:101EF0000E94FA0F70F3959FC1F3950F50E0551FA4
:101F0000629FF001729FBB27F00DB11D639FAA274E
:101F1000F00DB11DAA1F649F6627B00DA11D661F9D
:101F2000829F2227B00DA11D621F739FB00DA11DBE
:101F3000621F839FA00D611D221F749F3327A00D78
:101F4000611D231F849F600D211D822F762F6A2F14
:101F500011249F5750409AF0F1F088234AF0EE0F79
:101F6000FF1FBB1F661F771F881F91505040A9F7A6
:101F70009E3F510580F00C94D20F0C941D105F3FD2
:101F8000E4F3983ED4F3869577956795B795F795E2
:101F9000E7959F5FC1F7FE2B880F911D969587955A
:101FA00097F9089597F99F6780E870E060E00895D9
:101FB0009FEF80EC089500240A9416161706180661
:101FC0000906089500240A9412161306140605063D
:101FD0000895092E0394000C11F4882352F0BB0FCE
:101FE00040F4BF2B11F460FF04C06F5F7F4F8F4F31
:101FF0009F4F089557FD9058440F551F59F05F3F6C
:1020000071F04795880F97FB991F61F09F3F79F01A
:1020100087950895121613061406551FF2CF46959C
:10202000F1DF08C0161617061806991FF1CF86951E
:102030007105610508940895E894BB276627772702
:10204000CB0197F908952F923F924F925F926F9232
:102050007F928F929F92AF92BF92CF92DF92EF9238
:10206000FF920F931F93CF93DF93CDB7DEB7CA1BB9
:10207000DB0B0FB6F894DEBF0FBECDBF09942A88E4
:10208000398848885F846E847D848C849B84AA848C
:10209000B984C884DF80EE80FD800C811B81AA8119
:1020A000B981CE0FD11D0FB6F894DEBF0FBECDBFE4
:1020B000ED0108955058BB27AA270E9472100C9476
:1020C000E90F0E94DB0F38F00E94E20F20F039F494
:1020D0009F3F19F426F40C94D80F0EF4E095E7FB1B
:1020E0000C94D20FE92F0E94FA0F58F3BA17620727
:1020F00073078407950720F079F4A6F50C941C105B
:102100000EF4E0950B2EBA2FA02D0B01B901900112
:102110000C01CA01A0011124FF27591B99F0593F56
:1021200050F4503E68F11A16F040A22F232F342F9E
:102130004427585FF3CF469537952795A795F040EC
:102140005395C9F77EF41F16BA0B620B730B840B01
:10215000BAF09150A1F0FF0FBB1F661F771F881FB9
:10216000C2F70EC0BA0F621F731F841F48F4879511
:1021700077956795B795F7959E3F08F0B0CF939503
:10218000880F08F09927EE0F9795879508950E947C
:10219000DB100C94E90F0E94E20F58F00E94DB0F55
:1021A00040F029F45F3F29F00C94D20F51110C94A8
:1021B0001D100C94D80F0E94FA0F68F39923B1F305
:1021C000552391F3951B550BBB27AA27621773075D
:1021D000840738F09F5F5F4F220F331F441FAA1FF1
:1021E000A9F335D00E2E3AF0E0E832D091505040AD
:1021F000E695001CCAF72BD0FE2F29D0660F771F5B
:10220000881FBB1F261737074807AB07B0E809F040
:10221000BB0B802DBF01FF2793585F4F3AF09E3FC5
:10222000510578F00C94D20F0C941D105F3FE4F32D
:10223000983ED4F3869577956795B795F7959F5F08
:10224000C9F7880F911D9695879597F90895E1E054
:10225000660F771F881FBB1F621773078407BA07B3
:1022600020F0621B730B840BBA0BEE1F88F7E0950E
:1022700008950E94021088F09F5798F0B92F99276F
:10228000B751B0F0E1F0660F771F881F991F1AF061
:10229000BA95C9F714C0B13091F00E941C10B1E09A
:1022A00008950C941C10672F782F8827B85F39F099
:1022B000B93FCCF3869577956795B395D9F73EF4FA
:1022C00090958095709561957F4F8F4F9F4F0895A2
:1022D0000E94410F08F48FEF08950E94410F880B70
:1022E000990B089597FB072E16F4009407D077FDFD
:1022F00009D00E94A81107FC05D03EF49095819565
:102300009F4F0895709561957F4F0895A1E21A2E11
:10231000AA1BBB1BFD010DC0AA1FBB1FEE1FFF1F89
:10232000A217B307E407F50720F0A21BB30BE40BD9
:10233000F50B661F771F881F991F1A9469F7609520
:102340007095809590959B01AC01BD01CF010895DA
:10235000AA1BBB1B51E107C0AA1FBB1FA617B707CB
:1023600010F0A61BB70B881F991F5A95A9F78095E7
:102370009095BC01CD010895EE0FFF1F0590F491DB
:10238000E02D09940F931F93CF93DF938230910533
:1023900010F482E090E0E091A504F091A60430E012
:1023A00020E0B0E0A0E0309799F42115310509F460
:1023B0004AC0281B390B24303105D8F58A819B810E
:1023C0006115710589F1FB0193838283FE0111C0C0
:1023D000408151810281138148175907E0F0481765
:1023E000590799F4109761F012960C93129713966F
:1023F0001C933296CF01DF91CF911F910F910895D9
:102400000093A5041093A604F4CF2115310551F0D3
:102410004217530738F0A901DB019A01BD01DF0122
:10242000F801C1CFEF01F9CF9093A6048093A504E2
:10243000CDCFFE01E20FF31F81939193225031091A
:1024400039832883D7CF2091A3043091A404232B70
:1024500041F420910501309106013093A4042093AA
:10246000A30420910301309104012115310541F4A9
:102470002DB73EB74091070150910801241B350B41
:10248000E091A304F091A404E217F307A0F42E1B3B
:102490003F0B2817390778F0AC014E5F5F4F2417C8
:1024A000350748F04E0F5F1F5093A4044093A304D8
:1024B000819391939FCFF0E0E0E09CCFCF93DF93A7
:1024C0000097E9F0FC01329713821282A091A504D3
:1024D000B091A604ED0130E020E01097A1F4208136
:1024E0003181820F931F2091A3043091A4042817F7
:1024F000390709F061C0F093A404E093A304DF91CD
:10250000CF910895EA01CE17DF07E8F54A815B8194
:102510009E0141155105B1F7E901FB83EA83499119
:102520005991C40FD51FEC17FD0761F4808191818B
:102530000296840F951FE901998388838281938194
:102540009B838A83F0E0E0E012968D919C91139733
:102550000097B9F52D913C911197CD010296820F0C
:10256000931F2091A3043091A4042817390739F64A
:10257000309751F51092A6041092A504B093A404CC
:10258000A093A304BCCFD383C28340815181840F25
:10259000951FC817D90761F44E5F5F4F88819981F5
:1025A000480F591F518340838A819B819383828383
:1025B0002115310509F0B0CFF093A604E093A504EE
:1025C0009ECFFD01DC01C0CF13821282D7CFB0E0D5
:1025D000A0E0EDEEF2E10C9425108C01009751F48F
:1025E000CB010E94C2118C01C801CDB7DEB7E0E17A
:1025F0000C944110FC01E60FF71F9C012250310999
:10260000E217F30708F49DC0D901CD91DC91119731
:10261000C617D70798F0C530D10530F3CE0104971F
:102620008617970708F3C61BD70B2297C193D19340
:102630006D937C93CF010E945E12D6CF5B01AC1AE2
:10264000BD0A4C018C0E9D1EA091A504B091A6045C
:10265000512C412CF12CE12C109731F58091A304E1
:102660009091A4048815990509F05CC04616570698
:1026700008F058C08091030190910401009741F443
:102680008DB79EB74091070150910801841B950BAF
:10269000E817F90708F055C0F093A404E093A304E9
:1026A000F90171836083A0CF8D919C91119712964F
:1026B0006C90129713967C901397A815B90559F54D
:1026C0006C0142E0C40ED11CCA14DB0420F1AC0141
:1026D0004A195B09DA011296159780F062827382BB
:1026E00051834083D9016D937C93E114F10471F01F
:1026F000D7011396FC93EE93129776CF22968C0F08
:102700009D1FF90191838083F301EFCFF093A6041D
:10271000E093A50469CF4816590608F42C017D0101
:10272000D3019ACFCB010E94C2117C01009749F0DE
:10273000AE01B8010E94A413C8010E945E12870175
:1027400053CF10E000E050CFFB01DC0102C001904C
:102750000D9241505040D8F70895FB01DC010190E3
:0C2760000D920020E1F70895F894FFCFDF
:10276C00FFFFFF0000A70480005E00BC00770100A3
:10277C000000007502D5010202C2023302110225CB
:10278C00020D0A006E616E00696E66006F7666005F
:10279C002F0054656D70657261747572613A20001A
:1027AC005E430050483A2000436F6E647563746951
:1027BC0076696461643A200075532F636D0054751B
:1027CC0072626964657A3A2000204E545500504874
:1027DC0020726565737461626C656369646F2061F6
:1027EC002076616C6F7265732061636570746162D1
:1027FC006C65732E00616C61726D615048004C6F9A
:10280C0073206E6976656C65732064652074656DE4
:10281C0070657261747572612061637475616C6549
:10282C0073207961204E6F206661766F72656365E7
:10283C006E206C6120726570726F64756363694F92
:10284C006E20646520626163746572696173206EC9
:10285C006F63697661732070617261206C612073A3
:10286C00616C75642E00616C6572746154656D7079
:10287C0000566F6C7665722061207065726D69749C
:10288C006972206C61206465736361726761206496
:10289C006520616775612E005961206E6F2065732C
:1028AC00206E656365736172696F206578747261FF
:1028BC006572207265736964756F732E00616C6547
:1028CC0072746145787472616363696F6E41677588
:1028DC006100456C206167756120616820767565C3
:1028EC006C746F206120736572206170746120704C
:1028FC0061726120656C20636F6E73756D6F2E0055
:10290C00616C65727461436F6E73756D6F41677541
:10291C00610056657274657220736F6C7563696FB4
:10292C006E2061636964612F616C63616C696E61B7
:10293C00207061726120726567756C617220656CC4
:10294C002050482E004C6F73206E6976656C657351
:10295C002064652074656D70657261747572612098
:10296C0061637475616C6573206661766F72656303
:10297C00656E206C6120726570726F64756363693B
:10298C004F6E2064652062616374657269617320A7
:10299C006E6F63697661732070617261206C612067
:1029AC0073616C75642E0050726F68696269722075
:1029BC00646573636172676120646520616775612A
:1029CC002E00457874726165722072657369647546
:1029DC006F732E0041677561206E6F20617074619A
:1029EC00207061726120656C20636F6E73756D6F02
:0229FC002E00AB
:00000001FF
