:100000000C9473000C949B000C949B000C949B002C
:100010000C949B000C949B000C949B000C94250763
:100020000C949B000C949B000C949B000C949B00E4
:100030000C949B000C949B000C949B000C949B00D4
:100040000C94DB060C949B000C94A7070C9481077E
:100050000C949B000C949B000C949B000C949B00B4
:100060000C949B000C949B00005EBCE2613FDD831E
:10007000C29C7E20A3FD1F41009D23BE46DB65F888
:100080008C11AF32CA57E974020000000024002727
:10009000002A0000000000250028002B00000000BE
:1000A0000800020100000304070000000000000037
:1000B00000000000002300260029000404040404BA
:1000C0000404040202020202020303030303030105
:1000D00002040810204080010204081020010204DC
:1000E00008102000D90711241FBECFEFD8E0DEBFD3
:1000F000CDBF22E0ACE7B1E001C01D92A137B2074D
:10010000E1F711E0A0E0B1E0E2E3F4E202C0059023
:100110000D92AC37B107D9F710E0C3E7D0E004C0C7
:100120002197FE010E941F10C237D107C9F70E9414
:100130004F080C9417120C94000090E0FC01E35659
:10014000FF4F2491FC01E153FF4F3491FC01E55432
:10015000FF4FE491EE23C9F0222339F0233001F15F
:10016000A8F4213019F1223029F1F0E0EE0FFF1F41
:10017000ED56FF4FA591B4918FB7F894EC916111B2
:1001800026C030953E233C938FBF08952730A9F0B9
:100190002830C9F0243049F7809180008F7D03C05A
:1001A000809180008F7780938000DFCF84B58F7738
:1001B00084BDDBCF84B58F7DFBCF8091B0008F777E
:1001C0008093B000D2CF8091B0008F7DF9CF3E2BCD
:1001D000DACFCF93DF9390E0FC01E153FF4F2491FE
:1001E00085549F4FFC0184918823D1F090E0880FC3
:1001F000991FFC01E757FF4FA591B491FC01ED5603
:10020000FF4FC591D49161110EC09FB7F8948C91A6
:10021000E22FE0958E238C932881E223E8839FBF11
:10022000DF91CF9108958FB7F894EC91E22BEC9386
:100230008FBFF6CF8E3008F08E50806480937C00A4
:1002400080917A00806480937A0080917A0086FDA4
:10025000FCCF809178009091790008953FB7F89491
:100260008091A7019091A801A091A901B091AA0144
:1002700026B5A89B05C02F3F19F00196A11DB11D01
:100280003FBFBA2FA92F982F8827BC01CD01620F3D
:10029000711D811D911D42E0660F771F881F991FF8
:1002A0004A95D1F708958F929F92AF92BF92CF92C5
:1002B000DF92EF92FF926B017C010E942E014B01B5
:1002C0005C01C114D104E104F104B9F00E942E01D3
:1002D000681979098A099B09683E7340810591056F
:1002E00080F321E0C21AD108E108F10888EE880EF7
:1002F00083E0981EA11CB11CE4CFFF90EF90DF902B
:10030000CF90BF90AF909F908F90089590910001F3
:1003100089130BC0E8E8F0E0E4919FEF90930001AF
:10032000E13049F028F0E23061F060E00C949D008B
:1003300010926E00FACF90916F009D7F90936F00A6
:10034000F4CF909170009D7F9093700091E0909316
:10035000B0009091B100987F94609093B10010929A
:10036000B300E3CFAF92BF92CF92DF92EF92FF92B2
:100370000F931F93CF93DF936C017B018B01040FCD
:10038000151FEB015E01AE18BF08C017D10759F069
:100390006991D601ED91FC910190F081E02DC601AB
:1003A0000995892B79F7C501DF91CF911F910F91A5
:1003B000FF90EF90DF90CF90BF90AF900895FC0139
:1003C000538D448D252F30E0842F90E0821B930BBA
:1003D000541710F0CF96089501970895FC01918D60
:1003E000828D981761F0A28DAE0FBF2FB11D5D9663
:1003F0008C91928D9F5F9F73928F90E008958FEF05
:100400009FEF0895FC01918D828D981731F0828DB8
:10041000E80FF11D858D90E008958FEF9FEF08950F
:10042000FC01918D228D892F90E0805C9F4F821B73
:1004300091098F73992708958BEA91E00E94100229
:1004400021E0892B09F420E0822F089580E090E0DC
:10045000892B29F00E941C0281110C940000089540
:10046000FC01A48DA80FB92FB11DA35ABF4F2C9129
:10047000848D90E001968F739927848FA689B78920
:100480002C93A089B1898C91837080648C93938D17
:10049000848D981306C00288F389E02D80818F7DBA
:1004A00080830895EF92FF920F931F93CF93DF9372
:1004B000EC0181E0888F9B8D8C8D98131AC0E889A0
:1004C000F989808185FF15C09FB7F894EE89FF896F
:1004D0006083E889F98980818370806480839FBF0D
:1004E00081E090E0DF91CF911F910F91FF90EF900D
:1004F0000895F62E0B8D10E00F5F1F4F0F7311271D
:10050000E02E8C8D8E110CC00FB607FCFACFE88957
:10051000F989808185FFF5CFCE010E943002F1CFAD
:10052000EB8DEC0FFD2FF11DE35AFF4FF0829FB7CB
:10053000F8940B8FEA89FB8980818062CFCFCF93BB
:10054000DF93EC01888D8823B9F0AA89BB89E889FB
:10055000F9898C9185FD03C0808186FD0DC00FB6A1
:1005600007FCF7CF8C9185FFF2CF808185FFEDCF1F
:10057000CE010E943002E9CFDF91CF910895DC01D6
:1005800080E0615090F09D919827E92FEF70F0E0A6
:10059000E859FF4F2491E92FE295EF70F0E0E85819
:1005A000FF4FE491822F8E27ECCF0895DC012C9130
:1005B0001196ED91FC91F8948181822B8183928137
:1005C000322F30959323928387E090E00197F1F7E3
:1005D00081818323818383E290E00197F1F7908109
:1005E0007894EFECF0E03197F1F7922381E009F491
:1005F00080E00895FC0190810180F281E02D292F97
:10060000209560FF14C0F8948281822382838181C7
:10061000892B8183A3E2B0E01197F1F78281982BB7
:100620009283789487ED90E00197F1F70895F8941C
:100630008281822382838181892B8183AFEFB0E025
:100640001197F1F78281982B928378948FE090E054
:10065000EBCFDF92EF92FF920F931F93CF93DF9335
:10066000EC01D62EE42E08E010E0FF24F39461E0C4
:100670008D2D8F2109F460E0CE010E94FA02FF0C5B
:1006800001501109A1F7E11010C0F894E981FA8135
:1006900091818881809589238183E981FA81928182
:1006A00088818095892382837894DF91CF911F91EF
:1006B0000F91FF90EF90DF900895FC0190810180F1
:1006C000F281E02DF8948181292F20958223818366
:1006D00078943DE743E050E0315029F1DA01119779
:1006E000F1F780818923C1F3F89482818223828388
:1006F0008181892B81837894ABE7B7E01197F1F77B
:10070000F894818182238183A3E1B1E01197F1F70D
:100710008081982381E009F080E07894E3E6F6E0B8
:100720003197F1F7089580E00895FC0101900020D1
:10073000E9F73197AF01481B590BBC018BEA91E0F7
:100740000C94B2018F929F92AF92BF920F931F931E
:10075000CF93DF93CDB7DEB7A1970FB6F894DEBF86
:100760000FBECDBF19A2423008F44AE08E010F5DE2
:100770001F4F842E912CB12CA12CA50194010E9415
:10078000E90FE62FB901CA01EA30F4F4E05DD801BF
:10079000EE938D01232B242B252B79F790E080E01D
:1007A000109719F0CD010E949503A1960FB6F89409
:1007B000DEBF0FBECDBFDF91CF911F910F91BF90D4
:1007C000AF909F908F900895E95CE1CFCF93DF9336
:1007D0000E949503EC018FE191E00E9495038C0F3C
:1007E0009D1FDF91CF9108954F925F926F927F92FC
:1007F0008F929F92AF92BF92CF92DF92EF92FF9231
:100800000F931F93CF936B017C01742EAC019B015E
:100810000E94D00F882399F082E291E0CF911F913E
:100820000F91FF90EF90DF90CF90BF90AF909F908F
:100830008F907F906F905F904F900C94950346013E
:100840005701E894B7F82FEF3FEF4FE75FE7C50197
:10085000B4010E94D00F81110DC02FEF3FEF4FE781
:100860005FE7C501B4010E94620D18161CF486E210
:1008700091E0D4CF2FEF3FEF4FE75FE4C701B60120
:100880000E94CB0F18161CF48AE291E0C7CF2FEF1D
:100890003FEF4FE75FECC701B6010E94620D87FD95
:1008A000F3CF20E030E0A901C701B6010E94620D3C
:1008B00010E000E087FF0AC06DE28BEA91E00E9441
:1008C00052028C01F7FAF094F7F8F094C0E060E07F
:1008D00070E080E09FE37C1641F020E030E040E2F1
:1008E00051E40E942A0FCF5FF6CFA70196010E9424
:1008F000BE0E2B013C010E949C0F4B015C014AE0A3
:100900000E94A2037C01E00EF11ECC23C1F1C501BF
:10091000B4010E94670D9B01AC01C301B2010E94AA
:10092000BD0E4B015C016EE28BEA91E00E94520227
:10093000E80EF91EC15018F120E030E040E251E429
:10094000C501B4010E94C80D2B013C010E949C0FFF
:100950004B01B12CA12C4AE0C501B4010E94A203B5
:10096000E80EF91EC501B4010E94670D9B01AC01A0
:10097000C301B2010E94BD0E4B015C01DBCFC70178
:10098000CF911F910F91FF90EF90DF90CF90BF908C
:10099000AF909F908F907F906F905F904F90089551
:1009A0004F925F926F927F928F929F92AF92BF927F
:1009B000CF92DF92EF92FF920F931F93CF93DF932B
:1009C000CDB7DEB761970FB6F894DEBF0FBECDBFCF
:1009D000E0915102F0915202138615861486128618
:1009E0001186108617821682158214821382009156
:1009F000510210915202D8011D968C918823F9F072
:100A0000F80113861586148660E070E08EEF92EC94
:100A100061960FB6F894DEBF0FBECDBFDF91CF91C8
:100A20001F910F91FF90EF90DF90CF90BF90AF900C
:100A30009F908F907F906F905F904F900895C80126
:100A40000E945D0381110AC0D8011B961C921B975E
:100A50001D961C921D971C961C92D6CF40E060EF0D
:100A6000C8010E942903DD24D394C12CB12CEE24AB
:100A7000E394C8010E94D602F82EC8010E94D60253
:100A8000B1E0FB1283C0813009F0A2C0E0E4EE15B2
:100A900008F0B6CFD8011B96BC921B97B11003C0CB
:100AA00081E01D968C93F8018381882309F4A8CFF7
:100AB00033967E014AE0E40EF11C055F1F4FD7011B
:100AC000670181918D930E171F07D9F767E0C70162
:100AD0000E94BF029989891397CF8091510290910A
:100AE00052020E945D03882309F48ECF00915102C7
:100AF0001091520240E065E5C8010E9429035701A8
:100B000058E0A50EB11CD7016D917D0140E0C801F0
:100B10000E942903EA14FB04B1F740E06EEB8091D8
:100B20005102909152020E9429038E010F5F1F4FC4
:100B3000780128018090510290905202F8E06F2EC7
:100B4000712CB12CAA24A394C4010E94D602811155
:100B5000BA28AA0CB1E06B1A7108B1F7F701B1928B
:100B60007F01EC15FD0531F7809151029091520201
:100B70000E945D03813009F047CFD8018D918D012E
:100B800081113DC0AE15BF05C1F73ECFEC2DF0E0A1
:100B9000F81214C0D8011B968C911B97E816B0F47C
:100BA000AE0FBF1F13968C918D2191F4F12CB8E0FC
:100BB000BE1518F0D8011C96EC92BE2CE00FF11F68
:100BC00083819D2D9095892383830AC08E11EECF5A
:100BD000F801EC0DF11D83818D298383FF24F394AB
:100BE0006F2DC8010E94FA02E394DD0C19F4C3943E
:100BF000DD24D394B7E0BC1508F03BCF47CF68E0C5
:100C0000C2010E94BF0299858913FECE6A8170E0FD
:100C1000762F6627770F770F770F2981B8E02B9F04
:100C200090011124262B372B8A858031E1F46885C9
:100C30006623C9F070E08F81FB01E81BF109CF0149
:100C40009695982F8827979587950E94D50FCB0169
:100C50008097B90153E0660F771F5A95E1F76078E6
:100C60009C01260F371F2138F4EE3F070CF4CCCE41
:100C7000B901330F880B990B0E94690D20E030E019
:100C800040E05CE30E94C80DC3CECF93DF93EC013C
:100C900088819981009711F00E94C11019821882F1
:100CA0001D821C821B821A82DF91CF910895FC0164
:100CB00080819181009711F00C94C11008950F93D9
:100CC0001F93CF93DF93EC0188819981009759F0AE
:100CD0002A813B812617370730F081E0DF91CF91E1
:100CE0001F910F9108958B016F5F7F4F0E944A11F2
:100CF000009759F0998388831B830A832C813D8157
:100D0000232B59F7FC011082E8CF80E0E7CFEF9268
:100D1000FF920F931F93CF93DF93EC01FB01E080D1
:100D2000F180E114F10411F104811581011511051F
:100D3000A9F08C819D81080F191FB801CE010E9476
:100D40005F06882399F0288139818C819D81B701C4
:100D5000820F931F0E9410121D830C83CE01DF911E
:100D6000CF911F910F91FF90EF900895CE010E94B7
:100D70004506F4CFEF92FF920F931F93CF93DF932B
:100D8000EC017B018A01BA010E945F0681110BC050
:100D9000CE010E944506CE01DF91CF911F910F91A8
:100DA000FF90EF9008951D830C83B701888199818E
:100DB0000E941012F0CF1F920F920FB60F921124C3
:100DC0002F933F938F939F93AF93BF938091A301F2
:100DD0009091A401A091A501B091A6013091A2012A
:100DE00023E0230F2D3758F50196A11DB11D209347
:100DF000A2018093A3019093A401A093A501B093B5
:100E0000A6018091A7019091A801A091A901B0919C
:100E1000AA010196A11DB11D8093A7019093A8017D
:100E2000A093A901B093AA01BF91AF919F918F9117
:100E30003F912F910F900FBE0F901F90189526E8AD
:100E4000230F0296A11DB11DD2CF1F920F920FB694
:100E50000F9211242F933F934F935F936F937F9340
:100E60008F939F93AF93BF93EF93FF9380918101F3
:100E700090918201A0918301B0918401892B8A2BEA
:100E80008B2BD1F190917C01E0917D01F0917E015D
:100E90008081892780838091810190918201A09136
:100EA0008301B0918401181619061A061B069CF4DA
:100EB0008091810190918201A0918301B091840180
:100EC0000197A109B1098093810190938201A093B8
:100ED0008301B0938401FF91EF91BF91AF919F91F6
:100EE0008F917F916F915F914F913F912F910F90D3
:100EF0000FBE0F901F901895809100010E948601EF
:100F0000EACF1F920F920FB60F9211242F933F93A7
:100F10004F935F936F937F938F939F93AF93BF9301
:100F2000EF93FF938BEA91E00E943002FF91EF91E3
:100F3000BF91AF919F918F917F916F915F914F91F1
:100F40003F912F910F900FBE0F901F9018951F92F9
:100F50000F920FB60F9211242F938F939F93EF93BD
:100F6000FF93E091BB01F091BC018081E091C10150
:100F7000F091C20182FD1BC090818091C4018F5FFE
:100F80008F732091C501821741F0E091C401F0E018
:100F9000E555FE4F958F8093C401FF91EF919F918E
:100FA0008F912F910F900FBE0F901F9018958081F9
:100FB000F4CFEBEAF1E01382128288EE93E0A0E036
:100FC000B0E084839583A683B78381E191E0918328
:100FD000808385EC90E09587848784EC90E0978708
:100FE000868780EC90E0918B808B81EC90E0938BF6
:100FF000828B82EC90E0958B848B86EC90E0978BD3
:10100000868B118E128E138E148E60E082E10E9408
:10101000E900E1EEF0E0E491AFE5B2E0EC93EDEC55
:10102000F0E0E491F0E0EE0FFF1FEF54FF4F8591E9
:10103000949112969C938E9311971B961C921B97DA
:101040001D961C921D971C961C921C971A961C921A
:101050001A9719961C92199718961C92189717961A
:101060001C92179716961C92169715961C92159718
:1010700014961C92149713961C921397E8E4F2E0CE
:10108000168A158A1182B287A1871782108610826C
:1010900089E0838381E08483858386830895CF9369
:1010A000DF93CDB7DEB768970FB6F894DEBF0FBEFB
:1010B000CDBF789484B5826084BD84B5816084BDE1
:1010C00085B5826085BD85B5816085BD80916E00E6
:1010D000816080936E001092810080918100826017
:1010E0008093810080918100816080938100809154
:1010F00080008160809380008091B1008460809343
:10110000B1008091B00081608093B00080917A003E
:10111000846080937A0080917A00826080937A0064
:1011200080917A00816080937A0080917A00806853
:1011300080937A001092C10061E08DE00E94E90086
:10114000E091BB01F091BC0182E08083E091B701A6
:10115000F091B8011082E091B901F091BA0180E1FB
:1011600080831092C301E091BF01F091C00186E03D
:101170008083E091BD01F091BE0180818061808318
:10118000E091BD01F091BE01808188608083E09193
:10119000BD01F091BE01808180688083E091BD0136
:1011A000F091BE0180818F7D8083412C58E2552EC5
:1011B0005BEE652E56E4752E1E0127E0220E311CD3
:1011C00088248A94982C5401809151029091520263
:1011D0000E945D0340E06CEC8091510290915202BC
:1011E0000E9429034091480264E480915102909149
:1011F00052020E94290380914C02882391F1E091D0
:101200004B0280914D02882309F4A0C080914802CE
:1012100081119CC08FB7F894C090A301D090A40115
:10122000E090A501F090A6018FBF809151029091AE
:1012300052020E94D6028130A1F02FB7F89480911B
:10124000A3019091A401A091A501B091A6012FBF87
:101250008C199D09AE09BF098E3E9240A105B105CA
:1012600020F30E94D0040E94D00442E00E94F403C4
:101270008EE291E00E94E60364E670E080E090E098
:101280000E94530181E10E941A016FEF73E0681B15
:10129000790B072E000C880B990B0E94690D27ED26
:1012A00033E242E952E40E942A0F60939E01709358
:1012B0009F018093A0019093A10142E00E94F4035A
:1012C0008FE191E00E94950368EE73E080E090E08A
:1012D0000E94530110929A0110929B0110929C015E
:1012E00010929D011092990110919901C0909A015C
:1012F000D0909B01E0909C01F0909D0114360CF081
:101300004DC083E10E941A01BC01990F880B990B13
:101310000E94690D20E030E040EA50E40E94C80DD0
:1013200020E030EC4FE754E40E942A0FA701960119
:101330000E94BE0E60939A0170939B0180939C0162
:1013400090939D011F5F10939901CECFE9508EEECF
:1013500092E0E33038F4F0E0EE0FFF1FE95FFE4F5C
:10136000808191816C01990FEE08FF0880914902FC
:10137000882329F060E080914A020E949D00C70105
:10138000B6010E94530180914902882309F469CF74
:1013900061E080914A020E949D0063CF20E030E02E
:1013A00048EC52E4C701B6010E942A0F20E030EC5D
:1013B0004FE754E40E94C80D20E030E040EA50E4DA
:1013C0000E942A0F6B017C01C0929A01D0929B016E
:1013D000E0929C01F0929D0120E030EC47E654E45D
:1013E0000E94CB0F87FD08C01092950110929601C4
:1013F000109297011092980120E030EC47E654E4F7
:10140000C701B6010E94620D87FF26C020E030E8C8
:1014100041E554E4C701B6010E94CB0F87FD1CC013
:1014200020E030E841E554E4C701B6010E94BD0E5A
:1014300020E030E040EF51EC0E94C80D20E030E8A1
:101440004BE355E40E94BE0E6093950170939601A4
:10145000809397019093980120E030E048E454E4B1
:10146000C701B6010E94CB0F87FD16C020E030E413
:1014700041E554E4C701B6010E94620D181664F0FC
:1014800080E090E4A5EBB5E48093950190939601FC
:10149000A0939701B093980120E030E444E454E431
:1014A000C701B6010E94CB0F87FD16C020E030E0D7
:1014B00048E454E4C701B6010E94620D87FF0CC0E6
:1014C00080E090E2ADEFB5E48093950190939601B2
:1014D000A0939701B093980120E030E440E454E4F5
:1014E000C701B6010E94CB0F87FD16C020E030E493
:1014F00044E454E4C701B6010E94620D87FF0CC0AA
:1015000080E090E0AFE2B6E480939501909396017D
:10151000A0939701B093980120E030E44FE354E4A6
:10152000C701B6010E94CB0F87FD16C020E030E452
:1015300040E454E4C701B6010E94620D87FF0CC06D
:1015400080E098EBA8E8B6E480939501909396012B
:10155000A0939701B093980120E030EC4EE354E45F
:10156000C701B6010E94CB0F1816B4F420E030E496
:101570004FE354E4C701B6010E94620D87FF0CC01F
:1015800080E090EFA2EDB6E48093950190939601F0
:10159000A0939701B093980120E030E841E454E42F
:1015A000C701B6010E94CB0F181694F420E030E872
:1015B0004EE354E4C701B6010E94620D181644F0D0
:1015C0004092950150929601609297017092980115
:1015D00020E030E841E454E4C701B6010E94620D06
:1015E000181664F080E098E0ADE1B7E480939501CF
:1015F00090939601A0939701B09398016091950103
:1016000070919601809197019091980142E00E941B
:10161000F40382E391E00E94E60364E670E080E078
:1016200090E00E9453011092910110929201109249
:101630009301109294011092990110919901C09018
:101640009101D0909201E0909301F09094011436B2
:101650002CF583E00E941A01BC01990F880B990BAD
:101660000E94690D20E030E040EA50E40E94C80D7D
:1016700020E030EC4FE754E40E942A0FA7019601C6
:101680000E94BE0E6093910170939201809393012A
:10169000909394011F5F10939901CFCF20E030E029
:1016A00048EC52E4C701B6010E942A0F6B017C018D
:1016B000C0929101D0929201E0929301F092940134
:1016C0002DEC3CEC4CE450E40E94CB0F87FD08C0AD
:1016D00010928D0110928E0110928F011092900144
:1016E0002DEC3CEC4CE450E4C701B6010E94620DC5
:1016F00087FF1FC020E030E0A901C701B6010E94AA
:10170000CB0F87FD16C020E038EB48E854ECC7014A
:10171000B6010E94C80D20E030EC4AE555E40E9475
:10172000BE0E60938D0170938E0180938F01909314
:10173000900120E030E0A901C701B6010E94620DCE
:1017400087FF0CC080E090ECAAE5B5E480938D01A2
:1017500090938E01A0938F01B093900160918D01C1
:1017600070918E0180918F019091900142E00E94D2
:10177000F40388E391E00E94E6036CED75E080E0FD
:1017800090E00E94530164EF71E080E090E00E94DD
:101790005301C0909E01D0909F01E090A001F09075
:1017A000A10120E030E040EC50E4C701B6010E9406
:1017B000620D87FD0BC020E030E040E151E4C7013D
:1017C000B6010E94CB0F18160CF070C18091000179
:1017D000833031F5E8E8F0E0149117FDC3C061E013
:1017E00083E00E94E900112309F48CC0123009F053
:1017F0009DC08091B100887F86608093B10085E8AC
:101800008093B3008092810190928201A092830123
:10181000B092840180917000826080937000A2C0B9
:101820008F3F09F09FC083E080930001E8E8F0E07B
:1018300014911F3F09F496C0113021F150F012307D
:1018400009F43EC017FD8EC061E083E00E94E9000C
:10185000CDCF14BC15BC84B5826084BD85B58160D4
:1018600085BDEEEBF0E0E491F0E0EE0FFF1FED56EA
:10187000FF4F85919491E2EDF0E0E491E0938001D7
:1018800010E0ADCF10928000109281008091810015
:1018900088608093810080918100816080938100C5
:1018A000EEEBF0E0E491F0E0EE0FFF1FED56FF4F9E
:1018B00085919491E2EDF0E0E491E0937F018FCF88
:1018C0001092B0001092B1008091B00082608093BD
:1018D000B0008091B10081608093B100EEEBF0E048
:1018E000E491F0E0EE0FFF1FED56FF4F85919491CC
:1018F00090937E0180937D01E2EDF0E0E491E0932E
:101900007C016DCF85B5887F846085BD85E887BD06
:101910008092890190928A01A0928B01B0928C01F1
:1019200080916E00826080936E001CC0113009F0BF
:10193000A4C080918100887F81608093810081EBC9
:1019400096E8909389008093880080928501909218
:101950008601A0928701B092880180916F00826019
:1019600080936F0061E08DE00E94E90061E08DE00E
:101970000E949D001E861D86188A1F861A8A198A53
:1019800042E350E06DE371E0CE010D960E94BA068D
:101990001C8A1B8A1E8A1D8A188E1F8A48E050E006
:1019A00060E771E0CE0143960E94BA061A8219825E
:1019B0001C821B821E821D8241E050E069E771E0BB
:1019C000CE0101960E94BA06BE016D5E7F4FCE0128
:1019D00001960E9487068C01DC011496ED90FC9024
:1019E000BFEFEB1AFB0AB7010E945F0681114DC0E1
:1019F000C8010E944506BE01635F7F4FC8010E9477
:101A0000870618861F821A8619861C861B868215F1
:101A1000930559F0FC01608171816115710529F010
:101A200044815581C1010E94BA06CE0101960E94EF
:101A300057064B855C856F8178858BEA91E00E9423
:101A4000B2018FE191E00E949503C1010E94570607
:101A5000CE0143960E945706CE010D960E9457066E
:101A600080E090E0892B09F4AFCB0E941C02882310
:101A700009F4A2CB0E9400009FCB123021F011117B
:101A800071CF81EB44CF81EBBBCEF8012081318156
:101A90008481958169E771E0820F931F0E94101283
:101AA000D8011596FC92EE921497A5CF83E00E9480
:101AB000860161E08DE00E94E90060E08DE00E9417
:101AC0009D00CECF0E94A40D08F481E00895E89413
:101AD00009C097FB3EF490958095709561957F4F76
:101AE0008F4F9F4F9923A9F0F92F96E9BB27939524
:101AF000F695879577956795B795F111F8CFFAF434
:101B0000BB0F11F460FF1BC06F5F7F4F8F4F9F4F64
:101B100016C0882311F096E911C0772321F09EE8C2
:101B2000872F762F05C0662371F096E8862F70E028
:101B300060E02AF09A95660F771F881FDAF7880F02
:101B40009695879597F90895990F0008550FAA0B58
:101B5000E0E8FEEF16161706E807F907C0F01216C0
:101B60001306E407F50798F0621B730B840B950BC3
:101B700039F40A2661F0232B242B252B21F4089518
:101B80000A2609F4A140A6958FEF811D811D0895B5
:101B90000E94DB0D0C944C0E0E943E0E38F00E9409
:101BA000450E20F0952311F00C94350E0C943B0E4D
:101BB00011240C94800E0E945D0E70F3959FC1F36A
:101BC000950F50E0551F629FF001729FBB27F00DEB
:101BD000B11D639FAA27F00DB11DAA1F649F662740
:101BE000B00DA11D661F829F2227B00DA11D621F8F
:101BF000739FB00DA11D621F839FA00D611D221F49
:101C0000749F3327A00D611D231F849F600D211D2C
:101C1000822F762F6A2F11249F5750409AF0F1F0AF
:101C200088234AF0EE0FFF1FBB1F661F771F881F18
:101C300091505040A9F79E3F510580F00C94350E0D
:101C40000C94800E5F3FE4F3983ED4F3869577952D
:101C50006795B795F795E7959F5FC1F7FE2B880FBE
:101C6000911D9695879597F9089597F99F6780E854
:101C700070E060E008959FEF80EC089500240A94DE
:101C80001616170618060906089500240A94121657
:101C90001306140605060895092E0394000C11F48A
:101CA000882352F0BB0F40F4BF2B11F460FF04C037
:101CB0006F5F7F4F8F4F9F4F089557FD9058440F90
:101CC000551F59F05F3F71F04795880F97FB991F9B
:101CD00061F09F3F79F08795089512161306140658
:101CE000551FF2CF4695F1DF08C0161617061806E5
:101CF000991FF1CF86957105610508940895E894C0
:101D0000BB2766277727CB0197F908952F923F923B
:101D10004F925F926F927F928F929F92AF92BF92FB
:101D2000CF92DF92EF92FF920F931F93CF93DF93A7
:101D3000CDB7DEB7CA1BDB0B0FB6F894DEBF0FBE04
:101D4000CDBF09942A88398848885F846E847D8451
:101D50008C849B84AA84B984C884DF80EE80FD8053
:101D60000C811B81AA81B981CE0FD11D0FB6F894C9
:101D7000DEBF0FBECDBFED0108955058BB27AA2787
:101D80000E94D50E0C944C0E0E943E0E38F00E941C
:101D9000450E20F039F49F3F19F426F40C943B0EC5
:101DA0000EF4E095E7FB0C94350EE92F0E945D0ED2
:101DB00058F3BA17620773078407950720F079F480
:101DC000A6F50C947F0E0EF4E0950B2EBA2FA02DE5
:101DD0000B01B90190010C01CA01A0011124FF27D8
:101DE000591B99F0593F50F4503E68F11A16F040D3
:101DF000A22F232F342F4427585FF3CF46953795D2
:101E00002795A795F0405395C9F77EF41F16BA0B96
:101E1000620B730B840BBAF09150A1F0FF0FBB1F44
:101E2000661F771F881FC2F70EC0BA0F621F731F8D
:101E3000841F48F4879577956795B795F7959E3FEA
:101E400008F0B0CF9395880F08F09927EE0F97957B
:101E5000879508950E943E0F0C944C0E0E94450EEB
:101E600058F00E943E0E40F029F45F3F29F00C9498
:101E7000350E51110C94800E0C943B0E0E945D0E99
:101E800068F39923B1F3552391F3951B550BBB27A9
:101E9000AA2762177307840738F09F5F5F4F220FEE
:101EA000331F441FAA1FA9F335D00E2E3AF0E0E8E5
:101EB00032D091505040E695001CCAF72BD0FE2F2F
:101EC00029D0660F771F881FBB1F261737074807C3
:101ED000AB07B0E809F0BB0B802DBF01FF2793587B
:101EE0005F4F3AF09E3F510578F00C94350E0C94FC
:101EF000800E5F3FE4F3983ED4F38695779567951F
:101F0000B795F7959F5FC9F7880F911D96958795AF
:101F100097F90895E1E0660F771F881FBB1F6217CE
:101F200073078407BA0720F0621B730B840BBA0B8C
:101F3000EE1F88F7E09508950E94650E88F09F5780
:101F400098F0B92F9927B751B0F0E1F0660F771FDD
:101F5000881F991F1AF0BA95C9F714C0B13091F0D3
:101F60000E947F0EB1E008950C947F0E672F782FAA
:101F70008827B85F39F0B93FCCF386957795679598
:101F8000B395D9F73EF490958095709561957F4F04
:101F90008F4F9F4F08950E94A40D08F48FEF08956E
:101FA0000E94A40D880B990B089597FB072E16F439
:101FB000009407D077FD09D00E940B1007FC05D0D4
:101FC0003EF4909581959F4F0895709561957F4F50
:101FD0000895A1E21A2EAA1BBB1BFD010DC0AA1F6A
:101FE000BB1FEE1FFF1FA217B307E407F50720F082
:101FF000A21BB30BE40BF50B661F771F881F991FFD
:102000001A9469F760957095809590959B01AC0145
:10201000BD01CF010895AA1BBB1B51E107C0AA1F38
:10202000BB1FA617B70710F0A61BB70B881F991F79
:102030005A95A9F780959095BC01CD010895EE0FB2
:10204000FF1F0590F491E02D09940F931F93CF93F8
:10205000DF938230910510F482E090E0E0916F020E
:10206000F091700230E020E0B0E0A0E0309799F409
:102070002115310509F44AC0281B390B24303105DC
:10208000D8F58A819B816115710589F1FB019383E4
:102090008283FE0111C04081518102811381481762
:1020A0005907E0F04817590799F4109761F0129614
:1020B0000C93129713961C933296CF01DF91CF9118
:1020C0001F910F91089500936F0210937002F4CF47
:1020D0002115310551F04217530738F0A901DB01F2
:1020E0009A01BD01DF01F801C1CFEF01F9CF909353
:1020F000700280936F02CDCFFE01E20FF31F819338
:1021000091932250310939832883D7CF20916D02D2
:1021100030916E02232B41F4209103013091040190
:1021200030936E0220936D022091010130910201E3
:102130002115310541F42DB73EB74091050150916D
:102140000601241B350BE0916D02F0916E02E2173F
:10215000F307A0F42E1B3F0B2817390778F0AC01CA
:102160004E5F5F4F2417350748F04E0F5F1F5093A7
:102170006E0240936D02819391939FCFF0E0E0E077
:102180009CCFCF93DF930097E9F0FC013297138245
:102190001282A0916F02B0917002ED0130E020E058
:1021A0001097A1F420813181820F931F20916D023D
:1021B00030916E022817390709F061C0F0936E0262
:1021C000E0936D02DF91CF910895EA01CE17DF070A
:1021D000E8F54A815B819E0141155105B1F7E9019E
:1021E000FB83EA8349915991C40FD51FEC17FD0772
:1021F00061F4808191810296840F951FE901998392
:102200008883828193819B838A83F0E0E0E0129649
:102210008D919C9113970097B9F52D913C91119751
:10222000CD010296820F931F20916D0230916E02B4
:102230002817390739F6309751F51092700210922D
:102240006F02B0936E02A0936D02BCCFD383C283A2
:1022500040815181840F951FC817D90761F44E5FE3
:102260005F4F88819981480F591F518340838A812C
:102270009B81938382832115310509F0B0CFF093C0
:102280007002E0936F029ECFFD01DC01C0CF13828C
:102290001282D7CFB0E0A0E0E0E5F1E10C94880E27
:1022A0008C01009751F4CB010E9425108C01C801CC
:1022B000CDB7DEB7E0E10C94A40EFC01E60FF71FEA
:1022C0009C0122503109E217F30708F49DC0D9019F
:1022D000CD91DC911197C617D70798F0C530D1057D
:1022E00030F3CE0104978617970708F3C61BD70B68
:1022F0002297C193D1936D937C93CF010E94C1101B
:10230000D6CF5B01AC1ABD0A4C018C0E9D1EA0916C
:102310006F02B0917002512C412CF12CE12C1097DE
:1023200031F580916D0290916E028815990509F042
:102330005CC04616570608F058C080910101909184
:102340000201009741F48DB79EB74091050150916D
:102350000601841B950BE817F90708F055C0F093A8
:102360006E02E0936D02F90171836083A0CF8D91BD
:102370009C91119712966C90129713967C901397DC
:10238000A815B90559F56C0142E0C40ED11CCA1458
:10239000DB0420F1AC014A195B09DA0112961597AA
:1023A00080F06282738251834083D9016D937C9364
:1023B000E114F10471F0D7011396FC93EE93129798
:1023C00076CF22968C0F9D1FF90191838083F301B4
:1023D000EFCFF0937002E0936F0269CF4816590671
:1023E00008F42C017D01D3019ACFCB010E94251066
:1023F0007C01009749F0AE01B8010E940712C801A4
:102400000E94C110870153CF10E000E050CFFB01C4
:10241000DC0102C001900D9241505040D8F7089560
:10242000FB01DC0101900D920020E1F70895F89482
:02243000FFCFDC
:10243200FF0000710280005E00BC00770100000016
:10244200005202B201DF019F021002EE0102020DF0
:102452000A006E616E00696E66006F766600C2B039
:10246200430075532F636D00204E5455005665721C
:1024720074657220736F6C756369C3B36E20616398
:102482006964612F616C63616C696E612070617255
:102492006120726567756C617220656C20706800DE
:0C24A200616C61726D615048002F0000F9
:00000001FF
