:100000000C9472000C949A000C949A000C949A0030
:100010000C949A000C949A000C949A000C949A00F8
:100020000C949A000C949A000C949A000C949A00E8
:100030000C949A000C949A000C949A000C949A00D8
:100040000C9493040C949A000C9403050C94DD0416
:100050000C949A000C949A000C949A000C949A00B8
:100060000C949A000C949A00005EBCE2613FDD8320
:10007000C29C7E20A3FD1F41009D23BE46DB65F888
:100080008C11AF32CA57E974000000080002010069
:100090000003040700000000000000000000000052
:1000A000250028002B0000000000240027002A0063
:1000B00000000000230026002900040404040404B6
:1000C0000404020202020202030303030303010207
:1000D00004081020408001020408102001020408D6
:1000E0001020350511241FBECFEFD8E0DEBFCDBFF5
:1000F00011E0A0E0B1E0E2E8F5E102C005900D9268
:10010000A639B107D9F722E0A6E9B1E001C01D92F6
:10011000A136B207E1F710E0C2E7D0E004C02197B2
:10012000FE010E94B90AC137D107C9F70E94E20552
:100130000C94BF0A0C94000090E0FC01E857FF4FBC
:100140002491FC01E253FF4F3491FC01E654FF4F30
:10015000E491EE23C9F0222339F0233001F1A8F411
:10016000213019F1223029F1F0E0EE0FFF1FE456A3
:10017000FF4FA591B4918FB7F894EC91611126C00F
:1001800030953E233C938FBF08952730A9F0283047
:10019000C9F0243049F7809180008F7D03C08091A1
:1001A00080008F7780938000DFCF84B58F7784BD08
:1001B000DBCF84B58F7DFBCF8091B0008F778093AC
:1001C000B000D2CF8091B0008F7DF9CF3E2BDACF37
:1001D0003FB7F89480919B0190919C01A0919D0163
:1001E000B0919E0126B5A89B05C02F3F19F001963E
:1001F000A11DB11D3FBFBA2FA92F982F8827BC0181
:10020000CD01620F711D811D911D42E0660F771FA8
:10021000881F991F4A95D1F708958F929F92AF92A8
:10022000BF92CF92DF92EF92FF926B017C010E940E
:10023000E8004B015C01C114D104E104F104B9F000
:100240000E94E800681979098A099B09683E734091
:100250008105910580F321E0C21AD108E108F10877
:1002600088EE880E83E0981EA11CB11CE4CFFF909D
:10027000EF90DF90CF90BF90AF909F908F900895B8
:10028000AF92BF92CF92DF92EF92FF920F931F93A4
:10029000CF93DF936C017B018B01040F151FEB01E2
:1002A0005E01AE18BF08C017D10759F06991D60199
:1002B000ED91FC910190F081E02DC6010995892B0B
:1002C00079F7C501DF91CF911F910F91FF90EF90CA
:1002D000DF90CF90BF90AF900895FC01538D448D77
:1002E000252F30E0842F90E0821B930B541710F0E1
:1002F000CF96089501970895FC01918D828D9817EE
:1003000061F0A28DAE0FBF2FB11D5D968C91928DC5
:100310009F5F9F73928F90E008958FEF9FEF0895F6
:10032000FC01918D828D981731F0828DE80FF11DBF
:10033000858D90E008958FEF9FEF0895FC01918DDA
:10034000228D892F90E0805C9F4F821B91098F73D3
:10035000992708958FE991E00E949E0121E0892B61
:1003600009F420E0822F089580E090E0892B29F0A5
:100370000E94AA0181110C9400000895FC01A48D33
:10038000A80FB92FB11DA35ABF4F2C91848D90E0B7
:1003900001968F739927848FA689B7892C93A0899A
:1003A000B1898C91837080648C93938D848D981324
:1003B00006C00288F389E02D80818F7D80830895B7
:1003C000EF92FF920F931F93CF93DF93EC0181E0A5
:1003D000888F9B8D8C8D98131AC0E889F98980814C
:1003E00085FF15C09FB7F894EE89FF896083E8897F
:1003F000F98980818370806480839FBF81E090E071
:10040000DF91CF911F910F91FF90EF900895F62EFD
:100410000B8D10E00F5F1F4F0F731127E02E8C8D97
:100420008E110CC00FB607FCFACFE889F9898081DC
:1004300085FFF5CFCE010E94BE01F1CFEB8DEC0F11
:10044000FD2FF11DE35AFF4FF0829FB7F8940B8FF9
:10045000EA89FB8980818062CFCFCF93DF93EC0163
:10046000888D8823B9F0AA89BB89E889F9898C919C
:1004700085FD03C0808186FD0DC00FB607FCF7CF58
:100480008C9185FFF2CF808185FFEDCFCE010E9458
:10049000BE01E9CFDF91CF910895DC0180E061508A
:1004A00090F09D919827E92FEF70F0E0E859FF4F09
:1004B0002491E92FE295EF70F0E0E858FF4FE491C6
:1004C000822F8E27ECCF0895DC012C911196ED91AF
:1004D000FC91F8948181822B81839281322F309517
:1004E0009323928387E090E00197F1F78181832342
:1004F000818383E290E00197F1F790817894EFECAB
:10050000F0E03197F1F7922381E009F480E008955B
:10051000FC0190810180F281E02D292F209560FF60
:1005200014C0F8948281822382838181892B818304
:10053000A3E2B0E01197F1F78281982B928378942F
:1005400087ED90E00197F1F70895F8948281822376
:1005500082838181892B8183AFEFB0E01197F1F71E
:100560008281982B928378948FE090E0EBCFDF929A
:10057000EF92FF920F931F93CF93DF93EC01D62E50
:10058000E42E08E010E0FF24F39461E08D2D8F212C
:1005900009F460E0CE010E948802FF0C01501109AD
:1005A000A1F7E11010C0F894E981FA819181888166
:1005B000809589238183E981FA8192818881809560
:1005C000892382837894DF91CF911F910F91FF90BF
:1005D000EF90DF900895EF92FF920F931F93CF93C8
:1005E000DF938C017B0140E065E50E94B702E701E3
:1005F00088E0E80EF11C699140E0C8010E94B70252
:10060000CE15DF05C1F7DF91CF911F910F91FF90BC
:10061000EF900895FC0190810180F281E02DF89423
:100620008181292F20958223818378943DE743E0BF
:1006300050E0315029F1DA011197F1F780818923D7
:10064000C1F3F8948281822382838181892B818303
:100650007894ABE7B7E01197F1F7F89481818223A2
:100660008183A3E1B1E01197F1F78081982381E0C4
:1006700009F080E07894E3E6F6E03197F1F7089529
:1006800080E008956F927F928F929F92AF92BF9277
:10069000CF92DF92EF92FF920F931F93CF93DF934E
:1006A0008C01EB0180914502909146020E940A0361
:1006B000882309F43FC0B801809145029091460219
:1006C0000E94EB0240E06EEB809145029091460261
:1006D0000E94B7027E016E0189E0C80ED11C8E0116
:1006E000A0904502B090460288E0882E912C712C93
:1006F00066246394C5010E94640281117628660C09
:10070000E1E08E1A9108B1F7F80171928F01CE16CF
:10071000DF0631F780914502909146020E940A035C
:10072000813041F4F70181917F01811105C0E0170B
:10073000F107C1F790E008C068E0CE010E944D02C9
:1007400091E028852813F6CF892FDF91CF911F9153
:100750000F91FF90EF90DF90CF90BF90AF909F9060
:100760008F907F906F900895BF92CF92DF92EF921B
:10077000FF920F931F93CF93DF93EC01B62EC72EFA
:100780008D85811105C0CE010E940A0381110EC022
:100790001B861D861C8680E0DF91CF911F910F91F3
:1007A000FF90EF90DF90CF90BF90089540E060EF12
:1007B000CE010E94B70201E0E12CD12C11E0CE0164
:1007C0000E946402F82ECE010E94640291E0F912A8
:1007D00018C0813099F51134D8F2DB86D11002C0EF
:1007E00081E08D878B81882399F22396EB2DFC2D58
:1007F000CF01089629912193E817F907D9F781E0ED
:10080000CBCFEE2DF0E0F8120FC08B851817A0F4B7
:10081000DE01AE0FBF1F13968C91802379F4F12C6B
:10082000193008F41C87D12EEC0FFD1F8381902F07
:100830009095892383830AC08113F1CFFE01EE0DC9
:10084000F11D8381802B8383FF24F3946F2DCE01D0
:100850000E9488021F5F000F11F4E39401E087E01B
:100860008E1508F0ACCFB7CFFC0101900020E9F75E
:100870003197AF01481B590BBC018FE991E00C94F3
:1008800040018F929F92AF92BF920F931F93CF938D
:10089000DF93CDB7DEB7A1970FB6F894DEBF0FBEDA
:1008A000CDBF19A2423008F44AE08E010F5D1F4F00
:1008B000842E912CB12CA12CA50194010E94830AB5
:1008C000E62FB901CA01EA30F4F4E05DD801EE93F5
:1008D0008D01232B242B252B79F790E080E01097B6
:1008E00019F0CD010E943404A1960FB6F894DEBF32
:1008F0000FBECDBFDF91CF911F910F91BF90AF90F1
:100900009F908F900895E95CE1CFCF93DF930E9491
:100910003404EC0188E191E00E9434048C0F9D1FA7
:10092000DF91CF9108951F920F920FB60F9211246D
:100930002F933F938F939F93AF93BF938091970192
:1009400090919801A0919901B0919A0130919601EE
:1009500023E0230F2D3758F50196A11DB11D2093DB
:1009600096018093970190939801A0939901B09379
:100970009A0180919B0190919C01A0919D01B09161
:100980009E010196A11DB11D80939B0190939C0136
:10099000A0939D01B0939E01BF91AF919F918F91C4
:1009A0003F912F910F900FBE0F901F90189526E842
:1009B000230F0296A11DB11DD2CF1F920F920FB629
:1009C0000F9211242F933F934F935F936F937F93D5
:1009D0008F939F93AF93BF93EF93FF938FE991E032
:1009E0000E94BE01FF91EF91BF91AF919F918F91B6
:1009F0007F916F915F914F913F912F910F900FBE1B
:100A00000F901F9018951F920F920FB60F921124FE
:100A10002F938F939F93EF93FF93E091AF01F0910A
:100A2000B0018081E091B501F091B60182FD1BC05B
:100A300090818091B8018F5F8F732091B9018217E7
:100A400041F0E091B801F0E0E156FE4F958F8093C0
:100A5000B801FF91EF919F918F912F910F900FBE51
:100A60000F901F9018958081F4CFCF93DF93109251
:100A7000A2011092A10188EE93E0A0E0B0E0809383
:100A8000A3019093A401A093A501B093A6018AE0CD
:100A900091E09093A00180939F0185EC90E090936A
:100AA000AC018093AB0184EC90E09093AE01809315
:100AB000AD0180EC90E09093B0018093AF0181ECA8
:100AC00090E09093B2018093B10182EC90E090931A
:100AD000B4018093B30186EC90E09093B6018093CB
:100AE000B5011092B8011092B9011092BA0110929A
:100AF000BB0140ED50E0FA0164918CEB90E0FC0109
:100B000024912223C1F030E0220F331FF901EA556E
:100B1000FF4FA591B491F901E456FF4FC591D491CF
:100B20007FB7F8943C91262F209532233C9338814F
:100B3000232328837FBFFA01449140935302FC0191
:100B40008491E82FF0E0EE0FFF1FE055FF4F8591F5
:100B50009491909355028093540210925E021092E9
:100B6000600210925F0210925D0210925C0210927D
:100B70005B0210925A02109259021092580210927F
:100B80005702109256021092520210925102109285
:100B90003D0283E592E090934602809345021092D5
:100BA00043021092440210923C0289E080933F027B
:100BB00081E0809340028093410280934202DF9162
:100BC000CF910895CF93DF93CDB7DEB761970FB67E
:100BD000F894DEBF0FBECDBF789484B5826084BD2B
:100BE00084B5816084BD85B5826085BD85B5816031
:100BF00085BD80916E00816080936E0010928100AF
:100C00008091810082608093810080918100816069
:100C1000809381008091800081608093800080912A
:100C2000B10084608093B1008091B00081608093B6
:100C3000B00080917A00846080937A0080917A007D
:100C4000826080937A0080917A00816080937A003C
:100C500080917A00806880937A001092C100E091C0
:100C6000AF01F091B00182E08083E091AB01F0919F
:100C7000AC011082E091AD01F091AE018FEC808368
:100C80001092B701E091B301F091B40186E0808346
:100C9000E091B101F091B201808180618083E091A7
:100CA000B101F091B201808188608083E091B1014F
:100CB000F091B201808180688083E091B101F09170
:100CC000B20180818F7D80838BE191E00E94850459
:100CD000E0914502F091460213861586148612862D
:100CE0001186108617821682158214821382109242
:100CF00043021092440211E0BE01665F7F4F809173
:100D00004502909146020E94B403882309F475C0FD
:100D100067E0CE010A960E944D0299898913ECCFB3
:100D2000809143028F5F809343028A85883231F03D
:100D300008F049C0803111F08232F1F6809144020E
:100D40008F5F8093440280913C02811128C0809182
:100D50004502909146020E940A03BE01665F7F4FE2
:100D600080914502909146020E94EB0240E064EBC4
:100D700080914502909146020E94B70280914502FF
:100D8000909146020E946402082F80914502909142
:100D900046020E940A03011102C010933C028A8598
:100DA0008031E1F0BE016F5F7F4FCE010A960E9455
:100DB0004203882331F08D818F33D9F058F48F317D
:100DC000D1F080E00EC08B3309F4B8CF823409F043
:100DD00093CFB4CF8F3521F08F3799F78CE001C0D6
:100DE0008BE090913F02981708F086CF80933F02E6
:100DF00083CF8AE0F6CF89E0F4CF00E010E083E310
:100E000091E00E94340480914502909146020E9434
:100E10000A0340E06CEC80914502909146020E94EA
:100E2000B70240913C0264E48091450290914602F1
:100E30000E94B70280914002882391F1E0913F0225
:100E400080914102882309F480C080913C02811185
:100E50007CC08FB7F894C0909701D0909801E09033
:100E60009901F0909A018FBF8091450290914602BE
:100E70000E9464028130A1F02FB7F894809197010D
:100E800090919801A0919901B0919A012FBF8C196E
:100E90009D09AE09BF098E3E9240A105B10520F320
:100EA0008FE491E00E94850489E591E00E9434047A
:100EB000E0914502F091460213861586148612864B
:100EC0001186108617821682158214821382BE0143
:100ED000665F7F4F80914502909146020E94B40365
:100EE000882389F067E0CE010A960E944D02998915
:100EF000891309C0BE016F5F7F4FCE010A960E9421
:100F0000420381114AC0C12CD12C8EEFE82E82EC15
:100F1000F82E46015701E894B7F82FEF3FEF4FE75F
:100F20005FE7C501B4010E946A0A811197C02FEFE3
:100F30003FEF4FE75FE7C501B4010E9412091816A1
:100F40000CF08CC089E891E071C0E9508EEE92E01F
:100F5000E33038F4F0E0EE0FFF1FE050FF4F8081E8
:100F600091816C01990FEE08FF0880913D02882362
:100F700029F060E080913E020E949C00C701B6010A
:100F80000E940D0180913D02882309F489CF61E020
:100F900080913E020E949C0083CF6A8170E0762F90
:100FA0006627770F770F770F298148E0249F9001FC
:100FB0001124262B372B8A858031E1F4688566233E
:100FC000C9F070E08F81AB01481B5109CA019695A9
:100FD000982F8827979587950E946F0ACB01809755
:100FE000B90153E0660F771F5A95E1F760789C01CD
:100FF000260F371F213854EE35070CF484CFB90182
:10100000330F880B990B0E94480920E030E040E044
:101010005CE30E94FD096B017C01AC019B010E9415
:101020006A0A882309F475CF85E891E00E943404A8
:1010300081E991E00E94850464EF71E080E090E036
:101040000E940D010115110509F4D9CE0E94AA01D3
:10105000882309F4D4CE0E940000D1CE2FEF3FEFB9
:101060004FE75FE4C701B6010E94F80918161CF4A7
:101070008DE891E0DBCF2FEF3FEF4FE75FECC7014B
:10108000B6010E94120987FDF3CF20E030E0A901EC
:10109000C701B6010E94120987FF09C06DE28FE9FE
:1010A00091E00E94E001F7FAF094F7F8F0942AE05A
:1010B00037ED43EA5BE3C701B6010E94A6084B0186
:1010C0005C010E9417096B017C010E9446099B018B
:1010D000AC01C501B4010E94A5084B015C014AE0C6
:1010E000C701B6010E9441046EE28FE991E00E94BF
:1010F000E00120E030E040E251E4C501B4010E948B
:10110000FD094B015C010E9417096B01F12CE12CD8
:101110004AE0C701B6010E944104C701B6010E941E
:1011200046099B01AC01C501B4010E94A50820E05D
:1011300030E040E251E40E94FD090E94170990E06E
:1011400080E04AE00E94410473CF5058BB27AA2791
:101150000E94BD080C94BE090E94B00938F00E949C
:10116000B70920F039F49F3F19F426F40C94AD0927
:101170000EF4E095E7FB0C94A709E92F0E94CF0934
:1011800058F3BA17620773078407950720F079F4BC
:10119000A6F50C94F1090EF4E0950B2EBA2FA02DB4
:1011A0000B01B90190010C01CA01A0011124FF2714
:1011B000591B99F0593F50F4503E68F11A16F0400F
:1011C000A22F232F342F4427585FF3CF469537950E
:1011D0002795A795F0405395C9F77EF41F16BA0BD3
:1011E000620B730B840BBAF09150A1F0FF0FBB1F81
:1011F000661F771F881FC2F70EC0BA0F621F731FCA
:10120000841F48F4879577956795B795F7959E3F26
:1012100008F0B0CF9395880F08F09927EE0F9795B7
:10122000879508950E94830908F481E008950E943B
:10123000D70988F09F5798F0B92F9927B751B0F088
:10124000E1F0660F771F881F991F1AF0BA95C9F74A
:1012500014C0B13091F00E94F109B1E008950C94EE
:10126000F109672F782F8827B85F39F0B93FCCF3A1
:10127000869577956795B395D9F73EF490958095C7
:10128000709561957F4F8F4F9F4F0895E89409C0E7
:1012900097FB3EF490958095709561957F4F8F4FA9
:1012A0009F4F9923A9F0F92F96E9BB279395F695BF
:1012B000879577956795B795F111F8CFFAF4BB0F3D
:1012C00011F460FF1BC06F5F7F4F8F4F9F4F16C0A1
:1012D000882311F096E911C0772321F09EE8872F2B
:1012E000762F05C0662371F096E8862F70E060E0E7
:1012F0002AF09A95660F771F881FDAF7880F969560
:10130000879597F90895990F0008550FAA0BE0E803
:10131000FEEF16161706E807F907C0F012161306B7
:10132000E407F50798F0621B730B840B950B39F4F7
:101330000A2661F0232B242B252B21F408950A265D
:1013400009F4A140A6958FEF811D811D089597F99D
:101350009F6780E870E060E008959FEF80EC08955B
:1013600000240A9416161706180609060895002484
:101370000A9412161306140605060895092E0394FE
:10138000000C11F4882352F0BB0F40F4BF2B11F472
:1013900060FF04C06F5F7F4F8F4F9F4F089557FDD1
:1013A0009058440F551F59F05F3F71F04795880FD3
:1013B00097FB991F61F09F3F79F08795089512166A
:1013C00013061406551FF2CF4695F1DF08C0161616
:1013D00017061806991FF1CF8695710561050894C7
:1013E0000895E894BB2766277727CB0197F90895DE
:1013F0000E94830908F48FEF08950E94100A0C944C
:10140000BE090E94B00938F00E94B70920F0952368
:1014100011F00C94A7090C94AD0911240C94F20955
:101420000E94CF0970F3959FC1F3950F50E0551FAF
:10143000629FF001729FBB27F00DB11D639FAA2729
:10144000F00DB11DAA1F649F6627B00DA11D661F78
:10145000829F2227B00DA11D621F739FB00DA11D99
:10146000621F839FA00D611D221F749F3327A00D53
:10147000611D231F849F600D211D822F762F6A2FEF
:1014800011249F5750409AF0F1F088234AF0EE0F54
:10149000FF1FBB1F661F771F881F91505040A9F781
:1014A0009E3F510580F00C94A7090C94F2095F3F10
:1014B000E4F3983ED4F3869577956795B795F795BD
:1014C000E7959F5FC1F7FE2B880F911D9695879535
:1014D00097F908950E948309880B990B089597FB4B
:1014E000072E16F4009407D077FD09D00E94A50AB4
:1014F00007FC05D03EF4909581959F4F0895709517
:1015000061957F4F0895A1E21A2EAA1BBB1BFD0116
:101510000DC0AA1FBB1FEE1FFF1FA217B307E407D2
:10152000F50720F0A21BB30BE40BF50B661F771F2A
:10153000881F991F1A9469F760957095809590950A
:101540009B01AC01BD01CF010895AA1BBB1B51E15A
:1015500007C0AA1FBB1FA617B70710F0A61BB70B23
:10156000881F991F5A95A9F780959095BC01CD01C8
:101570000895EE0FFF1F0590F491E02D0994F89463
:02158000FFCF9B
:101582005E00BC00770100000000E00140016D0137
:101592002D029E017C0190010D0A0044454D4F2011
:1015A20044616C6C61732054656D70657261747511
:1015B200726500536F6C69636974616E646F207445
:1015C200656D7065726174757261732E2E2E005492
:1015D20065726D696E61646F0054656D70657261EC
:1015E200747572612064656C20646973706F7369CD
:1015F2007469766F20756E6F2028696E6465782035
:1016020030293A20006E616E00696E66006F766660
:061612000020C2B04300FD
:00000001FF
