:100000000C947C000C94A4000C94A4000C94A40008
:100010000C94A4000C94A4000C94A4000C94A400D0
:100020000C94A4000C94A4000C94A4000C94A400C0
:100030000C94A4000C94A4000C94A4000C94A400B0
:100040000C94A8040C94A4000C9418050C94F204CD
:100050000C94A4000C94A4000C94A4000C94A40090
:100060000C944A050C94A40019082E082E082D089B
:100070002E080B082E082E082E080D082E082E0814
:1000800020082B0829082E082E082E0827081F1CD8
:100090001F1E1F1E1F1F1E1F1E32333A31313A33DF
:1000A000310041756720323220323032300000009A
:1000B0000000250028002B000404040404040404A8
:1000C0000202020202020303030303030102040803
:1000D00010204080010204081020010204081020B2
:1000E00000000008000201000003040700000000F7
:1000F00000000000F106B90911241FBECFEFD8E0BF
:10010000DEBFCDBF23E0ACE7B1E001C01D92A1315D
:10011000B207E1F711E0A0E0B1E0EAEEFBE102C0D6
:1001200005900D92AC37B107D9F710E0CBE7D0E0DE
:1001300004C02197FE010E94E60BCA37D107C9F718
:100140000E9453070C94E80D0C9400003091390282
:10015000313208F04BC0809115028111FCCF909193
:10016000380222E02093150221E0209314022FEFA1
:10017000209313021092120230931102E8E1F2E090
:10018000A1EFB1E020E0321721F041914D932F5FB4
:10019000FACF1092F0012091F001990F922B9093D9
:1001A000F0019091EF01913061F41092EF01909184
:1001B000F0019093BB009091BC0093FDF8CF95ECBB
:1001C00001C095EE9093BC00909115029230E1F33E
:1001D000909113029F3F79F080911302803241F099
:1001E00080911302803331F084E005C081E003C0C8
:1001F00082E001C083E0109217021092390210923F
:1002000016020895909115029111FCCF91E0909300
:100210001502909314022FEF2093130210921202F2
:10022000260F209311029093F0019091F001880F16
:10023000892B8093F0018091EF01813061F410925D
:10024000EF018091F0018093BB008091BC0083FDA1
:10025000F8CF85EC01C085EE8093BC00809115023B
:100260008130E1F380911202861710F4609112023E
:10027000A1EFB1E0EFECF1E080E0861721F09D9175
:1002800091938F5FFACF089590E0FC01E052FF4F09
:100290002491FC01E453FF4F3491FC01E854FF4FDB
:1002A000E491EE23B1F1222339F1233091F038F4B7
:1002B0002130A9F0223001F584B58F7D12C027309E
:1002C00091F02830A1F02430B9F4809180008F7D26
:1002D00003C0809180008F77809380000DC084B52B
:1002E0008F7784BD09C08091B0008F7703C0809163
:1002F000B0008F7D8093B000F0E0EE0FFF1FE2555D
:10030000FF4FA591B4918FB7F894EC91E32BEC9348
:100310008FBF0895FC01538D448D252F30E0842F2D
:1003200090E0821B930B541710F0CF96089501971D
:100330000895FC01918D828D981761F0828DDF0107
:10034000A80FB11D5D968C91928D9F5F9F73928FC8
:1003500090E008958FEF9FEF0895FC01918D828DBD
:10036000981731F0828DE80FF11D858D90E008958A
:100370008FEF9FEF0895FC01918D228D892F90E0E2
:10038000805C9F4F821B91098F7399270895FC0110
:10039000848DDF01A80FB11DA35ABF4F2C91848D0E
:1003A00090E001968F739927848FA689B7892C9343
:1003B000A089B1898C91837080648C93938D848D96
:1003C000981306C00288F389E02D80818F7D808399
:1003D0000895EF92FF920F931F93CF93DF93EC0159
:1003E00081E0888F9B8D8C8D981305C0E889F989F1
:1003F000808185FD26C0F62E0B8D10E00F5F1F4F0C
:100400000F731127E02E8C8DE8120CC00FB607FC7D
:10041000FACFE889F989808185FFF5CFCE010E9466
:10042000C701F1CF8B8DFE01E80FF11DE35AFF4F9D
:10043000F0829FB7F8940B8FEA89FB8980818062F4
:100440000AC09FB7F894EE89FF896083E889F9892B
:1004500080818370806480839FBF81E090E0DF9122
:10046000CF911F910F91FF90EF900895CF93DF935D
:10047000EC01888D8823C9F0EA89FB89808185FD9C
:1004800005C0A889B9898C9186FD0FC00FB607FCFD
:10049000F5CF808185FFF2CFA889B9898C9185FF3E
:1004A000EDCFCE010E94C701E7CFDF91CF91089534
:1004B0008AE392E00E94BB0121E0892B09F420E04D
:1004C000822F089580E090E0892B29F00E94580245
:1004D00081110C94000008953FB7F8948091C901F0
:1004E0009091CA01A091CB01B091CC0126B5A89BF7
:1004F00005C02F3F19F00196A11DB11D3FBFBA2FB6
:10050000A92F982F8827820F911DA11DB11DBC0115
:10051000CD0142E0660F771F881F991F4A95D1F7DA
:1005200008958F929F92AF92BF92CF92DF92EF92F7
:10053000FF926B017C010E946C024B015C01C114B3
:10054000D104E104F104F1F00E946C02DC01CB0162
:1005500088199909AA09BB09883E9340A105B105EC
:1005600070F321E0C21AD108E108F10888EE880E84
:1005700083E0981EA11CB11CC114D104E104F10454
:1005800019F7DDCFFF90EF90DF90CF90BF90AF9045
:100590009F908F90089508950895CF92DF92EF92E3
:1005A000FF920F931F93CF93DF936C017A018B011E
:1005B000C0E0D0E0CE15DF0581F0D8016D918D014E
:1005C000D601ED91FC910190F081E02DC6010995D5
:1005D000892B11F02196EECF7E01C701DF91CF91DB
:1005E0001F910F91FF90EF90DF90CF900895803D85
:1005F00027E0920710F0805D974050E0EEE8F0E0D1
:1006000021E0261730F43491430F511D2F5F3196AE
:10061000F8CF633038F09C0123703327232B11F47B
:100620004F5F5F4FBC016D5F7F4F76956795769505
:100630006795EDE6F1E08E9F90018F9F300D9E9FB4
:10064000300D1124C9010197860F971F840F951F44
:100650000895CF92DF92EF92FF920F931F93CF9363
:10066000DF93EC0188814A81698190E00E94F70262
:10067000069667E070E00E94B00B8C016C8170E020
:1006800080E090E00E94D90920E030E040E752E4A9
:100690000E942D0B6B017C016B8170E080E090E08B
:1006A0000E94D9099B01AC01C701B6010E94C10A91
:1006B0006B017C0120E030E048E151E40E949F0B97
:1006C000181654F420E030E048E351E4C701B601C5
:1006D0000E94D20987FD14C027ED33EA4EEB51E4A6
:1006E000C701B6010E949F0B181664F429E23CE58D
:1006F0004FEB51E4C701B6010E94D20987FF02C047
:1007000081E001C080E00330110531F006301105B1
:1007100019F0012B09F080E0DF91CF911F910F912B
:10072000FF90EF90DF90CF90089585ED8093BC000F
:100730008091BC0084FDFCCF109215020895409179
:100740009C01262F30E0240F311D21323105DCF4CD
:10075000209115022430C9F4FC0180E090E0861756
:1007600058F430919C012191DC01A458BE4FA30F95
:10077000B11D2C930196F3CF80919C01680F60937B
:100780009C0180E0089581E0089582E00895089535
:10079000E091CE018091CD01E81730F4F0E0E15313
:1007A000FE4F808190E008958FEF9FEF0895909124
:1007B000CE018091CD01981750F4E92FF0E0E1537C
:1007C000FE4F208130E09F5F9093CE0102C02FEF5B
:1007D0003FEFC90108958091CD0190E02091CE01B5
:1007E000821B91090895CF92DF92EF92FF920F93AF
:1007F0001F93CF93DF937C01CB018A0120911602D6
:10080000222389F0EB016B01C40ED51ECC15DD054A
:1008100069F06991D701ED91FC910190F081E02D93
:10082000C7010995F3CF642F0E949F03C801DF9190
:10083000CF911F910F91FF90EF90DF90CF9008958F
:10084000CF93DF931F92CDB7DEB769832091160255
:100850002223D1F020913902203240F021E030E013
:10086000FC013383228380E090E015C08091170261
:10087000E82FF0E0E85EFD4F998190838F5F8093D1
:1008800017028093390205C061E0CE0101960E94F3
:100890009F0381E090E00F90DF91CF91089508953C
:1008A00080E090E00895009769F0FC01019000203D
:1008B000E9F73197AF01481B590BBC018AE392E07D
:1008C0000C94CD0280E090E008958F929F92AF92B9
:1008D000BF920F931F93CF93DF93CDB7DEB7A1974E
:1008E0000FB6F894DEBF0FBECDBF19A2423008F498
:1008F0004AE08E010F5D1F4F842E912CA12CB12C4C
:10090000A50194010E94C40BE62FB901CA01015050
:100910001109EA3014F4E05D01C0E95CD801EC9300
:10092000232B242B252B61F7C8010E945304A19689
:100930000FB6F894DEBF0FBECDBFDF91CF911F91F0
:100940000F91BF90AF909F908F9008950E94D30D0C
:100950001F920F920FB60F9211242F933F938F93F4
:100960009F93AF93BF938091C5019091C601A091D1
:10097000C701B091C8013091C40123E0230F2D3786
:1009800020F40196A11DB11D05C026E8230F029693
:10099000A11DB11D2093C4018093C5019093C60190
:1009A000A093C701B093C8018091C9019091CA0179
:1009B000A091CB01B091CC010196A11DB11D8093F6
:1009C000C9019093CA01A093CB01B093CC01BF9110
:1009D000AF919F918F913F912F910F900FBE0F90EC
:1009E0001F9018951F920F920FB60F9211242F93FC
:1009F0003F934F935F936F937F938F939F93AF93A7
:100A0000BF93EF93FF938AE392E00E94C701FF91A7
:100A1000EF91BF91AF919F918F917F916F915F9176
:100A20004F913F912F910F900FBE0F901F901895EF
:100A30001F920F920FB60F9211242F938F939F93B3
:100A4000EF93FF93E0914A02F0914B028081E09195
:100A50005002F091510282FD12C0908180915302A8
:100A60008F5F8F7320915402821751F0E0915302EF
:100A7000F0E0E65CFD4F958F8093530201C08081CA
:100A8000FF91EF919F918F912F910F900FBE0F903B
:100A90001F9018951F920F920FB60F9211242F934B
:100AA0003F934F935F936F937F938F939F93AF93F6
:100AB000BF93EF93FF938091B900887F803609F44C
:100AC0009CC068F5883209F45BC090F4803109F469
:100AD00054C038F4882309F4F6C0883009F44DC0B6
:100AE000F6C0883109F44CC0803209F45DC0EFC013
:100AF000803409F468C048F4803309F455C0883361
:100B000009F0E5C080931302D8C0803509F44FC0C6
:100B1000883509F45DC0883409F0D9C0D6C0883959
:100B200009F4C7C0A8F4883709F467C038F48836D8
:100B300009F463C0803709F460C0C9C0883809F47B
:100B4000B8C0803909F45FC0803809F0C0C05BC00C
:100B5000803B09F486C038F4803A09F466C0883ACC
:100B600009F47FC0B4C0803C09F4A7C0883C09F4F4
:100B7000A4C0883B09F48AC0AAC08091F00110C0CB
:100B80009091120280911102981770F5E091120273
:100B900081E08E0F80931202F0E0EF50FE4F8081D3
:100BA0008093BB0085EC86C0809313028EC0E091D9
:100BB000120281E08E0F809312028091BB00F0E060
:100BC000EF50FE4F808390911202809111026EC00F
:100BD000E091120281E08E0F809312028091BB009F
:100BE000F0E0EF50FE4F80838091140281116DC0C0
:100BF00081E08093EF0184EA61C083E08093150275
:100C00001092BE01CFCF8091BE01803208F051C05A
:100C1000E091BE0181E08E0F8093BE018091BB0008
:100C2000F0E0E256FE4F8083BDCF85EC8093BC00A0
:100C3000109215028091BE01803230F4E091BE0125
:100C4000F0E0E256FE4F10826091BE0170E0E0914C
:100C5000BF01F091C0018EE991E009951092BE01AB
:100C600036C084E08093150210929D0110929C0181
:100C7000E091C101F091C201099580919C0181111F
:100C800005C081E080939C0110927C01E0919D0160
:100C900081E08E0F80939D01F0E0E458FE4F80814B
:100CA0008093BB0090919D0180919C01981708F45E
:100CB00079CF85E88093BC000AC085EC8093BC00A6
:100CC0001092150204C0109213020E949503FF9126
:100CD000EF91BF91AF919F918F917F916F915F91B4
:100CE0004F913F912F910F900FBE0F901F9018952D
:100CF000FC01908190539A3008F090E081818053FC
:100D00002AE0929F800D1124089581E080931602BD
:100D100088E68093380210921702109239026FE031
:100D200087ED92E00E9420040E94A60061E088E620
:100D30000E9402011092CE018093CD0187ED92E0D6
:100D40000E94D7030895EF92FF920F931F93CF93C2
:100D5000DF93EC01198218821B821A821D821C8289
:100D600061157105B9F17B01FB0101900020E9F7E4
:100D700031978F01061B170BB8016F5F7F4F80E023
:100D800090E00E940D0D009759F0998388831B8392
:100D90000A832C813D81232B81F4FC0110820DC03C
:100DA00088819981009711F00E94840C1982188221
:100DB0001D821C821B821A820DC01D830C83B70109
:100DC00088819981DF91CF911F910F91FF90EF90D2
:100DD0000C94E10DDF91CF911F910F91FF90EF9057
:100DE0000895EAE3F2E01382128288EE93E0A0E035
:100DF000B0E084839583A683B7832AE031E0318312
:100E0000208325EC30E03587248724EC30E03787D9
:100E1000268720EC30E0318B208B21EC30E0338BC7
:100E2000228B22EC30E0358B248B26EC30E0378BA4
:100E3000268B118E128E138E148EE7EDF2E0138244
:100E4000128284839583A683B7838CE191E091839A
:100E500080836AE271E083EE92E00E94A30662E37F
:100E600071E089EE92E00E94A30668E371E08FEEE4
:100E700092E00E94A3066FE371E085EF92E00E948A
:100E8000A30669E471E08BEF92E00E94A30660E59F
:100E900071E081E093E00E94A30668E571E087E0DD
:100EA00093E00C94A306CF93DF93CDB7DEB72B97D7
:100EB0000FB6F894DEBF0FBECDBF789484B58260C4
:100EC00084BD84B5816084BD85B5826085BD85B5EE
:100ED000816085BD80916E00816080936E0010926C
:100EE00081008091810082608093810080918100E7
:100EF0008160809381008091800081608093800078
:100F00008091B10084608093B1008091B0008160D5
:100F10008093B00080917A00846080937A00809101
:100F20007A00826080937A0080917A008160809359
:100F30007A0080917A00806880937A001092C100D4
:100F400068EE73E080E090E00E9491021092CE0182
:100F50001092CD01109217021092390210921502D0
:100F600001E0009314021092EF0182E10E9444011B
:100F700083E10E9444018091B9008E7F8093B90083
:100F80008091B9008D7F8093B90088E48093B80088
:100F900085E48093BC008BEC92E09093C201809337
:100FA000C1018CEC92E09093C0018093BF0100934B
:100FB000160288E6809338021092170210923902C6
:100FC0000E94A6008111FFCF0E94850690E0880F45
:100FD000892F881F990B892B09F4E0C04BE050E062
:100FE00062EA70E0CE0101960E94C909CE010A961C
:100FF0000E947806082FE9814E2FEE0F550B660BE5
:10100000770BFA01E154F109E331F10538F5EC5CB5
:10101000FF4F0C94E60B12E021C08A81813629F043
:101020008B818E3621F017E019C011E017C016E051
:1010300015C08B81823711F018E010C014E00EC08B
:101040008B81823711F015E009C013E007C019E069
:1010500005C01AE003C01BE001C01CE0CE010596EC
:101060000E947806C82E48E050E069E970E0CE01A1
:1010700001960E94C909CE0101960E947806B82EF9
:10108000CE0104960E947806A82ECE0107960E94F3
:101090007806982EDD24D394D0921602B8E6EB2E73
:1010A000E0923802109217021092390260E087ED48
:1010B00092E00E9420048AE0F82E892D6F2D0E9474
:1010C000A40B682F660F860F880F682F690D87EDB8
:1010D00092E00E9420048A2D6F2D0E94A40B682F9D
:1010E000660F860F880F682F6A0D87ED92E00E94C9
:1010F00020048B2D6F2D0E94A40B682F660F860F86
:10110000880F682F6B0D87ED92E00E94200460E04D
:1011100087ED92E00E9420048C2D6F2D0E94A40B7D
:10112000682F660F860F880F682F6C0D87ED92E091
:101130000E942004812F6F2D0E94A40B682F660F40
:10114000680F660F610F87ED92E00E942004802FE8
:101150006F2D0E94A40B682F660F680F660F600F3B
:1011600087ED92E00E9420040E94A6000E9485065E
:10117000182FD0921602E0923802109217021092A5
:1011800039026FE087ED92E00E942004612F6F77B3
:1011900087ED92E00E9420040E94A60066246394DA
:1011A000E8E65E2E1AEFF7E0AF2EB12CA6E04A2E4D
:1011B0006092160250923802109217021092390271
:1011C00060E087ED92E00E9420040E94A60067E0A4
:1011D00088E60E9402011092CE018093CD0187ED36
:1011E00092E00E94D7038F77982F92959F70082FD7
:1011F000919F000D112487ED92E00E94D7039C017E
:10120000332794E0359527959A95E1F7F82E129FAC
:10121000F00C112487ED92E00E94D7039C01332744
:1012200044E0359527954A95E1F7E82E129FE00CAA
:10123000112487ED92E00E94D70387ED92E00E948F
:10124000D7039C01332754E0359527955A95E1F74C
:10125000D82E129FD00C112487ED92E00E94D70364
:101260009C01332764E0359527956A95E1F7C82EF0
:10127000129FC00C112487ED92E00E94D7039C01BD
:10128000332774E0359527957A95E1F7782E129FEC
:10129000700C1124872C912C8FE591E00E9453044F
:1012A0004D2D6C2DC4010E94F7020696B5010E94D7
:1012B000B00B489EF001499EF00D1124ED51FD4FF9
:1012C00044815581608171818AE392E00E94CD0260
:1012D00082E691E00E9453046E2D70E080E090E081
:1012E0004AE00E9465046AE38AE392E00E94E90111
:1012F0006F2D70E080E090E04AE00E9465046AE3B0
:101300008AE392E00E94E901602F70E080E090E0C3
:101310004AE00E94650485E691E00E9453048091B2
:10132000C3017982CA82DB82EC82FD820E8388232C
:1013300059F0CE0101960E942903811111C010922B
:10134000C30181E791E00AC0CE0101960E94290302
:10135000882331F06092C30188E691E00E94530433
:1013600068EB7BE080E090E00E9491020E946202C4
:101370001FCFCF93DF93CDE0D3E02697888199816B
:101380000E94840C82E0C33ED807B9F7DF91CF9169
:101390000895FB01DC0102C005900D9241505040C0
:1013A000D8F708950E94140A08F481E00895E8949B
:1013B00009C097FB3EF490958095709561957F4F9D
:1013C0008F4F9F4F9923A9F0F92F96E9BB2793954B
:1013D000F695879577956795B795F111F8CFFAF45B
:1013E000BB0F11F460FF1BC06F5F7F4F8F4F9F4F8C
:1013F00016C0882311F096E911C0772321F09EE8EA
:10140000872F762F05C0662371F096E8862F70E04F
:1014100060E02AF09A95660F771F881FDAF7880F29
:101420009695879597F90895990F0008550FAA0B7F
:10143000E0E8FEEF16161706E807F907C0F01216E7
:101440001306E407F50798F0621B730B840B950BEA
:1014500039F40A2661F0232B242B252B21F408953F
:101460000A2609F4A140A6958FEF811D811D0895DC
:1014700097F99F6780E870E060E008959FEF80EC47
:10148000089500240A9416161706180609060895EA
:1014900000240A9412161306140605060895092E50
:1014A0000394000C11F4882352F0BB0F40F4BF2BBF
:1014B00011F460FF04C06F5F7F4F8F4F9F4F0895FF
:1014C00057FD9058440F551F59F05F3F71F04795F5
:1014D000880F97FB991F61F09F3F79F087950895DA
:1014E000121613061406551FF2CF4695F1DF08C0F9
:1014F000161617061806991FF1CF86957105610516
:1015000008940895E894BB2766277727CB0197F9BD
:1015100008952F923F924F925F926F927F928F9297
:101520009F92AF92BF92CF92DF92EF92FF920F9372
:101530001F93CF93DF93CDB7DEB7CA1BDB0B0FB67C
:10154000F894DEBF0FBECDBF09942A883988488839
:101550005F846E847D848C849B84AA84B984C884CF
:10156000DF80EE80FD800C811B81AA81B981CE0FC6
:10157000D11D0FB6F894DEBF0FBECDBFED010895AB
:101580005058BB27AA270E94D80A0C944F0A0E94E1
:10159000410A38F00E94480A20F039F49F3F19F4BC
:1015A00026F40C943E0A0EF4E095E7FB0C94380AFE
:1015B000E92F0E94600A58F3BA176207730784077D
:1015C000950720F079F4A6F50C94820A0EF4E095C4
:1015D0000B2EBA2FA02D0B01B90190010C01CA01ED
:1015E000A0011124FF27591B99F0593F50F4503E98
:1015F00068F11A16F040A22F232F342F4427585F8A
:10160000F3CF469537952795A795F0405395C9F7A1
:101610007EF41F16BA0B620B730B840BBAF0915059
:10162000A1F0FF0FBB1F661F771F881FC2F70EC0F8
:10163000BA0F621F731F841F48F4879577956795CB
:10164000B795F7959E3F08F0B0CF9395880F08F0B7
:101650009927EE0F9795879508950E94410B0C945A
:101660004F0A0E94480A58F00E94410A40F029F4AB
:101670005F3F29F00C94380A51110C94830A0C94A2
:101680003E0A0E94600A68F39923B1F3552391F34F
:10169000951B550BBB27AA2762177307840738F0E1
:1016A0009F5F5F4F220F331F441FAA1FA9F335D03E
:1016B0000E2E3AF0E0E832D091505040E695001CF2
:1016C000CAF72BD0FE2F29D0660F771F881FBB1FAC
:1016D000261737074807AB07B0E809F0BB0B802D8A
:1016E000BF01FF2793585F4F3AF09E3F510578F0B6
:1016F0000C94380A0C94830A5F3FE4F3983ED4F3C9
:10170000869577956795B795F7959F5FC9F7880F89
:10171000911D9695879597F90895E1E0660F771FDB
:10172000881FBB1F621773078407BA0720F0621B6C
:10173000730B840BBA0BEE1F88F7E09508950E9497
:10174000140A08F48FEF0895991B79E004C0991FDB
:10175000961708F0961B881F7A95C9F7809508950B
:10176000AA1BBB1B51E107C0AA1FBB1FA617B707C7
:1017700010F0A61BB70B881F991F5A95A9F78095E3
:101780009095BC01CD010895A1E21A2EAA1BBB1BA6
:10179000FD010DC0AA1FBB1FEE1FFF1FA217B3073D
:1017A000E407F50720F0A21BB30BE40BF50B661F53
:1017B000771F881F991F1A9469F760957095809517
:1017C00090959B01AC01BD01CF010895EE0FFF1F65
:1017D0000590F491E02D09940F931F93CF93DF931D
:1017E0008230910510F482E090E0E0910F03F091D7
:1017F000100320E030E0A0E0B0E0309719F1408124
:1018000051810281138148175907C8F08417950741
:1018100069F4109731F012960C93129713961C935B
:1018200027C000930F031093100322C02115310528
:1018300019F04217530718F49A01BD01EF01DF01B7
:10184000F801DBCF21153105F9F0281B390B2430C5
:10185000310580F48A819B816115710521F0FB01BE
:101860009383828304C09093100380930F03FE013F
:10187000329644C0FE01E20FF31F819391932250F0
:101880003109398328833AC020910D0330910E032A
:10189000232B41F4209102013091030130930E0378
:1018A00020930D0320910001309101012115310594
:1018B00041F42DB73EB74091040150910501241B1E
:1018C000350BE0910D03F0910E03E217F307A0F43E
:1018D0002E1B3F0B2817390778F0AC014E5F5F4F86
:1018E0002417350748F04E0F5F1F50930E034093A7
:1018F0000D038193919302C0E0E0F0E0CF01DF910E
:10190000CF911F910F910895CF93DF93009709F422
:1019100081C0FC01329713821282A0910F03B09113
:101920001003109781F420813181820F931F209141
:101930000D0330910E032817390751F5F0930E036C
:10194000E0930D0367C0ED0120E030E0CE17DF0724
:1019500040F44A815B819E0141155105F1F0EA0195
:10196000F5CFD383C28340815181840F951FC8175F
:10197000D90759F488819981840F951F0296918324
:1019800080838A819B81938382832115310529F489
:10199000F0931003E0930F033DC0E901FB83EA835A
:1019A00049915991C40FD51FEC17FD0761F480814F
:1019B0009181840F951F0296E90199838883828122
:1019C00093819B838A83E0E0F0E012968D919C9155
:1019D0001397009719F0FD01DC01F7CF8D919C91D1
:1019E00011979D012E5F3F4F820F931F20910D0392
:1019F00030910E032817390769F4309729F41092B3
:101A0000100310920F0302C013821282B0930E03D0
:101A1000A0930D03DF91CF910895A0E0B0E0E3E142
:101A2000FDE00C948D0AEC01009721F4CB010E949B
:101A3000EC0BB4C0FC01E60FF71F9C0122503109EA
:101A4000E217F30708F4A8C0D9010D911C91119772
:101A500006171707B0F00530110508F49BC0C80140
:101A600004978617970708F495C002501109061BC2
:101A7000170B019311936D937C93CF010E94840CFB
:101A800089C05B01A01AB10A4C01800E911EA09181
:101A90000F03B0911003612C712CE12CF12C1097E5
:101AA00009F446C08D919C911197A815B905B1F51F
:101AB0006C0142E0C40ED11CCA14DB0478F14C0165
:101AC0008A189B08640142E0C40ED11C1296BC9097
:101AD00012971396AC91B5E0CB16D10440F0B282C8
:101AE000A38391828082D9016D937C9309C00E5F9C
:101AF0001F4F800F911FF90191838083EB2DFA2FE7
:101B0000E114F10431F0D7011396FC93EE93129790
:101B100041C0F0931003E0930F033CC068167906B0
:101B200008F43C017D0112960D90BC91A02DB7CF19
:101B300080910D0390910E0388169906E1F46616C4
:101B40007706C8F48091000190910101009741F45B
:101B50008DB79EB74091040150910501841B950BF0
:101B6000E817F907C8F4F0930E03E0930D03F901A9
:101B7000718360830FC0CB010E94EC0B7C01009746
:101B800059F0A801BE010E94D80DCE010E94840C1C
:101B9000C70104C0CE0102C080E090E0CDB7DEB73F
:101BA000EEE00C94A90A81E090E0F8940C94E80D22
:101BB000FB01DC0102C001900D9241505040D8F76A
:101BC0000895FB01DC0101900D920020E1F70895DA
:101BD00010E0CBE7D0E004C0FE010E94E60B2196A6
:0A1BE000CC37D107C9F7F894FFCF06
:101BEA0000001103800000000000E901CD028A0113
:101BFA003602BB019901AD01000000002004F30385
:101C0A005004C703EB03D703C803446F6D696E67BB
:101C1A006F004C756E6573004D6172746573004D8B
:101C2A00696572636F6C6573004A756576657300E2
:101C3A00566965726E65730053616261646F002054
:101C4A0028002920000D0A00416374697661646FD7
:0C1C5A0000446573616374697661720078
:00000001FF
