:100000000C945D000C947A000C947A000C947A00A5
:100010000C947A000C947A000C947A000C94B3033C
:100020000C947A000C947A000C947A000C947A0068
:100030000C947A000C947A000C947A000C947A0058
:100040000C9469030C947A000C947A000C947A0056
:100050000C947A000C947A000C947A000C947A0038
:100060000C947A000C947A00000000002400270011
:100070002A0000000000250028002B0004040404CE
:100080000404040402020202020203030303030342
:10009000010204081020408001020408102001021F
:1000A00004081020000000080002010000030407FB
:1000B0000000000000000000020011241FBECFEF6E
:1000C000D8E0DEBFCDBF11E0A0E0B1E0EAEDFFE097
:1000D00002C005900D92A230B107D9F721E0A2E04D
:1000E000B1E001C01D92AC31B207E1F70E940F04EC
:1000F0000C94EB070C9400003FB7F8948091180122
:1001000090911901A0911A01B0911B0126B5A89BED
:1001100005C02F3F19F00196A11DB11D3FBFBA2F99
:10012000A92F982F8827820F911DA11DB11DBC01F9
:10013000CD0142E0660F771F881F991F4A95D1F7BE
:1001400008958F929F92AF92BF92CF92DF92EF92DB
:10015000FF926B017C010E947C004B015C01C11489
:10016000D104E104F104F1F00E947C00DC01CB0138
:1001700088199909AA09BB09883E9340A105B105D0
:1001800070F321E0C21AD108E108F10888EE880E68
:1001900083E0981EA11CB11CC114D104E104F10438
:1001A00019F7DDCFFF90EF90DF90CF90BF90AF9029
:1001B0009F908F90089590910001891324C0E8EBDF
:1001C000F0E0E4919FEF90930001E130B9F098F0F6
:1001D000E230C9F4909170009D7F9093700091E09F
:1001E0009093B0009091B100987F94609093B1008B
:1001F0001092B30008C010926E0005C090916F007D
:100200009D7F90936F0090E0FC01EC55FF4F24918F
:10021000FC01E057FF4F3491FC01E458FF4FE4919B
:10022000EE23B9F1222339F1233091F038F4213053
:10023000A9F0223001F584B58F7D12C0273091F0EE
:100240002830A1F02430B9F4809180008F7D03C064
:10025000809180008F77809380000DC084B58F7768
:1002600084BD09C08091B0008F7703C08091B00039
:100270008F7D8093B000F0E0EE0FFF1FEE58FF4F30
:10028000A591B4919FB7F8948C91309538233C9305
:100290009FBF08958F929F92AF92BF92CF92DF92AD
:1002A000EF92FF921F93CF93DF93EB012091000118
:1002B000233021F02F3F09F099C104C0E8EBF0E0B2
:1002C00014916BC023E020930001E8EBF0E014915F
:1002D0001F3F09F48BC1113009F440C030F11230D6
:1002E00009F05BC01092B0001092B1002091B000F4
:1002F00022602093B0002091B10021602093B100D2
:10030000EFE7F0E0E491F0E0EE0FFF1FEE58FF4F53
:100310002591349130930D0120930C01E3E9F0E035
:10032000E491E0930E0112E03AC014BC15BC24B570
:10033000226024BD25B5216025BDEFE7F0E0E49102
:10034000F0E0EE0FFF1FEE58FF4F25913491E3E9E7
:10035000F0E0E491E093030110E021C010928000EE
:1003600010928100209181002860209381002091CB
:100370008100216020938100EFE7F0E0E491F0E05C
:10038000EE0FFF1FEE58FF4F25913491E3E9F0E0A7
:10039000E491E093020111E002C017FD27C1E3E9F7
:1003A000F0E04491EFE7F0E02491222399F030E06F
:1003B000220F331FF901E859FF4FA591B491F901BC
:1003C000EE58FF4F259134912FB7F894EC91E42B20
:1003D000EC932FBF4C01A12CB12C812F8D7F09F004
:1003E00098C060E072E18AE790E0A50194010E9464
:1003F000AA0769017A01BA01A901415051096109AD
:1004000071094F3F51056105710509F008F445C0B8
:1004100060E472E48FE090E0A50194010E94AA07D5
:10042000BA01A90141505109610971091230E9F479
:100430004F3F51056105710509F008F4EAC060E914
:1004400070ED83E090E0A50194010E94AA07BA0133
:10045000A90141505109610971094F3F51056105D9
:10046000710509F020F583E04DC04F3F510561054E
:100470007105A9F0A0F068E478EE81E090E0A501B4
:1004800094010E94AA07BA01A901415051096109CA
:100490007109112309F4BFC014C181E001C082E0D9
:1004A000111130C095B5987F892B85BD66C068E471
:1004B00078EE81E090E0A50194010E94AA07BA01BC
:1004C000A90141505109610971094F3F5105610569
:1004D000710509F008F49BC064E274EF80E090E0DD
:1004E000A50194010E94AA07BA01A901415051092E
:1004F000610971094F3F51056105710511F008F05F
:10050000B9C085E09091B100987F892B8093B100AC
:100510002EC060E072E18AE790E0A50194010E949C
:10052000AA07BA01A9014150510961097109411590
:10053000510581E06807710580F068E478EE81E09C
:1005400090E0A50194010E94AA07BA01A9014150B7
:1005500051096109710983E001C081E0113039F46A
:1005600090918100987F892B8093810018C0113071
:10057000B1F0123049F1111139C047BD8FEF9FEF33
:10058000DC018093080190930901A0930A01B093C4
:100590000B0180916E00826080936E0027C05093A3
:1005A0008900409388008FEF9FEFDC018093040166
:1005B00090930501A0930601B093070180916F000D
:1005C000826080936F0012C04093B3008FEF9FEF63
:1005D000DC0180930F0190931001A0931101B0935F
:1005E000120180917000826080937000BE01DD0F67
:1005F000880B990BDF91CF911F91FF90EF90DF90C7
:10060000CF90BF90AF909F908F900C94A10084E00A
:1006100079CF82E077CF4F3F51056105710541F1F8
:1006200038F162E17AE780E090E0A50194010E9450
:10063000AA07BA01A90141505109610971094F3F47
:1006400051056105710591F088F0D701C6013AE0C6
:10065000B595A795979587953A95D1F7AC01BD01CA
:10066000415051096109710985E01CCF84E01ACF1E
:1006700083E018CF62E17AE780E090E0A501940181
:100680000E94AA07BA01A9014150510961097109E3
:100690004F3F51056105710591F088F0D701C60102
:1006A0002AE0B595A795979587952A95D1F7AC013E
:1006B000BD01415051096109710987E023CF86E0EE
:1006C00021CF4F3F51056105710509F098F684E08F
:1006D000E7CE1F920F920FB60F9211242F933F93E4
:1006E0008F939F93AF93BF938091140190911501C5
:1006F000A0911601B09117013091130123E0230F4F
:100700002D3720F40196A11DB11D05C026E8230F49
:100710000296A11DB11D20931301809314019093A3
:100720001501A0931601B0931701809118019091C3
:100730001901A0911A01B0911B010196A11DB11DD3
:100740008093180190931901A0931A01B0931B0193
:10075000BF91AF919F918F913F912F910F900FBEBD
:100760000F901F9018951F920F920FB60F921124A1
:100770002F933F934F935F936F937F938F939F93A9
:10078000AF93BF93EF93FF9380910F01909110016E
:10079000A0911101B0911201892B8A2B8B2B51F161
:1007A00090910E01E0910C01F0910D01808189275B
:1007B000808380910F0190911001A0911101B0915F
:1007C0001201181619061A061B06C4F480910F01AF
:1007D00090911001A0911101B09112010197A1090E
:1007E000B10980930F0190931001A0931101B09370
:1007F000120104C0809100010E94DB00FF91EF9183
:10080000BF91AF919F918F917F916F915F914F9128
:100810003F912F910F900FBE0F901F9018957894D5
:1008200084B5826084BD84B5816084BD85B58260F5
:1008300085BD85B5816085BD80916E0081608093A6
:100840006E0010928100809181008260809381000F
:10085000809181008160809381008091800081601F
:10086000809380008091B10084608093B10080917A
:10087000B00081608093B00080917A0084608093A2
:100880007A0080917A00826080937A0080917A0069
:10089000816080937A0080917A00806880937A00EA
:1008A0001092C10064EF71E08CED93E00E944A0168
:1008B00068EE73E087E295E00E944A016AEF70E01B
:1008C00080E296E00E944A016AEF70E088EC95E0D1
:1008D0000E944A0168EE73E087E295E00E944A01B7
:1008E00064EF71E088EB97E00E944A0162EE74E0E9
:1008F00080EE96E00E944A0168EE73E088EC95E095
:100900000E944A0164EF71E08CED93E00E944A017D
:1009100068EE73E087E295E00E944A016AEF70E0BA
:1009200080E296E00E944A016AEF70E088EC95E070
:100930000E944A0168EE73E087E994E00E944A0150
:1009400064EF71E087E295E00E944A0168EE73E08F
:100950008CED93E00E944A0183E00E94DB0068EE88
:1009600073E080E090E00E94A10064EF71E08CED04
:1009700093E00E944A0168EE73E087E295E00E94EE
:100980004A016AEF70E080E296E00E944A016AEF55
:1009900070E088EC95E00E944A0168EE73E087E21F
:1009A00095E00E944A0164EF71E088EB97E00E94B5
:1009B0004A0168EE73E08DE299E00E944A0164EF1B
:1009C00071E089EA98E00E944A0168EE73E08DE2E6
:1009D00098E00E944A0164EF71E080EE96E00E9488
:1009E0004A0168EE73E08DE298E00E944A016AEFE6
:1009F00070E088EB97E00E944A016AEF70E08AE4B9
:100A000097E00E944A0168EE73E08CED93E00E944B
:100A10004A0164EF71E080E296E00E944A0168EECC
:100A200073E087E295E00E944A0183E00E94DB00C8
:100A300060ED77E080E090E00E94A10066E970E060
:100A400086E291E00E944A0183E00E94DB0062E3BB
:100A500070E080E090E00E94A10066E970E086E22C
:100A600091E00E944A0183E00E94DB0062E370E0B3
:100A700080E090E00E94A10066E970E086E291E0EB
:100A80000E944A0183E00E94DB0062E370E080E0A4
:100A900090E00E94A10064E873E088E891E00E9481
:100AA0004A0183E00E94DB0066E970E080E090E0AC
:100AB0000E94A10064E873E08BE492E00E944A0186
:100AC00083E00E94DB0062E370E080E090E00E943F
:100AD000A10066E970E08BE092E00E944A0183E0A9
:100AE0000E94DB0062E370E080E090E00E94A100E1
:100AF00066E970E08EEE91E00E944A0183E00E9478
:100B0000DB0062E370E080E090E00E94A10066E913
:100B100070E088EB91E00E944A0183E00E94DB00D4
:100B200062E370E080E090E00E94A10064E873E07E
:100B300080E193E00E944A0183E00E94DB0066E9C5
:100B400070E080E090E00E94A10064E873E08BE434
:100B500092E00E944A0183E00E94DB0064E670E0BC
:100B600080E090E00E94A10066E970E08BE092E0F6
:100B70000E944A0183E00E94DB0062E370E080E0B3
:100B800090E00E94A10066E970E08EEE91E00E9484
:100B90004A0183E00E94DB0062E370E080E090E0C5
:100BA0000E94A10066E970E088EB91E00E944A0192
:100BB00083E00E94DB0062E370E080E090E00E944E
:100BC000A10064E873E080E193E00E944A0183E0C1
:100BD0000E94DB0066E970E080E090E00E94A100E6
:100BE00064E873E08BE492E00E944A0183E00E9493
:100BF000DB0064E670E080E090E00E94A10066E91E
:100C000070E08BE092E00E944A0183E00E94DB00EA
:100C100062E370E080E090E00E94A10066E970E08D
:100C20008EEE91E00E944A0183E00E94DB0062E3C5
:100C300070E080E090E00E94A10066E970E08BE047
:100C400092E00E944A0183E00E94DB0062E370E0D0
:100C500080E090E00E94A10060EB74E088EB91E0FE
:100C60000E944A0183E00E94DB0060ED77E080E0B3
:100C700090E00E94A10064EF71E080E193E00E94A7
:100C80004A0183E00E94DB0064E670E080E090E0CF
:100C90000E94A10064EF71E080E193E00E944A01AC
:100CA00083E00E94DB0064E670E080E090E00E9458
:100CB000A10064EF71E080E193E00E944A0183E0CB
:100CC0000E94DB0064E670E080E090E00E94A100FA
:100CD00064EF71E08EE692E00E944A0183E00E9498
:100CE000DB0061E070E080E090E00E94A1006DE731
:100CF00070E084EA93E00E944A0183E00E94DB00F6
:100D000069E170E080E090E00E94A10064EF71E092
:100D100080E193E00E944A0183E00E94DB0064E6E8
:100D200070E080E090E00E94A10064EF71E08EE648
:100D300092E00E944A0183E00E94DB0061E070E0E3
:100D400080E090E00E94A1006DE770E084EA93E00B
:100D50000E944A0183E00E94DB0069E170E080E0CC
:100D600090E00E94A10064EF71E080E193E00E94B6
:100D70004A0183E00E94DB0060ED77E080E090E0D4
:100D80000E94A10060E971E088EB91E00E944A01B5
:100D900083E00E94DB0060E971E080E090E00E9467
:100DA000A10060E971E08AE491E00E944A0183E0D9
:100DB0000E94DB0060E971E080E090E00E94A10009
:100DC00060E971E088EB91E00E944A0183E00E94B3
:100DD000DB0068EC70E080E090E00E94A10068EC2D
:100DE00070E08AE491E00E944A0183E00E94DB0007
:100DF00068EC70E080E090E00E94A10068EC70E098
:100E000088EB91E00E944A0183E00E94DB0068ECDD
:100E100070E080E090E00E94A10064E670E082ED66
:100E200091E00E944A0183E00E94DB0064E670E0EA
:100E300080E090E00E94A10060E971E08EEE91E018
:100E40000E944A0183E00E94DB0060E971E080E0DB
:100E500090E00E94A10060E971E082E791E00E94C9
:100E60004A0183E00E94DB0060E971E080E090E0ED
:100E70000E94A10060E971E08EEE91E00E944A01BB
:100E800083E00E94DB0068EC70E080E090E00E946C
:100E9000A10068EC70E082E791E00E944A0183E0E3
:100EA0000E94DB0068EC70E080E090E00E94A1000E
:100EB00068EC70E08EEE91E00E944A0183E00E94AF
:100EC000DB0068EC70E080E090E00E94A10064E646
:100ED00070E082ED91E00E944A0183E00E94DB0015
:100EE00064E670E080E090E00E94A10060E971E0BB
:100EF00088EB91E00E944A0183E00E94DB0060E9F8
:100F000071E080E090E00E94A10060E971E08AE475
:100F100091E00E944A0183E00E94DB0060E971E0F9
:100F200080E090E00E94A10060E971E088EB91E030
:100F30000E944A0183E00E94DB0060E971E080E0EA
:100F400090E00E94A100C0E0D0E02097F1F30E9461
:100F50000000FBCF052E97FB1EF400940E94C107F2
:100F600057FD07D00E94C90707FC03D04EF40C942C
:100F7000C10750954095309521953F4F4F4F5F4F9A
:100F8000089590958095709561957F4F8F4F9F4FF5
:100F90000895A1E21A2EAA1BBB1BFD010DC0AA1FBA
:100FA000BB1FEE1FFF1FA217B307E407F50720F0D2
:100FB000A21BB30BE40BF50B661F771F881F991F4D
:100FC0001A9469F760957095809590959B01AC0196
:0A0FD000BD01CF010895F894FFCF92
:020FDA00FF0016
:00000001FF
