:020000040000FA
:100000000C9472000C949A000C949A000C949A0030
:100010000C949A000C949A000C949A000C949A00F8
:100020000C949A000C949A000C949A000C949A00E8
:100030000C949A000C949A000C949A000C949A00D8
:100040000C9447060C949A000C9415060C94EF053A
:100050000C949A000C949A000C949A000C949A00B8
:100060000C9491060C949A000000000025002800D2
:100070002B00040404040404040402020202020229
:10008000030303030303010204081020408001025C
:1000900004081020010204081020000000080002DB
:1000A00001000003040700000000000000003231DE
:1000B0003A30303A3133004A756E202034203230E5
:1000C000323100436F756C646E27742066696E640C
:1000D00020525443001F1C1F1E1F1E1F1F1E1F1EC9
:1000E000BD07310B11241FBECFEFD8E0DEBFCDBF5F
:1000F00023E0A2ECB1E001C01D92A43AB207E1F7FF
:1001000011E0A0E0B1E0EEEAFBE102C005900D9243
:10011000A23CB107D9F710E0C1E7D0E004C02197B5
:10012000FE010E94D20BC037D107C9F70E946708B1
:100130000C94CA0D0C94000008950895AF92BF92DC
:10014000CF92DF92EF92FF920F931F93CF93DF93A3
:100150006C017B018B01040F151FEB015E01AE18D2
:10016000BF08C017D10759F06991D601ED91FC91F4
:100170000190F081E02DC6010995892B79F7C50121
:10018000DF91CF911F910F91FF90EF90DF90CF9073
:10019000BF90AF900895FC01538D448D252F30E022
:1001A000842F90E0821B930B541710F0CF96089584
:1001B00001970895FC01918D828D981761F0A28DB1
:1001C000AE0FBF2FB11D5D968C91928D9F5F9F7377
:1001D000928F90E008958FEF9FEF0895FC01918D2D
:1001E000828D981731F0828DE80FF11D858D90E09A
:1001F00008958FEF9FEF0895FC01918D228D892F37
:1002000090E0805C9F4F821B91098F73992708951E
:1002100085E892E00E94FC0021E0892B09F420E0AF
:10022000822F089580E090E0892B29F00E94080138
:1002300081110C9400000895FC01A48DA80FB92F22
:10024000B11DA35ABF4F2C91848D90E001968F73FE
:100250009927848FA689B7892C93A089B1898C911D
:10026000837080648C93938D848D981306C002886C
:10027000F389E02D80818F7D80830895EF92FF9236
:100280000F931F93CF93DF93EC0181E0888F9B8DB9
:100290008C8D98131AC0E889F989808185FF15C073
:1002A0009FB7F894EE89FF896083E889F989808196
:1002B0008370806480839FBF81E090E0DF91CF9165
:1002C0001F910F91FF90EF900895F62E0B8D10E087
:1002D0000F5F1F4F0F731127E02E8C8D8E110CC0F6
:1002E0000FB607FCFACFE889F989808185FFF5CF41
:1002F000CE010E941C01F1CFEB8DEC0FFD2FF11D03
:10030000E35AFF4FF0829FB7F8940B8FEA89FB897D
:1003100080818062CFCF682F85E892E00C943E0107
:10032000CF93DF93EC01888D8823B9F0AA89BB892C
:10033000E889F9898C9185FD03C0808186FD0DC017
:100340000FB607FCF7CF8C9185FFF2CF808185FF38
:10035000EDCFCE010E941C01E9CFDF91CF9108952E
:1003600090E0FC01E656FF4F2491FC01EA57FF4F55
:100370003491FC01EE58FF4FE491EE23C9F02223A3
:1003800039F0233001F1A8F4213019F1223029F19C
:10039000F0E0EE0FFF1FE859FF4FA591B4918FB722
:1003A000F894EC91611126C030953E233C938FBFA9
:1003B00008952730A9F02830C9F0243049F78091FA
:1003C00080008F7D03C0809180008F7780938000B4
:1003D000DFCF84B58F7784BDDBCF84B58F7DFBCF36
:1003E0008091B0008F778093B000D2CF8091B00021
:1003F0008F7DF9CF3E2BDACF3FB7F89480910B0277
:1004000090910C02A0910D02B0910E0226B5A89B0E
:1004100005C02F3F19F00196A11DB11D3FBFBA2F96
:10042000A92F982F8827BC01CD01620F711D811D56
:10043000911D42E0660F771F881F991F4A95D1F7DB
:1004400008958F929F92AF92BF92CF92DF92EF92D8
:10045000FF924B015C010E94FC016B017C010E9438
:10046000FC016C197D098E099F09683E7340810566
:100470009105A8F321E0821A9108A108B10888EE3D
:10048000C80E83E0D81EE11CF11C81149104A10464
:10049000B10429F7FF90EF90DF90CF90BF90AF901D
:1004A0009F908F9008952091E301260F3327331FEB
:1004B00021323105ECF420915B02FC0190E080E0F8
:1004C000243069F082E00895A091E3012191AC010C
:1004D0004D535E4FA40FB52FB11D2C930196861777
:1004E00098F38091E301680F6093E30180E0089541
:1004F00081E0089510925B0281E080935A0210928D
:10050000350261E082E10E94B00161E083E10E9476
:10051000B001E9EBF0E080818E7F808380818D7F68
:10052000808388E48093B80085E48093BC000895BC
:10053000CF93DF9391E09093C2018823B9F0C091EB
:10054000B800D091BA008091BC008A7B8093BC0037
:1005500060E082E10E94B00160E083E10E94B001AE
:100560000E947A02D093BA00C093B800DF91CF9175
:100570000895CF92DF92EF92FF920F931F93CF9344
:10058000DF93D091840281E0D13208F09CC0C09109
:1005900083020E94FC016B017C0180915B0281114E
:1005A0006CC082E080935B0281E080935A028FEFFF
:1005B0008093590210925802D0935702A3E6B2E0FA
:1005C000E7E3F2E080E0D8138DC01092360280910C
:1005D0003602CC0FC82BC093360280913502813091
:1005E00009F084C0109235020E94FC016B017C016D
:1005F000809136028093BB0080915D0290915E02F3
:10060000A0915F02B0916002892B8A2B8B2BA1F005
:100610000E94FC0100915D0210915E0220915F0238
:10062000309160026C197D098E099F090617170722
:100630002807390708F442C08091BC0083FDD8CF59
:1006400085EC8093BC000E94FC016B017C018091D1
:100650005B02823009F44CC0809159028F3F09F44B
:1006600069C080915902803209F466C080915902B4
:10067000803309F463C084E026C080915D029091CC
:100680005E02A0915F02B0916002892B8A2B8B2BB6
:1006900009F483CF0E94FC0100915D0210915E027B
:1006A00020915F02309160026C197D098E099F09CB
:1006B000061717072807390708F06FCF80915C02EB
:1006C0000E94980285E010926202109284021092B9
:1006D0006102DF91CF911F910F91FF90EF90DF901A
:1006E000CF9008959D9191938F5F6DCF85EEA9CFA7
:1006F00080915D0290915E02A0915F02B0916002D4
:10070000892B8A2B8B2B09F4A2CF0E94FC0100912C
:100710005D0210915E0220915F02309160026C19BF
:100720007D098E099F09061717072807390708F062
:100730008ECFC4CF80E0C7CF82E0C5CF83E0C3CFE8
:10074000CF92DF92EF92FF920F931F93CF93DF939D
:10075000D82FC62F613208F098C00E94FC016B01AF
:100760007C0180915B0281116BC081E080935B0210
:1007700080935A029FEF90935902109258029C0F57
:10078000909357028093360280913602DD0FD82B6A
:10079000D093360280913502813009F078C01092F2
:1007A00035020E94FC016B017C018091360280932E
:1007B000BB0080915D0290915E02A0915F02B091BA
:1007C0006002892B8A2B8B2BA1F00E94FC010091E7
:1007D0005D0210915E0220915F02309160026C19FF
:1007E0007D098E099F09061717072807390708F49E
:1007F00048C08091BC0083FDD8CF85EC8093BC00BD
:100800000E94FC016B017C0180915B02813009F444
:1008100040C0809158028C1710F4C0915802E7E351
:10082000F2E0A5E1B2E080E08C1355C08C2FDF919F
:10083000CF911F910F91FF90EF90DF90CF9008958F
:1008400080915D0290915E02A0915F02B091600282
:10085000892B8A2B8B2B09F484CF0E94FC010091F9
:100860005D0210915E0220915F02309160026C196E
:100870007D098E099F09061717072807390708F011
:1008800070CF80915C020E949802C0E0CFCF85EECD
:10089000B5CF80915D0290915E02A0915F02B09110
:1008A0006002892B8A2B8B2B09F4AECF0E94FC01AE
:1008B00000915D0210915E0220915F023091600212
:1008C0006C197D098E099F09061717072807390734
:1008D00008F09ACFD6CF91919D938F5FA5CF0895C1
:1008E000E091140280911302E81730F4F0E0EB5E1F
:1008F000FD4F808190E008958FEF9FEF08959091D4
:100900001402809113022FEF3FEF981748F4E92F5C
:10091000F0E0EB5EFD4F208130E09F5F909314028A
:10092000C90108958091130290911402891B990BBB
:100930000895CF92DF92EF92FF920F931F93CF9380
:10094000DF937C01CB018A0120916102222389F08F
:10095000EB016B01C40ED51ECC15DD0569F0699164
:10096000D701ED91FC910190F081E02DC70109952F
:10097000F3CF642F0E945302C801DF91CF911F91E2
:100980000F91FF90EF90DF90CF900895CF93DF937A
:100990001F92CDB7DEB76983209161022223F9F05F
:1009A00020918402203258F021E030E0FC013383B2
:1009B000228390E080E00F90DF91CF9108958091A5
:1009C0006202E82FF0E0ED59FD4F998190838F5F2F
:1009D000809362028093840281E090E0ECCF61E03A
:1009E000CE0101960E945302F7CF90E080E0089577
:1009F00081E08093610288E6809383021092620214
:100A0000109284026FE082E293E00E94C6040E948A
:100A1000B90261E088E60E94A0031092140280935C
:100A2000130282E293E00E947F040895FC0101908A
:100A30000020E9F73197AF01481B590BBC0185E84D
:100A400092E00C949E008F929F92AF92BF920F9370
:100A50001F93CF93DF93CDB7DEB7A1970FB6F8946E
:100A6000DEBF0FBECDBF19A2423008F44AE08E01AE
:100A70000F5D1F4F842E912CB12CA12CA501940148
:100A80000E94B00BE62FB901CA01EA30F4F4E05D30
:100A9000D801EE938D01232B242B252B79F790E0A1
:100AA00080E0109719F0CD010E941605A1960FB6AF
:100AB000F894DEBF0FBECDBFDF91CF911F910F9194
:100AC000BF90AF909F908F900895E95CE1CF682F21
:100AD00070E090E080E04AE00C942305EF92FF92F2
:100AE0000F931F93CF93DF93EC017B011982188240
:100AF0001B821A821D821C82FB0101900020E9F7F3
:100B000031978F01061B170BB8016F5F7F4F90E085
:100B100080E00E94FD0C0097B9F0998388831B83C5
:100B20000A832C813D81232B11F4FC0110821D834B
:100B30000C83B70188819981DF91CF911F910F912B
:100B4000FF90EF900C94C30D88819981009711F06C
:100B50000E94740C198218821D821C821B821A82C8
:100B6000DF91CF911F910F91FF90EF90089585ED48
:100B70008093BC0080915D0290915E02A0915F0223
:100B8000B09160020796A11DB11D23E0B695A7950F
:100B9000979587952A95D1F72091BC0024FD03C035
:100BA00010925B02089540915D0250915E02609147
:100BB0005F0270916002452B462B472B69F300972B
:100BC000A105B10541F025E32A95F1F70000019751
:100BD000A109B109E1CF80915C020C9498021F92A7
:100BE0000F920FB60F9211242F933F934F935F9361
:100BF0006F937F938F939F93AF93BF93EF93FF93E5
:100C000085E892E00E941C01FF91EF91BF91AF91A6
:100C10009F918F917F916F915F914F913F912F9114
:100C20000F900FBE0F901F9018951F920F920FB646
:100C30000F9211242F938F939F93EF93FF93E09143
:100C40009502F09196028081E0919B02F0919C02C6
:100C500082FD1BC0908180919E028F5F8F732091D7
:100C60009F02821741F0E0919E02F0E0EB57FD4FAA
:100C7000958F80939E02FF91EF919F918F912F917D
:100C80000F900FBE0F901F9018958081F4CF1F9288
:100C90000F920FB60F9211242F933F938F939F9330
:100CA000AF93BF938091070290910802A09109022F
:100CB000B0910A023091060223E0230F2D3758F538
:100CC0000196A11DB11D2093060280930702909307
:100CD0000802A0930902B0930A0280910B0290913E
:100CE0000C02A0910D02B0910E020196A11DB11D42
:100CF00080930B0290930C02A0930D02B0930E020E
:100D0000BF91AF919F918F913F912F910F900FBE07
:100D10000F901F90189526E8230F0296A11DB11D74
:100D2000D2CF1F920F920FB60F9211242F933F93A1
:100D30004F935F936F937F938F939F93AF93BF93E3
:100D4000EF93FF938091B900887F803609F44AC001
:100D5000F0F5883209F4A7C018F5803109F49BC07A
:100D6000B8F4882309F4F9C0883009F494C0FF91DD
:100D7000EF91BF91AF919F918F917F916F915F9113
:100D80004F913F912F910F900FBE0F901F9018958C
:100D9000883109F488C0803251F78093590214C019
:100DA000803409F49DC040F48033B9F38833F9F6F8
:100DB0008093590285ECB0C0803509F485C0883530
:100DC00009F496C0883499F60E94B705D0CF8839C7
:100DD00009F48CC038F5883729F050F4883611F0C2
:100DE000803729F683E080935B021092050257C09A
:100DF000883809F47BC0803919F0803809F0B7CF02
:100E000080910502803208F071C0E091050281E016
:100E10008E0F809305028091BB00F0E0EB51FE4FF6
:100E200080833DC0803B39F0E0F4803A09F479C01A
:100E3000883A09F09CCF84E080935B021092E40131
:100E40001092E301E0911102F09112020995809154
:100E5000E30181110FC081E08093E3011092C3018F
:100E600009C0803C09F4A6CF883C09F4A3CF883B95
:100E700009F07DCFE091E40181E08E0F8093E401E1
:100E8000F0E0ED53FE4F80818093BB009091E40130
:100E90008091E30129C0809136028093BB0085ECEC
:100EA0008093BC0064CF90915802809157029817AC
:100EB00058F5E091580281E08E0F80935802F0E0DF
:100EC000E95CFD4F8081E9CFE091580281E08E0F0F
:100ED000809358028091BB00F0E0E95CFD4F808375
:100EE00090915802809157029817C8F285E8D8CFA0
:100EF000E091580281E08E0F809358028091BB00F0
:100F0000F0E0E95CFD4F808380915A0281115CCF53
:100F100081E08093350284EA8093BC0010925B02EA
:100F200026CF85EC8093BC0010925B028091050275
:100F3000803230F4E0910502F0E0EB51FE4F108278
:100F40006091050270E0E0910F02F091100285EED1
:100F500091E00995109205020ACF1092590234CF00
:100F6000FC01908190539A3008F090E08181805389
:100F70002AE0929F800D11240895E5E8F2E01382A3
:100F8000128288EE93E0A0E0B0E084839583A6838C
:100F9000B7832AE031E03183208325EC30E03587C8
:100FA000248724EC30E03787268720EC30E0318B33
:100FB000208B21EC30E0338B228B22EC30E0358B20
:100FC000248B26EC30E0378B268B118E128E138EFD
:100FD000148EE2E2F3E01382128284839583A68367
:100FE000B7838CE191E0918380836AE271E086E7C8
:100FF00093E00E946E0562E371E08CE793E00E944B
:101000006E0568E371E082E893E00E946E056FE38D
:1010100071E088E893E00E946E0569E471E08EE873
:1010200093E00E946E0560E571E084E993E00E9420
:101030006E0568E571E08AE993E00E946E056FE550
:1010400071E08EE293E00E946E0565E671E084E354
:1010500093E00E946E056DE671E08AE393E00E94E2
:101060006E0563E771E080E493E00E946E0569E736
:1010700071E086E493E00E946E056EE771E08CE417
:1010800093E00E946E0564E871E082E593E00E94BF
:101090006E056AE871E088E593E00E946E0561E9FB
:1010A00071E08EE593E00E946E056CE971E084E6E4
:1010B00093E00E946E0564EA71E08AE693E00E9484
:1010C0006E056EEA71E080E793E00C946E05CF93B5
:1010D000DF93CDB7DEB72B970FB6F894DEBF0FBE08
:1010E000CDBF789484B5826084BD84B5816084BDB1
:1010F00085B5826085BD85B5816085BD80916E00B6
:10110000816080936E0010928100809181008260E6
:101110008093810080918100816080938100809123
:1011200080008160809380008091B1008460809312
:10113000B1008091B00081608093B00080917A000E
:10114000846080937A0080917A00826080937A0034
:1011500080917A00816080937A0080917A00806823
:1011600080937A001092C100E0919502F09196026E
:1011700082E08083E0919102F09192021082E091EE
:101180009302F09194028FEC808310929D02E09183
:101190009902F0919A0286E08083E0919702F091A3
:1011A0009802808180618083E0919702F09198029B
:1011B000808188608083E0919702F091980280811D
:1011C00080688083E0919702F091980280818F7D02
:1011D000808368EE73E080E090E00E94210210922C
:1011E00014021092130210926202109284020E9462
:1011F0007A028CE990E090931202809311028DE9BB
:1012000090E09093100280930F0281E0809361023E
:1012100088E6809383020E94B902811136C00E9441
:10122000F80490E0880F892F881F990B892B09F407
:10123000E4C04BE050E067EB70E0CE0101960E9405
:10124000500BCE010A960E94B007082FE981E154A5
:10125000E33108F036C00E2E000CFF0BEE5CF64FAB
:101260000C94D20BC30A61096109D70A6109D90A32
:10127000610961096109580961096109CA0AD50A48
:10128000D30A610961096109D10A03EC10E0F80190
:101290006491662341F085E892E00E943E010F5F71
:1012A0001F4F892BA1F788EB91E00E941605FFCF15
:1012B0008A8111E0813629F08B8116E08E3609F0A3
:1012C00017E0CE0105960E94B007C82E48E050E016
:1012D0006EEA70E0CE0101960E94500BCE0101969D
:1012E0000E94B007B82ECE0104960E94B007A82E27
:1012F000CE0107960E94B007982EEE24E394E09268
:10130000610288E6F82EF092830210926202109237
:10131000840260E082E293E00E94C6049AE0D92E43
:10132000892D6D2D0E94900B682F660F680F660F38
:10133000690D82E293E00E94C6048A2D6D2D0E9401
:10134000900B682F660F680F660F6A0D82E293E0BC
:101350000E94C6048B2D6D2D0E94900B682F660F86
:10136000680F660F6B0D82E293E00E94C60460E096
:1013700082E293E00E94C6048C2D6D2D0E94900B9A
:10138000682F660F680F660F6C0D82E293E00E9473
:10139000C604812F6D2D0E94900B682F660F680F79
:1013A000660F610F82E293E00E94C604802F6D2DCC
:1013B0000E94900B682F660F680F660F600F82E225
:1013C00093E00E94C6040E94B9020E94F804182FFC
:1013D000E0926102F0928302109262021092840203
:1013E0006FE082E293E00E94C604612F6F7782E291
:1013F00093E00E94C6040E94B902BDE6CB2EDD2414
:10140000D39417E0A12EB12C00E0802E00E0902EA6
:10141000F1E0F093610228E62093830210926202C9
:101420001092840260E082E293E00E94C6040E946F
:10143000B90267E088E60E94A0031092140280932C
:10144000130282E293E00E947F048F77282F30E01E
:1014500054E0359527955A95E1F7922F990F990FFA
:10146000422E491A440C480E82E293E00E947F0407
:101470009C0164E0359527956A95E1F72F70332735
:10148000922F990F990F322E391A330C380E82E2AF
:1014900093E00E947F049C0174E0359527957A952E
:1014A000E1F72F703327922F990F990F222E291AC7
:1014B000220C280E82E293E00E947F0482E293E0F5
:1014C0000E947F049C01E4E035952795EA95E1F7B9
:1014D0002F703327922F990F990F122F191B110F6D
:1014E000180F82E293E00E947F049C01F4E035959E
:1014F0002795FA95E1F72F703327922F990F990FBF
:10150000522E591A550C580E82E293E00E947F0425
:101510009C01A4E035952795AA95E1F72F70332714
:10152000922F990F990F022F091B000F080F602EA1
:10153000712C730180E3E81A88EFF80AB7010F2CC9
:10154000000C880B990B4AE00E9423058FE20E9451
:101550008B01852D0E9467058FE20E948B01812FF0
:101560000E9467058BEB91E00E941605212F30E069
:10157000E5EDF0E081E08515F0F49491290F311D3F
:101580008F5F3196F8CF8B8114E0823709F499CEC2
:1015900018E097CE8B8113E0823709F492CE15E0E4
:1015A00090CE19E08ECE1AE08CCE1BE08ACE1CE0E5
:1015B00088CE12E086CEE2E0E51520F4037011F447
:1015C0002F5F3F4FC7018D5C974096958795969505
:1015D00087956C9C70016D9CF00C7C9CF00C112428
:1015E0008E0D9F1D0596820F931FB5010E949C0BC7
:1015F00026E0289FF001299FF00D1124EA58FC4FA6
:10160000448155816081718185E892E00E949E004D
:101610008EEB91E00E941605822D0E9467058AE3F9
:101620000E948B01832D0E9467058AE30E948B0133
:10163000842D0E94670588EB91E00E94160568EBF7
:101640007BE080E090E00E9421028114910409F483
:10165000DFCE0E940801882309F4DACE0E94000040
:10166000D7CECF93DF93C6E7D3E0269788819981C1
:10167000009711F00E94740C83E0CE32D807A9F7CE
:10168000C0EAD3E0269788819981009711F00E94E3
:10169000740C83E0C637D807A9F7DF91CF9108957E
:1016A000FB01DC0102C005900D9241505040D8F77B
:1016B00008952F923F924F925F926F927F928F92F6
:1016C0009F92AF92BF92CF92DF92EF92FF920F93D1
:1016D0001F93CF93DF93CDB7DEB7CA1BDB0B0FB6DB
:1016E000F894DEBF0FBECDBF09942A883988488898
:1016F0005F846E847D848C849B84AA84B984C8842E
:10170000DF80EE80FD800C811B81AA81B981CE0F24
:10171000D11D0FB6F894DEBF0FBECDBFED01089509
:10172000991B79E004C0991F961708F0961B881F33
:101730007A95C9F780950895AA1BBB1B51E107C094
:10174000AA1FBB1FA617B70710F0A61BB70B881F51
:10175000991F5A95A9F780959095BC01CD010895E0
:10176000A1E21A2EAA1BBB1BFD010DC0AA1FBB1FA5
:10177000EE1FFF1FA217B307E407F50720F0A21B17
:10178000B30BE40BF50B661F771F881F991F1A9484
:1017900069F760957095809590959B01AC01BD01AE
:1017A000CF010895EE0FFF1F0590F491E02D0994ED
:1017B0000F931F93CF93DF938230910510F482E053
:1017C00090E0E091A203F091A30330E020E0B0E0CC
:1017D000A0E0309799F42115310509F44AC0281B7F
:1017E000390B24303105D8F58A819B81611571054B
:1017F00089F1FB0193838283FE0111C040815181F5
:101800000281138148175907E0F04817590799F4E6
:10181000109761F012960C93129713961C933296C0
:10182000CF01DF91CF911F910F9108950093A203F3
:101830001093A303F4CF2115310551F0421753073C
:1018400038F0A901DB019A01BD01DF01F801C1CF28
:10185000EF01F9CF9093A3038093A203CDCFFE01B4
:10186000E20FF31F8193919322503109398328832A
:10187000D7CF2091A0033091A103232B41F42091D5
:101880000201309103013093A1032093A003209122
:101890000001309101012115310541F42DB73EB70A
:1018A0004091040150910501241B350BE091A003E8
:1018B000F091A103E217F307A0F42E1B3F0B2817AA
:1018C000390778F0AC014E5F5F4F2417350748F0B9
:1018D0004E0F5F1F5093A1034093A00381939193F8
:1018E0009FCFF0E0E0E09CCFCF93DF930097E9F04B
:1018F000FC01329713821282A091A203B091A3033C
:10190000ED0130E020E01097A1F420813181820FB9
:10191000931F2091A0033091A1032817390709F0E4
:1019200061C0F093A103E093A003DF91CF910895EC
:10193000EA01CE17DF07E8F54A815B819E01411578
:101940005105B1F7E901FB83EA8349915991C40F2D
:10195000D51FEC17FD0761F4808191810296840FF9
:10196000951FE90199838883828193819B838A8370
:10197000F0E0E0E012968D919C9113970097B9F5F5
:101980002D913C911197CD010296820F931F2091CA
:10199000A0033091A1032817390739F6309751F584
:1019A0001092A3031092A203B093A103A093A003EB
:1019B000BCCFD383C28340815181840F951FC81748
:1019C000D90761F44E5F5F4F88819981480F591F95
:1019D000518340838A819B819383828321153105C2
:1019E00009F0B0CFF093A303E093A2039ECFFD01D3
:1019F000DC01C0CF13821282D7CFB0E0A0E0E3E0D9
:101A0000FDE00C945B0B8C01009751F4CB010E941C
:101A1000D80B8C01C801CDB7DEB7E0E10C94770B91
:101A2000FC01E60FF71F9C0122503109E217F30772
:101A300008F49DC0D901CD91DC911197C617D70745
:101A400098F0C530D10530F3CE010497861797077B
:101A500008F3C61BD70B2297C193D1936D937C9348
:101A6000CF010E94740CD6CF5B01AC1ABD0A4C01A9
:101A70008C0E9D1EA091A203B091A303512C412C6A
:101A8000F12CE12C109731F58091A0039091A103E6
:101A90008815990509F05CC04616570608F058C02D
:101AA0008091000190910101009741F48DB79EB79C
:101AB0004091040150910501841B950BE817F9072B
:101AC00008F055C0F093A103E093A003F9017183DE
:101AD0006083A0CF8D919C91119712966C90129774
:101AE00013967C901397A815B90559F56C0142E03F
:101AF000C40ED11CCA14DB0420F1AC014A195B09E5
:101B0000DA011296159780F06282738251834083C6
:101B1000D9016D937C93E114F10471F0D701139610
:101B2000FC93EE93129776CF22968C0F9D1FF901AE
:101B300091838083F301EFCFF093A303E093A2039B
:101B400069CF4816590608F42C017D01D3019ACFBC
:101B5000CB010E94D80B7C01009749F0AE01B8017F
:101B60000E94BA0DC8010E94740C870153CF10E087
:101B700000E050CFFB01DC0102C001900D9241500A
:101B80005040D8F70895FB01DC0101900D92002030
:101B9000E1F7089510E0C1E7D0E004C0FE010E9423
:101BA000D20B2196C237D107C9F7F894FFCF0000B6
:101BB000A4038000000000003E019E00CB009001C5
:101BC000FC00DA00EE0000000000C6049904F504F1
:101BD0006F0492047F047004446F6D696E676F0038
:101BE0004C756E6573004D6172746573004D696567
:101BF00072636F6C6573004A75657665730056692C
:101C000065726E65730053616261646F00456E6555
:101C1000726F004665627265726F004D61727A6F15
:101C200000416272696C004D61796F004A756E699E
:101C30006F004A756C696F0041676F73746F005372
:101C400065707469656D627265004F637475627268
:101C500065004E6F7669656D6272650044696369FF
:101C6000656D627265000D0A0020280029200000C1
:107E0000112484B714BE81FFF0D085E080938100F7
:107E100082E08093C00088E18093C10086E0809377
:107E2000C20080E18093C4008EE0C9D0259A86E02C
:107E300020E33CEF91E0309385002093840096BBD3
:107E4000B09BFECF1D9AA8958150A9F7CC24DD24C4
:107E500088248394B5E0AB2EA1E19A2EF3E0BF2EE7
:107E6000A2D0813461F49FD0082FAFD0023811F036
:107E7000013811F484E001C083E08DD089C08234E0
:107E800011F484E103C0853419F485E0A6D080C0E4
:107E9000853579F488D0E82EFF2485D0082F10E0AE
:107EA000102F00270E291F29000F111F8ED06801E7
:107EB0006FC0863521F484E090D080E0DECF843638
:107EC00009F040C070D06FD0082F6DD080E0C81688
:107ED00080E7D80618F4F601B7BEE895C0E0D1E017
:107EE00062D089930C17E1F7F0E0CF16F0E7DF06D8
:107EF00018F0F601B7BEE89568D007B600FCFDCFD4
:107F0000A601A0E0B1E02C9130E011968C91119780
:107F100090E0982F8827822B932B1296FA010C0160
:107F200087BEE89511244E5F5F4FF1E0A038BF0790
:107F300051F7F601A7BEE89507B600FCFDCF97BE46
:107F4000E89526C08437B1F42ED02DD0F82E2BD052
:107F50003CD0F601EF2C8F010F5F1F4F84911BD097
:107F6000EA94F801C1F70894C11CD11CFA94CF0C13
:107F7000D11C0EC0853739F428D08EE10CD085E9AC
:107F80000AD08FE07ACF813511F488E018D01DD067
:107F900080E101D065CF982F8091C00085FFFCCF94
:107FA0009093C60008958091C00087FFFCCF809118
:107FB000C00084FD01C0A8958091C6000895E0E648
:107FC000F0E098E1908380830895EDDF803219F02E
:107FD00088E0F5DFFFCF84E1DECF1F93182FE3DFCA
:107FE0001150E9F7F2DF1F91089580E0E8DFEE27F6
:047FF000FF270994CA
:027FFE00040479
:00000001FF
