:020000040000FA
:100000000C9462000C948A000C948A000C948A0070
:100010000C948A000C948A000C948A000C948A0038
:100020000C948A000C948A000C948A000C948A0028
:100030000C948A000C948A000C948A000C948A0018
:100040000C947A030C948A000C948A000C948A0015
:100050000C948A000C948A000C948A000C948A00F8
:100060000C948A000C948A000000000024002700F1
:100070002A0000000000250028002B0000000000DE
:1000800023002600290004040404040404040202DA
:100090000202020203030303030301020408102007
:1000A0004080010204081020010204081020000012
:1000B0000008000201000003040700000000000027
:1000C0000000AD0511241FBECFEFD8E0DEBFCDBFCD
:1000D00011E0A0E0B1E0E8E5FCE002C005900D927F
:1000E000AA39B107D9F722E0AAE9B1E001C01D920F
:1000F000AA32B207E1F710E0C2E6D0E004C02197CF
:10010000FE010E942406C136D107C9F70E94C4032C
:100110000C942A060C94000096E0899FD0011124CB
:10012000AD55BE4F90967C936E935F9791E09196FC
:100130009C939197E0911002F091110290910F021F
:10014000992339F0309751F0811108C08091BF0197
:100150000994309719F05C968C91FACF0895CF925C
:10016000DF92EF92FF920F931F9396E0899FF00129
:100170001124ED55FE4F11A2278D30A121303105FC
:1001800051F178F02230310509F451C023303105A6
:1001900009F452C01F910F91FF90EF90DF90CF9024
:1001A00008956623B9F361E070E00E948C002FB7D8
:1001B000F89480919F019091A001A091A101B0912C
:1001C000A2012FBF8093FB019093FC01A093FD013E
:1001D000B093FE01DFCF9FB7F894C0909F01D090FD
:1001E000A001E090A101F090A2019FBF0091FB014E
:1001F0001091FC012091FD013091FE01C01AD10A3D
:10020000E20AF30A00910D0210910E0230E020E0A4
:100210000C151D052E053F0550F462E070E01F919E
:100220000F91FF90EF90DF90CF900C948C006111B4
:10023000B1CF63E070E0F3CF70E060E0F0CFAF9259
:10024000BF92CF92DF92EF92FF920F931F93CF93C3
:10025000DF936C017B018B01040F151FEB015E0125
:10026000AE18BF08C017D10759F06991D601ED91BA
:10027000FC910190F081E02DC6010995892B79F759
:10028000C501DF91CF911F910F91FF90EF90DF900B
:10029000CF90BF90AF900895833081F028F48130E3
:1002A00099F08230A9F008958730A9F08830C9F01C
:1002B0008430B1F4809180008F7D03C080918000F4
:1002C0008F7780938000089584B58F7784BD0895DB
:1002D00084B58F7DFBCF8091B0008F778093B00085
:1002E00008958091B0008F7DF9CFCF93DF93282FB1
:1002F00030E0F901E255FF4F8491F901E656FF4FD6
:10030000D491F901EA57FF4FC491CC23A1F0811198
:100310000E944C01EC2FF0E0EE0FFF1FE458FF4F5E
:10032000A591B491EC91ED2381E090E009F480E097
:10033000DF91CF91089580E090E0FACF862F0C9462
:1003400075011F93CF93DF93282F30E0F901E25519
:10035000FF4F8491F901E656FF4FD491F901EA5716
:10036000FF4FC491CC23A9F0162F81110E944C019C
:10037000EC2FF0E0EE0FFF1FEE58FF4FA591B49168
:100380008FB7F894EC91111108C0D095DE23DC935F
:100390008FBFDF91CF911F910895DE2BF8CF862F6D
:1003A000642F0C94A101CF93DF9390E0FC01E656FB
:1003B000FF4F24918A579F4FFC0184918823C9F0F5
:1003C00090E0880F991FFC01E859FF4FA591B49167
:1003D000FC01EE58FF4FC591D49161110DC09FB73C
:1003E000F8948C91209582238C93888128232883EC
:1003F0009FBFDF91CF910895623051F49FB7F89479
:100400003C91822F809583238C93E8812E2BEFCF14
:100410008FB7F894EC912E2B2C938FBFEACF862FB9
:10042000642F0C94D301089590E080E00895FC01BE
:1004300001900020E9F73197AF01481B590BBC012F
:1004400082E192E00C941F01CF93DF93EC0160E016
:100450008E810E94A10161E08E810E94A10160E075
:100460008E810E94A1018BE891E00197F1F7DF9165
:10047000CF910895CF92DF92EF92FF920F931F9347
:10048000CF93DF936C017C0187E0E80EF11CD0E094
:10049000C0E0062F10E0B8010C2E02C075956795DC
:1004A0000A94E2F76170F70181917F010E94A10136
:1004B0002196C430D10579F7C601DF91CF911F9104
:1004C0000F91FF90EF90DF90CF900C942402CF9289
:1004D000DF92EF92FF920F931F93CF93DF93EC0184
:1004E000F62E642F8C810E94A1018D818F3F19F01F
:1004F00060E00E94A1010F2D10E08F8584FF25C0D0
:100500006E0187E0C80ED11CF12CE12CB8010E2C35
:1005100002C0759567950A94E2F76170F6018191C2
:100520006F010E94A101FFEFEF1AFF0A88E0E816B1
:10053000F10461F7CE01DF91CF911F910F91FF90F0
:10054000EF90DF90CF900C942402B80184E0759571
:1005500067958A95E1F7CE010E943A026F2DCE0190
:10056000DF91CF911F910F91FF90EF90DF90CF908F
:100570000C943A0240E0682F82E192E00C9467020A
:10058000CF93DF93823029F4909121029860909369
:100590002102809325021092260280E48093270294
:1005A00080E18093280280E58093290261E08091B8
:1005B00016020E94D301809117028F3F19F061E06B
:1005C0000E94D30161E0809118020E94D301C2E130
:1005D000D2E09E01225132408091210284FD0BC065
:1005E00084E090E021962817390744F461E08E8179
:1005F0000E94D301EECF88E090E0F4CF8BE39DE042
:100600000197F1F760E0809116020E94A10160E07D
:10061000809118020E94A101809117028F3F19F06A
:1006200060E00E94A1018091210284FD39C063E055
:1006300082E192E00E943A02CBE4D6E4CE01019737
:10064000F1F763E082E192E00E943A022197F1F72C
:1006500063E082E192E00E943A0283E592E0019732
:10066000F1F762E082E192E00E943A028091210279
:1006700080620E94BA0284E0809322028CE00E9491
:10068000BA0281E00E94BA028BE39FE10197F1F781
:1006900082E08093230286E0DF91CF910C94BA022E
:1006A00080620E94BA028BE496E40197F1F7809190
:1006B000210280620E94BA0283E592E00197F1F77D
:1006C0008091210280620E94BA02D0CFE09125027F
:1006D000E23040F4E150F0E0EE5EFD4F8489806846
:1006E0000C94BA02E1E0F7CF41E00E94670281E09A
:1006F00090E008951F920F920FB60F9211242F933E
:100700003F938F939F93AF93BF9380919F0190915D
:10071000A001A091A101B091A20130919E0123E01E
:10072000230F2D3758F50196A11DB11D20939E0171
:1007300080939F019093A001A093A101B093A20187
:1007400080919A0190919B01A0919C01B0919D0193
:100750000196A11DB11D80939A0190939B01A093D6
:100760009C01B0939D01BF91AF919F918F913F915B
:100770002F910F900FBE0F901F90189526E8230F12
:100780000296A11DB11DD2CF789484B5826084BD3C
:1007900084B5816084BD85B5826085BD85B5816085
:1007A00085BD80916E00816080936E001092810003
:1007B00080918100826080938100809181008160BE
:1007C000809381008091800081608093800080917F
:1007D000B10084608093B1008091B000816080930B
:1007E000B00080917A00846080937A0080917A00D2
:1007F000826080937A0080917A00816080937A0091
:1008000080917A00806880937A001092C10082E023
:100810000E94C00289E291E00E941702812C912C73
:100820005401839422242A94322C50E0652E50E007
:10083000752E51E050930F028FB7F89440919F01AD
:100840005091A0016091A1017091A2018FBF809190
:10085000FF0190910002A0910102B0910202481B99
:10086000590B6A0B7B0B80910B0290910C02B0E04C
:10087000A0E084179507A607B70708F011C1C0E0EC
:1008800080910902C81760F4E0910502F091060218
:10089000EC0FF11D62E080810E94D301CF5FF0CFA9
:1008A000512C80910A02581608F05FC0052D10E007
:1008B000E0910702F0910802E00FF11F61E08081F2
:1008C0000E94D301E0910702F0910802E00FF11FAE
:1008D00060E080810E94A101D501C401052C04C003
:1008E000880F991FAA1FBB1F0A94D2F76C017C01C5
:1008F000E094F094412C809109024816F8F4C42D3C
:10090000D0E0E0910502F0910602EC0FFD1F80811E
:100910000E9475012496CC0FDD1FCD55DE4F892B2B
:1009200041F4888199818C299D29998388834394F6
:10093000E2CF888199818E219F21F7CFE091070234
:10094000F0910802E00FF11F61E080810E94A10197
:100950008091070290910802080F191F60E0F801CA
:1009600080810E94D30153949CCF03EA11E0F801E7
:10097000878D90A1892B21F4148E368E258E11A29D
:10098000369651E0EF3DF50799F7F12C8091090279
:10099000F81608F050C0E12CCF2DD0E0CC0FDD1FB1
:1009A000C555DE4F20910A02E21608F042C0688168
:1009B00079810E2C02C0769567950A94E2F7F29E33
:1009C000900111242E0D311DE3EAF1E080E0458D08
:1009D000568D2417350709F4A9C08F5F36968A30E3
:1009E000B1F760FF24C0E3EAF1E090E080E0448DDD
:1009F000411118C0E0910302F0910402E20FF31FCD
:100A0000408156E0589FF001599FF00D1124ED559B
:100A1000FE4F448F368F258F10A2178E61E00E9403
:100A2000AF0005C0019636968A30910501F7E39430
:100A3000B9CFF394ABCF80E0F80191A19111892F48
:100A40000A5F1F4FF1E00F3D1F07B1F79FB7F89402
:100A500040919F015091A0016091A1017091A2016C
:100A60009FBF4093FF015093000260930102709377
:100A700002028823A9F08091C401882389F0809123
:100A8000C2019091C301019759F4E091BF01E111B6
:100A90000AC06114710409F4CCCE0E940000C9CED2
:100AA00010920F02F6CFE33251F0EA3209F040C063
:100AB0000E9466038AE391E00E941702EACF0E9437
:100AC000660382E491E0F8CF0E9466038AE491E035
:100AD000F3CF0E94660382E591E0EECF0E946603A9
:100AE0008AE591E0E9CF0E94660382E691E0E4CFD7
:100AF0000E9466038AE691E0DFCF0E94660382E7E8
:100B000091E0DACF0E9466038AE791E0D5CF0E9498
:100B1000660382E891E0D0CF0E9466038AE891E004
:100B2000CBCF0E94660382E991E0C6CF617077CF98
:100B3000E053EA3008F0ADCF0E2E000CFF0BED5560
:100B4000FA4F0C9424069105640569056E0573053A
:100B500078057D05820587058C0510921502109297
:100B6000140281E291E0909313028093120282E0DA
:100B7000809316028FEF80931702109218028FE075
:100B80008093190280E180931A028AE080931B020D
:100B900089E080931C0210921D0210921E02109296
:100BA0001F02109220021092210281E00E94C002D6
:100BB0001092A5011092A9011092A8011092AA0109
:100BC00087E191E09093A4018093A301EFEBF1E022
:100BD0001082148213821582369681E0EB3FF8076B
:100BE000B9F783E091E0909306028093050280E0DC
:100BF00091E0909308028093070284E080930902B9
:100C000083E080930A0287E091E09093040280934E
:100C100003028AE090E090930C0280930B0284EF31
:100C200091E090930E0280930D02109211021092A7
:100C300010021092FF011092000210920102109215
:100C4000020210920F020895EE0FFF1F0590F4911B
:100C5000E02D0994F894FFCF0605040C0B0807312A
:100C6000323334353637383923302A000000000F4C
:100C700002CF019E010000000074031F0114021343
:100C8000024C4679412D496E67656E6965726961EE
:100C90002D007465636C613A2A007465636C613A77
:100CA00023007465636C613A31007465636C613A6A
:100CB00032007465636C613A33007465636C613A49
:100CC00034007465636C613A35007465636C613A35
:100CD00036007465636C613A37007465636C613A21
:100CE00038007465636C613A39007465636C613A0D
:020CF0003000D2
:107E0000112484B714BE81FFF0D085E080938100F7
:107E100082E08093C00088E18093C10086E0809377
:107E2000C20080E18093C4008EE0C9D0259A86E02C
:107E300020E33CEF91E0309385002093840096BBD3
:107E4000B09BFECF1D9AA8958150A9F7CC24DD24C4
:107E500088248394B5E0AB2EA1E19A2EF3E0BF2EE7
:107E6000A2D0813461F49FD0082FAFD0023811F036
:107E7000013811F484E001C083E08DD089C08234E0
:107E800011F484E103C0853419F485E0A6D080C0E4
:107E9000853579F488D0E82EFF2485D0082F10E0AE
:107EA000102F00270E291F29000F111F8ED06801E7
:107EB0006FC0863521F484E090D080E0DECF843638
:107EC00009F040C070D06FD0082F6DD080E0C81688
:107ED00080E7D80618F4F601B7BEE895C0E0D1E017
:107EE00062D089930C17E1F7F0E0CF16F0E7DF06D8
:107EF00018F0F601B7BEE89568D007B600FCFDCFD4
:107F0000A601A0E0B1E02C9130E011968C91119780
:107F100090E0982F8827822B932B1296FA010C0160
:107F200087BEE89511244E5F5F4FF1E0A038BF0790
:107F300051F7F601A7BEE89507B600FCFDCF97BE46
:107F4000E89526C08437B1F42ED02DD0F82E2BD052
:107F50003CD0F601EF2C8F010F5F1F4F84911BD097
:107F6000EA94F801C1F70894C11CD11CFA94CF0C13
:107F7000D11C0EC0853739F428D08EE10CD085E9AC
:107F80000AD08FE07ACF813511F488E018D01DD067
:107F900080E101D065CF982F8091C00085FFFCCF94
:107FA0009093C60008958091C00087FFFCCF809118
:107FB000C00084FD01C0A8958091C6000895E0E648
:107FC000F0E098E1908380830895EDDF803219F02E
:107FD00088E0F5DFFFCF84E1DECF1F93182FE3DFCA
:107FE0001150E9F7F2DF1F91089580E0E8DFEE27F6
:047FF000FF270994CA
:027FFE00040479
:00000001FF
